:020000021000EC
:10000000909B0020B1F10100F9EF0100ADF101007A
:10001000ADF10100ADF10100ADF10100ADF1010064
:10002000000000000000000000000000ADF1010031
:10003000ADF1010000000000ADF10100ADF10100E3
:1000400095E6010045E701003DE8010045E70100B4
:100050003DE80100A9D40100B5D5010085D6010015
:1000600019D7010075EE0100A5CC0100CDCB010030
:1000700045CD010085CD0100ADDA010029EA01007E
:10008000ADDA0100ADDA0100A5DF010039DF0100C2
:10009000E5C5010055C60100FDC6010051C70100BC
:1000A000ADDA0100000000000000000000000000C8
:1000B0000000000000000000000000000000000040
:1000C0000000000000000000000000000000000030
:1000D0000000000000000000000000000000000020
:1000E0000000000000000000000000000000000010
:1000F0000000000000000000000000000000000000
:1001000000000000000000000000000000000000EF
:1001100000000000000000000000000000000000DF
:1001200000000000000000000000000000000000CF
:1001300000000000000000000000000000000000BF
:1001400000000000000000000000000000000000AF
:10015000000000000000000000000000000000009F
:10016000000000000000000000000000000000008F
:10017000000000000000000000000000000000007F
:10018000000000000000000000000000000000006F
:10019000000000000000000000000000000000005F
:1001A000000000000000000000000000000000004F
:1001B000000000000000000000000000000000003F
:1001C000FFFFFFFFFFFFFFFFFFFFFFFFFFFFFFFF3F
:1001D000FFFFFFFFFFFFFFFFFFFFFFFFFFFFFFFF2F
:1001E000FFFFFFFFFFFFFFFFFFFFFFFFFFFFFFFF1F
:1001F000FFFFFFFFFFFFFFFFFFFFFFFFFFFFFFFF0F
:1002000010B5054C237833B9044B13B1044800E012
:1002100000BF0123237010BD581B00200000000008
:10022000F862020008B5034B1BB10349034800E024
:1002300000BF08BD000000005C1B0020F862020047
:1002400002440139824200D1704712F8013D01F8A1
:10025000013FF7E7F0B500240A2785B0CDE9004457
:10026000CDE902440D460F49661C04F1100309282C
:10027000F2B26B440CD8095C684603F8101C29469E
:10028000FFF7DEFF002230462B195A7005B0F0BD93
:10029000B0FBF7F407FB1400085C03F8100C2046D1
:1002A0001446E1E7D83F0200021E08B503DBBDE8B3
:1002B0000840FFF7CFBF2D23504201F8013BFFF765
:1002C000C9FF013008BD70B50025013A12B2954250
:1002D000ABB202DD2B4698B270BD541B04EBD47454
:1002E00003EB64039CB21BB231F813608642F2D078
:1002F0008BBF013404F1FF3225B212B2E7E7B5EE4D
:10030000C00AF1EE10FA48BFB1EE400A7047FFFF95
:1003100038B517A5D5E900452DED048BB7EE008A59
:10032000F0EE408AB0EE489AF6EE009A28EE087A8F
:10033000C7EE287A77EEC97AF5EEC07AF1EE10FAB8
:1003400048BFF1EE677A17EE900A0FF0FBF82246ED
:100350002B460FF0C3F920B9B0EE480ABDEC048B70
:1003600038BD88EE880A30EE088A28EE298ADDE753
:100370002D431CEBE2361A3FF7EE007A20EE007AAE
:1003800030EE270AF6EE007A07EE270A7047FFFFE5
:10039000B5EEC00AF1EE10FA03D405DDB7EE000A9F
:1003A0007047BFEE000A70479FED010A704700BF1B
:1003B00000000000F0B585B004AC04E90300694614
:1003C00081E80C009DF80D309DF80C10144611FBCF
:1003D00003F16FF0404601230A9D8B4201DD05B019
:1003E000F0BD9A1905EB820700EB820C04EB820248
:1003F000DCED007A92ED007A77EE877A0133C7ED73
:10040000007ADBB2E9E7F0B585B004AC04E903009B
:10041000694681E80C009DF80D309DF80C101446DB
:1004200011FB03F16FF0404601230A9D8B4201DD71
:1004300005B0F0BD9A1905EB820700EB820C04EBC6
:100440008202DCED007A92ED007A77EEC77A013312
:10045000C7ED007ADBB2E9E77FB504AC04E903003D
:10046000694681E80C009DF80D309DF80C1014468B
:1004700011FB03F16FF0404501238B4201DD04B015
:1004800070BD5A1900EB8206366804EB8202013314
:100490001660DBB2F1E7FFFF7FB504AC04E90300AF
:1004A000694681E80C009DF80C309DF80D1014464B
:1004B000994238BF19469FED0B0A01236FF0404562
:1004C0008B4201D904B070BD5A1900EB820604EBCF
:1004D000820296ED007AD2ED007A013307EE270A08
:1004E000DBB2EDE7000000007FB504AC04E90300D7
:1004F000694681E80C009DF80D309DF80C101446FB
:1005000011FB03F16FF0404501238B4201DD04B084
:1005100070BD5A1904EB820600EB8202D2ED007A1C
:1005200067EE807A0133C6ED007ADBB2EDE7FFFFBC
:100530002DE9F04F89B004AC84E803009DF84D60CC
:100540009DF84C0002A98DF81C0010FB06F081E814
:100550000C0080009DF815809DF80D900FF046FC72
:10056000012405466FF04047049B9DF814B0DDF868
:1005700008A00093A34530D3631E03FB06FC03FBD6
:1005800008FE012320E0511E09FB013139440AEB2A
:10059000810101910EEB02000099384401EB8000CB
:1005A000019990ED007AD1ED006A46EE877A01322A
:1005B000D2B29045E7D20CEB03023A4405EB82023B
:1005C000C2ED007A0133DBB2994502D20134E4B2C4
:1005D000D0E7DFED097A0122EBE706958DF81D6083
:1005E00012AB08A90CCB11E90300FFF735FF09B0E6
:1005F000BDE8F04F0FF002BC000000002DE9F04F05
:1006000087B006AC04E9030002A981E80C00009061
:10061000002301209DF815709DF80DC09DF845E060
:10062000129D9DF81490DDF84080019281454ED3D3
:10063000441E012204FB07FB013B10E00BEB020A06
:10064000009E0AF1804A0AF1FF3A06EB8A0ADAF8BC
:1006500000A005EB81010132C1F800A0D2B2D1188F
:100660009742C9B2EAD2012204FB0CFA01395318AD
:100670009445DBB20CD2012204FB0EF403F1FF3AE5
:1006800002EB0A039645DBB214D20130C0B2CDE7CB
:100690000AEB020B019E0BF1804B0BF1FF3B06EBCB
:1006A0008B0BDBF800B005EB83030132C3F800B01D
:1006B000D2B2DCE7A11801F18041013908EB8101D8
:1006C000096805EB830301321960D2B2D8E707B09D
:1006D000BDE8F08F82B02DE9F34102AC04E90300DC
:1006E0000746002601216FF0404E9DF804C0099393
:1006F0008C4516D301EB0E05002407EB850505E0BC
:10070000D5F8008003EB8000C0F800803019013478
:100710005FFA84F84245C0B2F2D201310646C9B24E
:10072000E6E702B0BDE8F04102B070472DE9F04FB6
:100730008BB006AE86E8030004A981E80C009DF8A2
:1007400014709DF81550804617FB05F080000FF0DF
:100750004DFB044600B9FEE7089096E80300012629
:100760008DF824708DF825500AAB13E90C00FFF7C3
:1007700073FE6B1C9B000393B7425AD202230026E0
:10078000AD00D8B2874262D2DDE904230AA911E99B
:100790000300FFF761FE20460BB0BDE8F04F0FF0FD
:1007A0002DBBF9EC017A4FF0000CDDF808B004EB3A
:1007B000810E0CF1010C5FFA8CF39A420EF1040EDB
:1007C0002BD8D0ED006A87EEA67AAAEC017A039BBB
:1007D0000132D2B2184429449642E2D8019B6B43BD
:1007E000F21802F18042013A4FEA820908EB8202D4
:1007F00092ED000A002204EB83030132D1B28E4253
:1008000003F1040310D8FFF77AFDFFF781FDA1443F
:10081000013689ED000AF6B2AEE7FBEC016A1EED87
:10082000017A46EEC77AC4E753ED017A07EEE70A8C
:10083000E3E7731E05FB03F204EB820A08EB82096F
:100840002046002101220193CDF808A0C4E701222F
:1008500004EB830101325FFA82FC604541F8046CCD
:100860002944F7D801338CE7002210B5044610461E
:10087000A15CA1F13003092B0BD8A0F13003032AAE
:1008800001EB030002F1010218BF0001042AEFD1BD
:1008900010BDA1F14103052B02D8A0F13703EEE70B
:1008A000A1F16103052B02D8A0F15703E7E700206F
:1008B000EEE7FFFF2DE9F84F0A688B6880465D1C64
:1008C000D018D35C8A46222B154440F0DD802F4699
:1008D00000234C68B91AA14280F0D68039782229C9
:1008E0000ED1C3F10103381ADAF8102018449047EA
:1008F0008346002800F0C8800446DFF898910FE096
:100900005C2905D10137B91A8C4240F2BD80013310
:100910000137DFE72B785C2B12D0013504F8013B5F
:10092000BD42F7D30023237010230120C8E9033B05
:10093000DAF80030FB1A0133CAF80830BDE8F88F46
:100940007A1B002A0DDD6B78752B0AD86D2B12D817
:10095000622B2BD026D82F2B29D05C2B27D0222BF3
:1009600025D05846DAF814309847DAF80000281AEB
:10097000CAF808008BE06E3B072BF2D801A151F8B2
:1009800023F000BFB90901006309010063090100F8
:1009900063090100BD09010063090100C1090100EB
:1009A000C5090100662BDCD10C2300E0082304F804
:1009B000013B02231D44B3E70A23F8E70D23F6E7C2
:1009C0000923F4E7052ACCDDA81CFFF74DFFA0F5AD
:1009D0005C43B3F5806F0646C3D3A0F55843B3F527
:1009E000806F2DD2AB1DFB1A052BBADDAB795C2BCA
:1009F000B7D1EB79752BB4D105F10800FFF734FFBF
:100A0000A0F55C43B3F5806FABD20C2309EA8626D0
:100A1000C0F30900304300F580364FF0F00C04209D
:100A200000F1FF3E54FA8EFEA645F2B224D1012811
:100A300014BF42EA0C0202F07F0222700444B9E7BC
:100A40007F280AD9B0F5006F0CD3B0F5803F0ED3E4
:100A5000B0F5881F85D20623DFE706234FF0000C90
:100A60000120DDE706234FF0C00C0220D8E7062363
:100A70004FF0E00C0320D3E702F03F0262F07F0169
:100A80000EF80119B609CFE7002D7FF46EAF0020F4
:100A900054E700BF00FC0F0010B528B1016889B110
:100AA000D0E901329A4202D310BD013282608268DD
:100AB000934203D98C5C202CF7D9F5E7F4D1013BA4
:100AC0008360F1E70846EFE738B5044638B10068BF
:100AD00028B1A56828440FF0EEFB2844A06038BD7B
:100AE00070B50446B8B1056865B1436813B1826852
:100AF000934210D900290EDBA2684E1C1644B34263
:100B000002D31544284670BD236923B9B6F1804F3E
:100B100003D3002E0FDA0025F4E77600236A6BB1C9
:100B20002846314698470546B0B9E369206898479A
:100B3000C4E90055E6E76FF00046EFE73046A369E9
:100B4000984705460028F0D0A268216801320FF0CE
:100B50006DF9E36920689847A368C4E900561D440D
:100B6000D0E7FFFFF8B50D460446002834D0002931
:100B700031D08468FAB9194E74B3236AC3B1AB4259
:100B800021D005F1FF3C013B1CF8011F0F468A5D97
:100B900002F00302012A13F8012F08BF01F1200718
:100BA000B05C00F00300012808BF203297420FD04C
:100BB0002468E1E724687CB1216A21B128460FF05E
:100BC00057FB0028F6D1236A002B08BF002403E05E
:100BD0000029D9D1F7E70C462046F8BD995E0200FE
:100BE00081B138B181420DD0836823B98160C1E9F8
:100BF0000031012070475A68002AFAD011604A601B
:100C00005960F6E7002070472DE9F84F0646084680
:100C100011B90020BDE8F88F36B331464FF0000A15
:100C20000124424F0D4611F8013B3BBBAD1B55441F
:100C3000E91CFFF755FF07460028EAD04FF0220BCA
:100C4000441C05F1010905F1020880F800B0BAF171
:100C5000000F29D12A46314620460FF0E7F807F861
:100C600009B007F808A007E00321FFF739FF0028C3
:100C7000CFD02F490FF006FB0120CBE7222B0BD85A
:100C8000072B0CD9A3F10802D2B204FA02F23A42BD
:100C900005D00AF1010AC5E75C2BC3D1F9E71F2B88
:100CA00098BF0AF1050ABDE75C254FF0740ADFF82A
:100CB00084B0013E16F8013F2BB9222207F8092023
:100CC00007F80830D8E71F2B07D9222B05D05C2B5B
:100CD00003D020462370441CECE7204600F8015B5B
:100CE00032780D2A0AD8072A1AD9A2F10803052B4F
:100CF00016D8DFE803F009120E150C10222A01D0D5
:100D00005C2A0DD16270E6E762236370E3E7662335
:100D1000FBE76E23F9E77223F7E784F801A0DAE72F
:100D200059460FF007FA601DD5E700BF37000004F1
:100D3000E23F0200E53F020037B5054680B10FF003
:100D4000BAFA084B421C10461B68019298470446A9
:100D500018B12946019A0FF069F8204603B030BD5A
:100D60000446FAE790060020F8B50D4614460746FB
:100D700000B3F9B1F2B190421CD093B1D66846F4F9
:100D80000076E3689B0504D4206A10B10A4B5B68C7
:100D90009847214638462562E660BDE8F840FFF7EF
:100DA0001FBF0846FFF7C8FF054618B1E66826F4DE
:100DB0000076E6E70020F8BD90060020034610B557
:100DC00028209847044618B1282200210FF03BF84C
:100DD000204610BD2DE9F04F0C4680468DB008B975
:100DE00000255DE00029FBD0057B102D00F00E8171
:100DF00018DC6B1E072BF3D8072BF1D801A252F891
:100E000023F000BF8F0E0100A90E0100E10D0100CB
:100E1000790E0100E10D0100E10D0100E10D01007D
:100E2000B90E0100402D00F02081802D00F0D98006
:100E3000202DD5D1866801212046FFF751FE0028DC
:100E4000CED05B232C274FF000080370A36801333A
:100E5000A360E3680133E360002E40F0DD800221EF
:100E60002046FFF73DFE0028BAD05D234670037090
:100E7000E368013BE36008E005212046FFF730FE10
:100E80000028ADD092490FF0FDF9012508E00621B8
:100E90002046FFF725FE0028A2D08E490FF0F2F978
:100EA00028460DB0BDE8F08F05212046FFF718FE5B
:100EB000002895D08849E6E70021D0E90667162288
:100EC00006A805910EF0BFFF002200233046CDE9B1
:100ED0000223394632463B460EF014FC90B927F007
:100EE000004B4FF0FF32304659467C4BB2460EF075
:100EF00009FCF0B94FF0FF3230465946774B0EF0FF
:100F0000E3FBB0B9724905A80FF0BCF904252046EF
:100F1000691CFFF7E5FD00283FF462AF034605A911
:100F20004619B34257D100234355A0682844A06016
:100F3000ABE7D8F8145028460EF0F2FA02460B46FA
:100F4000304639460EF0ACFB48B12A46644905A844
:100F50000FF0F0F80546192D3FF642AFD7E73246BD
:100F60003B46604905A80FF0E5F85F49054602AA2F
:100F700005A80FF0FFF8012826D1DDE9028929F044
:100F80000043CDF8008001935046DDE90023594627
:100F90000EF090FB08B9CDE900AB32463B46404627
:100FA00049460EF06FF900228046504B21F000496F
:100FB000DDE9000112F026FC02460B464046494698
:100FC0000EF082FB0028C6D132463B46484905A8B0
:100FD0000FF0B0F8BEE711F8012B013303F8012C34
:100FE0009FE7006900283FF4FBAE0FF064F9421C54
:100FF000114620460092FFF773FD00283FF4F0AE43
:10100000009AD8F810100EF011FF3EE700690DB0FD
:10101000BDE8F04FFFF7F8BD21463046FFF7DAFE96
:1010200000283FF4DDAE2046FFF74EFD3368BBB12C
:1010300063692046002B14BF4FF002094FF00109ED
:1010400009F10101FFF74CFD00283FF4C9AE07701C
:1010500063693BB9431C83F80080A3684B44A360D9
:101060003668F9E6831C4570F5E74B698568002B07
:1010700014BF022601262046711CFFF731FD00280F
:101080003FF4AEAE7B230370E26863690132E26035
:101090000BB10A234370A3683A2733440926A3609F
:1010A00063693DBB002B00F08580E168013120467B
:1010B000FFF716FD00283FF493AE6369002B40F064
:1010C000838003467D221A7000225A70D0E600BF4A
:1010D000EB3F0200F03F0200F63F0200FFFFEF7F10
:1010E000FB3F0200FE3F0200054002000000B03C52
:1010F0000940020073B12046E168FFF7F1FC0028C7
:101100003FF46EAE0246E168131A99424FD8A368C5
:101110000B44A3602146286AFFF776FD00283FF4C0
:101120005FAE2046FFF7D0FC63692046002B14BF5A
:101130004FF002084FF001084146FFF7D1FC0028AC
:101140003FF44EAE0770636903B14670A368214651
:1011500043442846A360FFF73DFE00283FF440AE1D
:101160002046FFF7B1FC2B686269B3F1000818BF95
:101170004FF00108002A18BF08F10108204608F1C5
:101180000101FFF7ADFC00283FF42AAE2B6813B134
:101190002C2300F8013B636913B10A2300F8013BDB
:1011A00000230370A3682D684344A36078E702F826
:1011B000016BA8E702217AE703F8015BE268191ADC
:1011C000013A8A42F8D87DE703460925F6E700BFD1
:1011D00070B5234D8AB00E4624220021044601A892
:1011E0000EF031FE2B684FF4807098474FF48072F8
:1011F000034606960AAE0190029295E8070006E9BA
:1012000007007BB1204601A9FFF7E4FD50B101A81A
:10121000FFF75AFCAE6803995EB101980131B047FF
:101220000446D0B9019CC4B120466B68984700249D
:1012300013E02B68481C984704460028F2D0039A14
:10124000029B01329A4228BF1A4601990EF0EEFD28
:10125000039BE6546B680198984720460AB070BD1E
:101260009006002070B504460F4D04B970BDE368C8
:101270002668D90503D4A06868B9206988B9E368ED
:101280009B0503D4206A08B16B68984720466B68B9
:1012900098473446E9E7FFF7E5FFE368DA05ECD560
:1012A000EDE76B689847EAE790060020FFFFFFFF35
:1012B0002DE9F04706460C4692B009B9002023E01C
:1012C0000F68002FFAD08D68D1F8048005F1040969
:1012D000C1450BD80422924978190EF0F4FF28B9C1
:1012E0000423F360C4F8089001200DE005F1050A1D
:1012F000D0450CD305228B4978190EF0E4FF30B9A4
:101300000120F060C4F808A012B0BDE8F087C14524
:101310000CD80422844978190EF0D5FF30B9022385
:101320000120F3607061C4F80890EDE74545C5D22F
:101330007B5D7819222B06D12146304612B0BDE8DC
:10134000F047FFF7B7BA2D2B03D0A3F13002092ADB
:1013500062D8002302AA17464FF02E0E0193A8EB85
:10136000050510F8011B392910D82A291BD9A1F12C
:101370002B0CBCF10E0F16D8DFE80CF00D150D3B51
:10138000150D0D0D0D0D0D0D0D0D0D0001F0DF0CEA
:10139000BCF1450F07D1117001333F2B02F101025F
:1013A00001D0AB42DDD1002548336B44384603F809
:1013B000405C01A90FF0CAFDDDF804A059EC108BC8
:1013C000BA453FF47BAF54A3D3E9002386ED060B67
:1013D00010EE100A49460EF081F968B16FF0004333
:1013E00073610823AAEB070AA768F3605744A76054
:1013F0007AE782F800E0CFE70022404649464B4BAF
:101400000EF062F910B14FF00043E9E7404649465B
:101410000EF08EF97061E4E75B2B54D1E368B3F50D
:101420007A7FBFF44BAF0133E3607B5D5B2B7FF4CE
:1014300045AF01352046A560FFF72EFBD4E9012317
:10144000934264D22268D25C5D2A0DD100252F46DA
:10145000E368013BE36007B17D602023C6E90273C6
:10146000A3680133A3603FE700252F46013BA3603B
:101470002069FFF7A3FCA8460546002800F09D80E0
:10148000FFB1C8F80000C0F80480A368204601330B
:10149000A360FFF701FB21462846FFF709FF00285C
:1014A00000F08E802046FFF7F7FAD4E9012393423B
:1014B00080F086802268D35C2C2BD9D05D2B7FD125
:1014C000C6E70746E1E77B2B7FF4F8AEE368B3F5A8
:1014D0007A7FBFF4F3AE0133E3607B5D7B2B7FF457
:1014E000EDAE01352046A560FFF7D6FAD4E9012319
:1014F00093420CD22268D25C7D2A19D100252F4656
:10150000E368013BE36007B17D604023A6E7013B50
:10151000A360D3E6AFF300800000C0FFFFFFDF4110
:10152000EB3F0200F03F0200F63F02000000E0C186
:1015300000252F46A846013BA3602069FFF73EFC2B
:10154000A9460546002838D0AFB3C9F80000C0F856
:101550000490A36820460133A360FFF79DFA21465B
:101560002846FFF7A7F958B32046FFF795FA2B69ED
:10157000C5F810802B62D4E90123934220D222685F
:10158000D25C3A2A1CD101332046A360FFF784FACB
:1015900021462846FFF78CFE90B12046FFF77CFAE3
:1015A000D4E9012393420BD22268D35C2C2BC4D004
:1015B0007D2B05D1A4E70746CBE7002F3FF47EAE95
:1015C0003846FFF74FFE79E62DE9F04305464FF028
:1015D000000989B02E4F0C46164600211C2201A896
:1015E00098460EF030FCC7E90099002D46D0002C3B
:1015F00039D0284BCDE9015493E8070008AB03E943
:101600000700FFF7DBFB044668B3019870B1039B4A
:101610005BB9029B042B06D903221F490EF053FE2F
:1016200008B90323039301A800E04846FFF734FA02
:1016300001462046FFF73CFE90B1B8F1000F04D1FF
:10164000F6B9204609B0BDE8F08301A8FFF724FAF7
:10165000DDE90223934203D2019AD35C002BEFD041
:101660002046FFF7FFFDDDE902329A420DD303B1B8
:10167000013B0EB1EA183260C7E900530024E0E7ED
:10168000019B039A13443360DBE71346F1E700BF85
:10169000741B0020900600201040020037B50D4654
:1016A0000446019250B10EF006FE2A46411C204627
:1016B000019B03B0BDE83040FFF786BF03B030BDEB
:1016C00000221146FFF7EABF0121FFF781BDFFFFAE
:1016D000F0B515468BB006460C462422002101A821
:1016E0001F460EF0B0FB002D11DB94B10123CDE9B4
:1016F0000537094BCDE9014593E807000AAB03E93B
:101700000700304601A9FFF765FB0BB0F0BD0020D4
:10171000FBE72046F9E700BF900600200022FFF714
:1017200021BA0023FFF720BB174BD0B5186857EC40
:10173000106BFFF743FB044670B10823C0E906674E
:10174000C36039460EA3D3E9002330460DF0C6FF2F
:1017500020B16FF0004363612046D0BD00223046C7
:1017600039460A4B0DF0B0FF10B14FF00043F2E7DD
:10177000304639460DF0DCFF6061EDE7AFF30080E5
:101780000000C0FFFFFFDF41900600200000E0C125
:1017900037B505460191FFF7C7FF0023024604460F
:1017A00001992846FFF7E0FA054618B92046FFF7E9
:1017B00059FD2C46204603B030BDFFFF38B50A4B1B
:1017C00005461868FFF7FAFA044658B11023C360BB
:1017D0002846FFF7B1FA0546206118B92046FFF701
:1017E00041FD2C46204638BD9006002037B5054601
:1017F00010460191FFF7E2FF0023024604460199DB
:101800002846FFF7B1FA054618B92046FFF72AFD2A
:101810002C46204603B030BD08B5044B1868FFF7CE
:10182000CDFA08B12023C36008BD00BF9006002098
:1018300008B5044B1868FFF7C1FA08B14023C3602C
:1018400008BD00BF9006002037B505460191FFF79F
:10185000EFFF00230246044601992846FFF784FA69
:10186000054618B92046FFF7FDFC2C46204603B07C
:1018700030BD2DE9F843B1F10009804603DA0024B8
:101880002046BDE8F8830028F9D0FFF7C5FF002601
:1018900004463746002CF2D0B94504D8A368002B83
:1018A000EED05E60ECE758F827000DF039FE41EC11
:1018B000100BFFF739FF054618B92046FFF7D2FC99
:1018C000DDE71FB9A0602E460137E3E730604660D0
:1018D000F9E720B1007BA0F1080358425841704756
:1018E00008B50246FFF7F5FF10B192ED060B08BDF3
:1018F0009FED010BFBE700BF000000000000F87F38
:1019000020B1007BA0F1100358425841704708B540
:101910000246FFF7F5FF00B1106908BD70B50D462E
:101920001646044618B918200EF060FA0446002343
:1019300063614FF0FF33681CC4E90106E360704344
:1019400023610EF053FA206020B90348BDE87040CF
:101950000EF0D0BB70BD00BF1440020038B5C568A2
:1019600043680135B5FBF3F203FB125503690446E6
:10197000AB420CD02368C068A26802FB00300EF0B6
:1019800055FA0120E56063690133636138BD0020C9
:10199000FCE710B50446E268236908469A4213D072
:1019A0002368A268216902FB01310EF03FFA236926
:1019B00062680133B3FBF2F1012002FB11332361B2
:1019C0006369013B636110BD0020FCE74FF6FF72C5
:1019D00010B5074C0144884201D1104610BD10F8E3
:1019E000013B5340DBB234F8133083EA1222F2E7B2
:1019F0002640020038B504462DED028B0D46D1E994
:101A000008010DF0ADFF9FED2A8A07EE900AD5E997
:101A10000A01C7EE887AC4ED067A0DF0A1FF07EE41
:101A2000900AD5E90C01C7EE887AC4ED077A0DF06B
:101A300097FF07EE900AD5E90001C7EE887AC4ED5A
:101A4000087A0DF08DFF07EE900AD5E90201C7EE86
:101A5000887AC4ED027A0DF083FF07EE900AD5E98B
:101A60000401C7EE887AC4ED037A0DF079FF07EE22
:101A7000900AD5E90601C7EE887AC4ED047A0DF024
:101A80006FFF07EE900AD5E90E01C7EE887AB5F828
:101A90004030C4ED057A23850DF062FF07EE900A11
:101AA000C7EE887ABDEC028BC4ED097A38BD00BF61
:101AB00000007A4490ED067ADFED2D7A27EE277A42
:101AC000BDEEC77A17EE103A90ED077A27EE277A27
:101AD000BDEEC77ADA17C1E9083217EE103A90ED79
:101AE000087A27EE277ABDEEC77ADA17C1E90A32FB
:101AF00017EE103A90ED027A27EE277ABDEEC77AFC
:101B0000DA17C1E90C3217EE103A90ED037A27EE9E
:101B1000277ABDEEC77ADA17C1E9003217EE103A1C
:101B200090ED047A27EE277ABDEEC77ADA17C1E97D
:101B3000023217EE103A90ED057A27EE277ABDEEC5
:101B4000C77ADA17C1E9043217EE103A90ED097A34
:101B500067EE277AFDEEE77ADA17C1E90632038DE0
:101B6000A1F8403017EE903ADA17C1E90E3270470B
:101B700000007A44DFED807AC0EE276AF8FE666ADC
:101B800066EEA76A07EE901A9FED7C7AB8EEE76AD8
:101B90000029C6EE077ABCBF9FED797A67EE877A97
:101BA000C0ED007ADFED777A90ED007A38B527EE58
:101BB000277A2DED048BDFED749AD0ED047A87EE51
:101BC000296A77EEC67A0029B8BF49421429C8BFEE
:101BD000038D0446C4BF01330385B0F92830C0ED3E
:101BE000016AB3F5967FC0ED047A40F0AF8090EDC6
:101BF000027A36EEC77A9FED656A27EE075AD0ED76
:101C0000065A85EE068A80ED037AC0ED026A27EE59
:101C1000877ADFED5F6A05EEA68AC7EE065A90ED79
:101C2000075AB0EE657A67EEA77A05EE267AD0ED10
:101C3000085A80ED077A87EE867A05EEA67A436A1F
:101C4000544D80ED068A80ED087A9FED530A2B6093
:101C5000FEF75EFBF0EE408A9FED4F0AFEF758FB61
:101C6000D4ED087A28EE800A00EE678A9FED4A0AD2
:101C7000FEF74EFBF0EE488AB0EE408A9FED460A32
:101C8000FEF746FB38EE088A28EE008A94ED070A34
:101C900028EE008A9FED400AFEF73AFB88EE889A0C
:101CA000B0EE408A9FED3C0AFEF732FB28EE000AB8
:101CB000B7EE008A69EE098AC8EE007A37EEA80A04
:101CC000FEF726FBDFED357A30EE490AB4EEE70A7F
:101CD000F1EE10FA3DDDC4ED057ADFED316AD4EDA9
:101CE000057A67EEA67A9FED2F6A67EEA97A87EEEE
:101CF000867AD5ED007A84ED097A37EEC77AB4EEAC
:101D0000C87AF1EE10FAC4BF37EEC87A84ED097ACA
:101D100094ED097ABFEE006A37EEC77AB4EEC67A60
:101D2000F1EE10FA44BF77EE887AC4ED097AD4ED6B
:101D3000097A0023F4EEE67AE3602361F1EE10FA0B
:101D40004FF0000323850EDDC4ED096ABDEC048B62
:101D500038BDB5EEC00AF1EE10FA96BF124B84ED15
:101D6000050A6361B9E7F4EEC87AF1EE10FA48BFEC
:101D700084ED098AEAE700BF6F12833A0000C8C306
:101D80005249853F3433333F000061458FC2F53AF5
:101D900077BE7F3F7C1B002066CF8B3A713D8A4027
:101DA0000000C842000073467CF2303DD0ED097A55
:101DB000FCEEE77A17EE900A704790ED090A70473B
:101DC0000169B0F91830D1ED007AF4EE407AF1EE05
:101DD00010FA01EB830237FE800A52ED017AF4EE2D
:101DE000407AF1EE10FA4FF0000248BFB0EE670AF9
:101DF00030B595B29D424FEA850409DA0D19D5ED4B
:101E0000007AF4EEC07AF1EE10FA02F10102F0DB92
:101E1000C368234493ED000A30BDFFFFC16830B5AD
:101E2000D1ED007AF4EE407AF1EE10FAB0F91840F4
:101E300037FE800A01EB840353ED017AF4EE407A19
:101E4000F1EE10FA4FF0000248BFB0EE670A93B20D
:101E5000A34202DBDFED0F7A19E09D0001EB830363
:101E6000D3ED007AF4EEC07AF1EE10FA02F101023D
:101E7000EDDB426903692A442B4470EE677AD2EDA8
:101E8000006A93ED007A07EEA67AC7EE007AB0EE0C
:101E9000670A30BD00000000D0ED007ADFED386A3F
:101EA000F8EE677AF8B50122002387EEA67A2DEDC9
:101EB000028BC0E90E23436B324A334E1A60334A19
:101EC00000245A60324A9A603368324A83ED007ABD
:101ED0009FED317AD0ED036AC6EE877A2F4B02F17F
:101EE00020071B68C3ED007A5C609C602C4B1B686C
:101EF000154603CDBD42186059602A4603F1080318
:101F0000F6D1B7EE008A2868264F18603D68202277
:101F10000021281D0DF097FF85ED008A9FED220A14
:101F2000FEF72AFA85ED040A204D3B682F6883ED01
:101F3000088A14220021381D0DF085FF1C4B9FEDEF
:101F40001A0A3B60FEF718FA38EE400ABDEC028B25
:101F50002B68184A83ED020A174B1B681C605C60F3
:101F60009A60164B164A1B681C605A60154B1B681A
:101F70001C605C6033681A68134B1B681A60F8BDFC
:101F800000007A469EEFA73D8C1B0020B537F83C39
:101F9000A8B49041D04B02000000C842E0060020E7
:101FA00060070020B8060020607BA3BFC0060020A9
:101FB000719544B8B6F37DBDC8060020D006002058
:101FC0000AD723BB30070020A81B00202DE9F04FC3
:101FD0002DED048B032997B00446DFF85083089158
:101FE00000F0D484042900F0FD84D8F80030DFED3F
:101FF000B67A93ED007AB4EEE77AF1EE10FA03D5F3
:102000004368132B40F3B384D4ED097ADFEDAF6A54
:10201000F8EE677A87EEA67AD4ED0A7ADFEDAC6A3D
:10202000F8EEE77AAB4BAC4F1B68032283ED007AE6
:1020300087EEA67AA94BAA4D1B68AA4E83ED007ABB
:102040007B689FEDA98A009398E803003B68FEF740
:1020500041FB95E80C00A54903C9FEF767FB95E82D
:102060000C0095E803009FEDA20AFEF73DFA97E801
:1020700003008DE8030095E80C00FEF79BF995E856
:102080000C0095E80300B0EE000AFEF72DFA95E883
:1020900003008DE8030095E80C0097E80300FEF7C5
:1020A000B2F996E8030002AB83E8030095E8030069
:1020B0008DE8030097E80C008E4F98E80300FEF7C8
:1020C0009DFA97E803008DE803008B4D8B4B95E854
:1020D00003008B4D0CCBFEF72BFA6B6807220093A5
:1020E0002B6897E80300FEF7F5FA96E803008DE801
:1020F0000300844F96E80C0097E80300FEF718FAF7
:1021000096E803008DE8030095E80C007E4DFEF78D
:1021100051F92F46366806F15408F6EC017A67EE5D
:10212000887A17EE900A0DF06DFC4645E7E802014B
:10213000F3D10022754B17469E4690469446914631
:10214000164605930692DEE9003AD5E90010584399
:1021500001FB0A00A3FB011B0835584411EB0C0CD2
:1021600040EB0909D5E90C1058430AFB0100A1FB1B
:10217000031B5844CF1940EB0808D5E91A105843FF
:10218000A1FB03B30AFB010001361844069B1BEBBD
:102190000202F6B240EB0303072E0EF1080E06937F
:1021A000D1D15B4DC5E904235A4BC5E900C99B4613
:1021B0001E68C5E9027806F10C07F5E802010DF08A
:1021C000CFFB07EE900AC7EE887AE6EC017ABE42B2
:1021D000F3D1514D07226B68424E00932B689BE868
:1021E0000300FEF777FA95E803008DE8030095E811
:1021F0000C0096E80300FEF706F9484B9FED488A6D
:102200001E462D68069305F15407F5EC017A67EE3A
:10221000887A17EE900A0DF0F5FBBD42E6E8020160
:10222000F3D148223F4940480DF000FE0023DFF87B
:10223000ECC0DFF8FCE00793DEF80030DFF8E8A040
:102240000A93DEF804305546674600260C930EF1DB
:10225000080E26E0D8F804300B9A09995343D8F8B1
:10226000002009F1010901FB023319460B9B08F11B
:102270003808A2FB03230D930D9B19440368D21861
:10228000436840F8082B41EB0303B9F1030F40F812
:10229000043CDFD10336092E07F1380705F1180594
:1022A0004AD0D7E900130A9AE04653430C9A2846CD
:1022B00002FB01330A9A4FF00009A1FB02210B92A5
:1022C0000A461A440992C5E768916D3C00007A46B7
:1022D0000000C8C38C1B0020E8060020881B0020DB
:1022E000F006002050070020A5D4685360070020A6
:1022F000BDE38D3C18070020C006002030070020F9
:1023000008070020B8060020501C0020404C0200A6
:10231000C81B00203807002058070020F81C0020A8
:1023200020BCBE4CF84B0200A01D0020E00600209F
:10233000984B0200EC78AD60079B0CF1080C013360
:10234000072B07937FF478AF1FED068AD84E3568C8
:1023500005F12407FAE802010DF002FB07EE900AEE
:10236000C7EE887AE5EC017AAF42F3D1D14FD24D76
:102370007B68032200933B689BE80300FEF7AAF901
:1023800095E80C0096E80300FEF7D0F995E80C00FC
:1023900095E803009FEDC90AFEF7A6F897E8030049
:1023A0008DE8030095E80C00FEF704F895E80C00B2
:1023B00095E80300B0EE000AFEF796F895E80300F2
:1023C0008DE80300BE4E95E80C0097E80300FEF789
:1023D0001AF896E8030002AB83E8030095E80300CF
:1023E0008DE80300B74D9BE8030097E80C00FEF76B
:1023F00005F92B68DFF8249393ED000AD9F80070F3
:102400009FEDB18A87ED000AFDF7C2FF87ED010A53
:102410002B684F4693ED000AFDF771FFDFEDAB7AB5
:10242000B4EEE70AF1EE10FA48BF00229FEDA87A59
:1024300048BFD9F80030DFF8E89248BF5A60D9F8B1
:1024400000302A6883ED007AD2ED007AF5EEC07A8A
:10245000DFEDA07AF1EE10FA58BFF0EE477AC3ED47
:10246000007A636BDFF8BCA2D3ED027A93ED010A28
:1024700020EE270A88EE000AFDF741FFB1EE400A80
:10248000DAF800B0FDF778FF8BED000AD9F80030DC
:102490009FED910AD3ED007A67EE807A2B6867EEA4
:1024A000887A93ED000ADFED8D8A67EE807A94EDED
:1024B000100A20EE280A87EE800AFDF720FF884DDB
:1024C000B1EE400AD5F800B0FDF756FF8BED000ADB
:1024D000DAF80010834B0A681B68B0461A612A6854
:1024E0000FAD10681862D9F800007F4BD0ED007A6C
:1024F00028EE678AD4ED107A67EEA87A88EE277AFC
:102500001B68B7EE008A83ED007AD1ED007A78EE91
:10251000677AC3ED027AD2ED007A77EEC87A1C2290
:10252000C3ED057A00210FA80DF08DFC4FF00009D6
:102530003368606B4B4493ED000AFFF76FFC09F1C1
:102540000409B9F11C0FA5EC010AF1D19DED107A37
:10255000DDED0F7A77EE877A9DED117A77EE877A47
:102560009DED127A77EE877A9DED137A77EE877A72
:102570009DED147A77EE877A9DED157AF1EE0C6A6F
:1025800077EE877A87EEA67ADFF89CC1636BDCF87A
:102590000020564E82ED007AD3ED017AF1EE677A93
:1025A000C2ED017AD3ED007AF1EE677A3268504DD0
:1025B000C2ED007A95E803008DE803009CE8030073
:1025C00098E80C00FDF7B4FF96E8030097E80C00CC
:1025D0002E46FDF761FF474B1A6802F11C01A2EC81
:1025E000010A9142FBD196E803008DE803000CCB71
:1025F00096E80300FDF7DEFE2F683F4DDFED3F8AD2
:10260000A84607F11C09F7EC017A67EEA87A17EEE5
:10261000900A0DF0F7F9B945E8E80201F3D100207E
:1026200001460746059B059A1B68D2F804E008326C
:102630000592D5E900C25A430CFB0E22A3FB0C3CC9
:10264000013718189444FFB24CEB0101072F05F134
:102650000805E7D12A4BC3E900012A4B1D680DF09C
:102660007FF907EE900AC7EEA87AC5ED007A264BEF
:102670001A6802F11C01286842F8040B9142FAD151
:10268000224D9FED239A95E803008DE8030096E81C
:1026900003000CCBFDF7B7FE2D68DFF89090AB463A
:1026A000DFF88CA01B4E1C4F05F11C0842E000BF58
:1026B00060070020E8060020F0060020BDE38D3C06
:1026C00050070020881B00203433333F6F12833AB9
:1026D0005249853F789C823FCCFF7642000073468A
:1026E000801B0020B8060020C0060020D006002075
:1026F0004807002000070020E01B0020286B6E4EDA
:10270000B01B0020A81B0020F80600204007002076
:102710008096184B00005B629AE09E003007002014
:10272000B81B0020841B0020C8060020984B020024
:10273000181C0020FBEC017A67EE897A17EE900AEC
:102740000DF060F9D9E90032424303FB0122A0FBFE
:10275000033CCAE900015943624400FB0211A3FB98
:1027600000309E19084440EB0707D8450AF1080AD3
:1027700009F10809DED1A84B3046C3E90067A74B31
:1027800039461B68A64F05930DF0EAF89FEDA57A30
:1027900007EE900AC7EE877A059BC3ED007AA24B3D
:1027A0001E6806F15409F6EC017A67EEA87A17EE76
:1027B000900A0DF027F9B145E7E80201F3D19B4EED
:1027C000F5EC017A67EEA87A17EE900A0DF01AF987
:1027D000A845E6E80201F3D100220023944D4FF012
:1027E000000A2846C5E90023C5E90223C5E90423F8
:1027F000D0E900890026DFF834E28E4FDDF818B00A
:102800000830DBE900320992DEF80020D7E9001C2D
:10281000079203FB0CFCDEF8042001360A92099AA9
:10282000F6B201FB02CCA3FB01310A9A8C445A4355
:1028300007990BF1080B01FB0C2CA3FB013113EBE7
:1028400008088C444CEB0909072E07F108070EF124
:10285000080ED6D1069B0AF1070A3833BAF1150FD4
:1028600040E902890693C3D1DFED738A734E37685E
:1028700007F10C08F5E802010DF072F807EE900A76
:10288000C7EEA87AE7EC017AB845F3D196E80300E1
:10289000059B6B4D93ED000A95E80C0088EE000A4D
:1028A000FDF722FE95E80300664B674E1A68674BFA
:1028B00092ED000A1B68664FD3ED007A96E80C0093
:1028C00030EE670AFDF710FE97E803008DE803007D
:1028D000DFF8A4C196E80C009CE80300FDF76AFD50
:1028E0003B68BFEE007AD3ED007AF4EEC87AD3ED00
:1028F000027AF1EE10FAF4EEC77AC8BF83ED008ACF
:10290000F1EE10FA2E4639D583ED027AD3ED007A36
:10291000F5EEC07AF1EE10FA03D504212046FFF758
:1029200055FB29684B4B08681A684B4D1060486886
:1029300050608968916095E803008DE8030096E88F
:1029400003000CCBFDF7F4FD344B444E196895E8B9
:102950000C0091ED000A95E80300FDF7C5FD96E82F
:1029600003008DE8030095E80C00FDF74CFD089B83
:10297000237417B0BDEC048BBDE8F08FF4EEC87A79
:10298000F1EE10FAC8BF83ED028ABFE7D8F8003035
:10299000DFED337A93ED006AB4EEE76AF1EE10FAF8
:1029A000E5DCD0ED0A7AB8EEE77ADFED2E7ADFEDDE
:1029B0002E6A27EE277AD0ED107A67EEA67ADFED41
:1029C0002B6A67EEA67AC7EE276AF7EE007A36EE34
:1029D000867AB4EEE77AF1EE10FA77FE877AC3EDE5
:1029E000007AC4E7D0ED007A9FED210AF8EE677A0D
:1029F000406B87EE800AFFF7E3F9DFED1E7A0022D5
:102A000020EE270AD8F8003084ED030A20469A60A9
:102A1000FFF742FAABE700BFC01B0020BC1B002041
:102A2000F81C00206B0B5E5D58070020181C00206E
:102A3000901B0020984B020078860764D80600207F
:102A4000100700208C1B002020070020A81B00205E
:102A5000E00600206807002028070020600700200B
:102A6000295C7F3F3433333F0000C8430000734686
:102A700000007A460000C8423807002080ED030AB3
:102A80007047FFFF07EE901ADFED116AF8EE677AE4
:102A900087EEA67AD0ED037AF8FE677A38B5FCEEB9
:102AA000E77A0025436802688362C0E9072380ED66
:102AB000107AC0ED027AC0E905554262C56204464B
:102AC000FFF7EAF9012384F83050237438BD00BFC2
:102AD0000000C84270B5836B2DED028B0133836318
:102AE000C36A0446462B19D1D0ED057ADFED656A3D
:102AF000B8EE677AC7EE267AFCEEE77AC0ED097A7F
:102B0000D0ED067AB8EEE77AC7EE267AFDEEE77AE0
:102B10000023C0ED0A7AC0E90533C36246F2A8116A
:102B2000D4E905062368E26AA3F52F45C83D8D4226
:102B300002F1010210D9E5690544206A656130445B
:102B4000A061E262227C0025052A00F29380DFE882
:102B500002F00B562C2C4446616818442162314423
:102B6000E3616061A161ECE707EE903A9FED460AF0
:102B7000F8EE677A606B87EE800A94ED038AFFF7C0
:102B80001FF9DFED427A00EE678AB0EE480AFDF7E2
:102B9000B6FBF2EE047AB4EEE70AF1EE10FA04DDC9
:102BA00004212046FFF712FA01E001232374384B79
:102BB0009FED367A1B680020D3ED007A67EE877AA6
:102BC000C4ED037AF8FE677AFCEEE77A17EE903AE6
:102BD000642B88BF6423A36051E00523E6E7D4EDAE
:102BE000017AA563B8EEE70AFDF789FBDFED297AE4
:102BF000B4EEE70AF1EE10FAC4BF01232374D4ED5A
:102C0000017AB8EEE70AFDF77AFB9FED238AB4EE6E
:102C1000C80AF1EE10FAD4ED017A48BFE36BB8EEC2
:102C2000E70A44BF0133E363FDF769FBB4EEC80A6A
:102C3000F1EE10FA14DD0023E363A36B452BB6D944
:102C40002268164B9A4213D96368013BB3F5957F0E
:102C50000ED803212046FFF7B9F90023A363A6E7A6
:102C600044F25063E26B9A42E7D10023E36397E7B3
:102C70000221EFE72046FFF70FF901202574BDEC94
:102C8000028B70BD00008C4200007A460000C842F2
:102C9000E006002000005C4200007042C403010016
:102CA0003B4B00F10C0218603A4B1A603A4B00F1B2
:102CB00030021A60394B00F184021A60384B00F17F
:102CC00090021A60374B00F1B4021A60364B00F1E3
:102CD000CC021A60354B00F1D8021A60344B00F177
:102CE000E0021A60334B00F59A721A60324B00F51D
:102CF0009E721A60314B00F5AC721A60304B00F5D1
:102D0000BA721A602F4B00F5C0721A602E4B00F594
:102D1000C6721A602D4B00F5C8721A602C4B00F574
:102D2000CA721A602B4B00F5CC721A602A4B00F560
:102D3000CE721A60294B00F5D0721A60284B00F54C
:102D4000D2721A60274B00F5D4721A60264B00F538
:102D5000E6721A60254B00F5F8721A60244B00F5F4
:102D6000FE721A60234B00F523721A60224B00F5A5
:102D70002A721A60214B00F534721A60204B00F55C
:102D800037721A601F4B00F53A701860704700BF29
:102D9000E0060020600700205007002038070020D0
:102DA000B8060020C0060020C8060020D00600207B
:102DB0005807002030070020480700204007002067
:102DC000D806002010070020B81B0020A81B0020F8
:102DD000BC1B0020841B0020801B00208C1B0020BB
:102DE000881B0020E8060020F006002018070020BD
:102DF0000807002000070020F80600202007002018
:102E0000680700202807002037B5019054200D46A0
:102E10000CF0ECFF044680B195F900300146722BAE
:102E20000CBF01234FF48173019A054805F082FA23
:102E300018B120460CF0E2FF0024204603B030BD5C
:102E40000428002082B030B5C1B044A981E80C004C
:102E50004B484C4905F078FA4B494A48FFF7D4FFF4
:102E6000054628B93E21494B494A4A480CF093F897
:102E7000FEF7DEFC0446DDE944010CF08DFB41EC7D
:102E8000100B20464449FEF783FCDDE946010CF0B7
:102E900083FB41EC100B20464049FEF779FCDDE94D
:102EA00048010CF079FB41EC100B20463C49FEF741
:102EB0006FFCDDE94A010CF06FFB41EC100B204682
:102EC0003849FEF765FCDDE94C010CF065FB41EC8F
:102ED000100B20463449FEF75BFCDDE94E010CF097
:102EE0005BFB41EC100B20463049FEF751FCDDE95D
:102EF00050010CF051FB41EC100B20462C49FEF721
:102F000047FCDDE952010CF047FB41EC100B204679
:102F10002849FEF73DFCBDF950010CF001FB41ECE6
:102F2000100B20462449FEF733FCDDE956010CF076
:102F30002BFB41EC100B20462049FEF729FC69468B
:102F400000234FF480722046FEF7C2FB68460DF066
:102F5000B2F96A4603462946094804F0EDF82946C5
:102F6000074805F0ABF828460CF048FF2046FEF76E
:102F700079F9002041B0BDE8304002B0704700BF91
:102F800004280020784C0200814C0200834C02008F
:102F9000074D0200904C0200BF4C0200C84C0200DA
:102FA000D04C0200D84C0200E54C0200E84C020074
:102FB000EB4C0200EE4C0200F24C0200F64C020018
:102FC0002DE9F04F2DED048B06460C46A548A64989
:102FD000D5B0FFF719FF054600283ED10023A34ACC
:102FE000F2EE047AC4E908230023A14AC4E90A23C3
:102FF0000023A04AC4E90C234FF487520023C4E9FC
:10300000062300239C4AC4E90E2300220023C4E9BE
:103010000223C4E90423994B93ED037A67EE277AE0
:1030200017EE900A0CF0EEFC0023954AC4E900016B
:10303000C4E9122368464822A4F8405004F108016C
:103040000CF0F4FE94E80C003046FFF7FBFE012084
:1030500055B0BDEC048BBDE8F08F4FF480720021B9
:1030600014A80CF0F0FE4FF4807314AA294685488A
:1030700004F03EFA2946834805F020F828460CF073
:10308000BDFE14A8FEF71CFB054628B97B217E4B2C
:103090007E4A7F480BF07FFF7E49FEF73FFB7E496B
:1030A00013902846FEF73AFB7C4912902846FEF71B
:1030B00035FB7B4983462846FEF730FB794982463B
:1030C0002846FEF72BFB784981462846FEF726FB6B
:1030D000764908EE100A2846FEF720FB744908EEF0
:1030E000900A2846FEF71AFB724909EE100A284694
:1030F000FEF714FB704980462846FEF70FFB139A33
:1031000007461046FEF7ECFB51EC100B0CF08EFC62
:10311000129BC4E900011846FEF7E2FB51EC100BCC
:103120000CF084FCC4E902015846FEF7D9FB51ECCF
:10313000100B0CF07BFCC4E904015046FEF7D0FBF9
:1031400051EC100B0CF072FCC4E906014846FEF786
:10315000C7FB51EC100B0CF069FCC4E9080118EE38
:10316000100AFEF7BDFB51EC100B0CF05FFCC4E93C
:103170000A0118EE900AFEF7B3FB51EC100B0CF0AD
:1031800055FCC4E90C0119EE100AFEF7A9FB51EC3D
:10319000100B0CF04BFCC4E90E014046FEF7A0FBFF
:1031A00051EC100B0CF0C4FAA4F840003846FEF7BE
:1031B00097FB51EC100B0CF071FC0027304BC4E96D
:1031C0001201B94208BF984209D1D4E90E323B49F5
:1031D000013B42F1FF32994277EB02033DD20023DB
:1031E000224AF2EE047AC4E908230023204AC4E903
:1031F0000A2300231F4AC4E90C234FF487520023FB
:10320000C4E9062300231C4AC4E90E23002200233C
:10321000C4E90223C4E90423184B93ED037A67EE53
:10322000277A17EE900A0CF0EDFB0023A4F840304B
:103230000023134AC4E90001C4E9122304F1080180
:10324000482268460CF0F2FD94E80C003046FFF787
:10325000F9FD2846FEF706F8F9E62846FEF702F8DB
:103260003846F5E6784C02005C4E02006B04010023
:10327000AB8E0400AB6A1400A08601005C2900201C
:103280007F8C0100042800207C4C0200FA4C0200D4
:10329000904C0200BF4C0200C84C0200D04C02000F
:1032A000D84C0200E54C0200E84C0200EB4C020056
:1032B000EE4C0200F24C0200F64C02009F86010028
:1032C0008160704764224FF47A51C0E91022094AA4
:1032D0000023C0E9071244F26821074A80F85830F9
:1032E0004262064AC363C0E90B124DF2D8620387FB
:1032F00042637047005C26053200FCFFB805010000
:10330000D0F8603513B15B1AC0F86035D0F8683575
:103310001BB9002380F870357047591AC0F868153A
:103320000029F6D0704710B590F8A830044680F810
:10333000A93006F01DFC84F8A80010BD90F8A80084
:103340007047B0F8A800431E58425841704710B566
:103350000446C06D05F04DFCE36D1B69E36410BDD0
:1033600010B50446C06D05F055FCE36D5B6923673D
:1033700010BDC06D05F05FBCC06D05F06DBC10B533
:103380000446C06D05F079FCE36D5B7F236510BDDD
:10339000C06D05F083BCC06D05F0A6BC012240F2F3
:1033A0000121014809F088BD38370020C06D05F0C3
:1033B000FEBDFFFF10B5094C92B021460848FEF74C
:1033C00079FB04F10801482268460CF02FFD94E8CF
:1033D0000C000448FFF736FD12B010BDD82C0020B9
:1033E000A0290020E81D002010B50446C06D05F09E
:1033F000ABFB00236365A36410BD10B5046EA36826
:10340000204698470123237010BD10B5846E636871
:10341000204698470023237010BD10B5846EA36822
:10342000204698470123237010BDC06D05F09ABB5C
:10343000C06D05F0D1BB38B504460025D4F888200E
:10344000EBB29A4205F1010500D838BDD4F88C20C2
:1034500052F8230005F0B9F8F0E7C06F05F09AB80C
:10346000D0F8800005F096B8C06D05F06BBC13B5C0
:103470000446C36D01AA1B681979186805F044FB5E
:103480000199E06D06F064F802B010BDC06D06F061
:1034900047B8FFFF4B1E70B504460D46112B36D8BA
:1034A000DFE803F009160D0D28321B0D0D0D0D0D73
:1034B0000D220D251616FFF7B0FF00236365D4F823
:1034C000783584F8585013B32046BDE8704018474B
:1034D000FFF79BFF0023A367F1E7FFF7D7FF0C4A35
:1034E000136801331360EAE7FFF797FFE7E7FFF799
:1034F00084FFE4E70026FFF790FF204684F884600D
:10350000FFF7C4FFE663DAE7FFF750FFD7E770BDC8
:10351000F81D002010B50446FFF766FF2046BDE801
:1035200010400121FFF7B6BF70B590F8583004463F
:10353000012B3AD0C36D1B681B685A6803F1C000A9
:10354000164659680C338A4238BF0A468E4228BF55
:103550000E469842F5D141F268039A42134D144B3E
:103560001ED9226F042A1BDD1A78142A14D90022CE
:10357000012120461A70FFF78DFF40F6B7339E42B7
:103580000CD8236F043309DA2B78142B0BD90121C3
:103590002046FFF77FFF01E001321A70002303E0AD
:1035A00000221A70E9E701332B7070BDFF1D002067
:1035B000FE1D0020D0F8A400FFF782BED0F8A400C2
:1035C000D0F81038184710B50446FFF7F3FF20462F
:1035D000BDE81040FFF7F2BF10B590F88430044604
:1035E00063B990F85830DA1E012A01D9102B10D196
:1035F0000E212046BDE81040FFF74CBF012B09D13A
:1036000090F858300E2B01D11221F2E7002380F8F8
:10361000843010BD022B05D190F858300E2BF8D114
:103620001121E7E7032B06D190F858300E2BEBD091
:10363000102BEED1E8E7042BEBD00521FFF72AFF92
:103640000023204684F884301621BDE81040FFF79F
:10365000BABFFFFF30B585B001A90C46D0F88C3059
:103660001A1F0C3352F8045F6D899A4221F8025BED
:10367000F8D1C36F01215B89ADF80C30D0F88030F0
:103680005B89ADF80E30BDF904301A4634F91100EB
:1036900001318342A8BF03468242B8BF02460629D1
:1036A000F4D15A2A02DC13F10A0F0CDA0C4A1388FF
:1036B000022B8BBF012000200A4B01338CBF1870F6
:1036C000138005B030BD0749087818B1502AF8DCDE
:1036D000002BF6DB0020024B08701880F1E700BFDA
:1036E000FC1D0020001E002010B50446FFF7B2FFAD
:1036F000E26DA16C92F8223092F823200B4343EA4A
:10370000022343EA0043A36410BDFFFF37B50190D5
:1037100054200D460CF06AFB044680B195F9003048
:103720000146722B0CBF01234FF48173019A0548A7
:1037300004F000FE18B120460CF060FB0024204687
:1037400003B030BD0428002000234FF07E52C0E9B2
:103750000033C0E903338260436103837047FFFF96
:1037600070B52F49C0B005462E4804F0EDFD2E4936
:103770002B48FFF7CBFF0646FEF75AF8044628B958
:103780005A212A4B2A4A2B480BF005FC28680BF0DB
:10379000C7FE41EC100B20462749FDF7F9FFE8680A
:1037A0000BF0AEFE41EC100B20462449FDF7F0FF74
:1037B00028690BF0A5FE41EC100B20462049FDF7CF
:1037C000E7FFA88A0BF09CFE41EC100B20461D4938
:1037D000FDF7DEFFE88A0BF093FE41EC100B20466C
:1037E0001949FDF7D5FF694600234FF48072204642
:1037F000FDF76EFF68460CF05EFD6A4603463146F3
:10380000084803F099FC3146064804F057FC30465E
:103810000CF0F4FA2046FDF725FD40B070BD00BF66
:10382000144D020004280020814C0200204D0200AB
:10383000974D02002D4D0200C44C02005C4D020069
:10384000644D02006D4D0200784D02004FF07E5233
:10385000036870B5CB1A002B04460E4643608260A5
:103860001BDA0269C18AD31A632B036103D94B1C8B
:10387000C38200230361E38AA58A1D44238BC5F319
:103880004E05AB4207D0E3690BB1206A984720464A
:103890002583FFF765FF266070BDECD0C168828A82
:1038A0000B44632BC36081BF531C83820023C3601E
:1038B000E1E7FFFF2DE9F04F50490446ADF2044D1A
:1038C0004F48FFF723FF064670B900230A2220461F
:1038D000C4E9033323606361228363600DF2044D06
:1038E000BDE8F04FFFF73CBF4FF48062002168460F
:1038F0000CF0A9FA4FF480636A463146414803F060
:10390000F7FD6846FDF7DCFE054638B931463D480F
:1039100004F0D4FB30460CF071FAD6E73A49FDF7D3
:10392000FDFE834628B98621374B384A38480BF0CC
:1039300032FB28463749FDF7F1FE824618B9882147
:10394000344B324AF2E728463349FDF7E7FE814619
:1039500018B98A21304B2D4AE8E728462F49FDF750
:10396000DDFE804618B98C212C4B284ADEE728461C
:103970002B49FDF7D3FE074618B98E21284B234A61
:10398000D4E75846FDF7ACFF51EC100B0BF0D0FE1E
:1039900020605046FDF7A4FF51EC100B0BF0F0FE39
:1039A000E0604846FDF79CFF51EC100B0BF0E8FE81
:1039B00020614046FDF794FF51EC100B0BF0E0FE48
:1039C000A0823846FDF78CFF51EC100B0BF0D8FEAF
:1039D000A38A80B2E0821844C0F34E0031462083AF
:1039E000084804F06BFB30460CF008FA2846FDF757
:1039F00039FC0DF2044DBDE8F08F00BF5C4E0200B3
:103A0000144D020004280020C44C0200844D020022
:103A10002D4D02005C4D0200644D02006D4D020010
:103A2000784D0200024B1B6803B11847704700BF76
:103A30002C1E002010B5054C4FF48072002104F1BB
:103A40000C000CF000FA0023A36010BD2C1E002017
:103A500008B50D20FFF7E6FFBDE808400A20FFF794
:103A6000E1BF38B5451E15F9014F04B938BD0A2C20
:103A700002D1FFF7EDFFF6E7082C204605D1FFF74E
:103A8000D1FF2020FFF7CEFF2046FFF7CBFFEAE76C
:103A900008B50268064B1A6042685A60FFF7CAFF11
:103AA0000448FFF7DEFFBDE808400348FFF7D9BF31
:103AB0002C1E0020E74D0200700700202DE9F04188
:103AC0000D2890B00DD0414B9A68FF2A09D819688B
:103AD00039B1082808D122B1013A9A601344002272
:103AE0001A7310B0BDE8F08118B1511C1A449960E6
:103AF00010739D686E1E334493F90C300A2B01D06D
:103B0000FF2DEED94022002168460CF09CF90023DD
:103B10001A461C461F462E49AB4222D1B5F5807F7E
:103B200001D1FFF795FF002C49D02A4B0C271E68C6
:103B3000294B35461B68DDF8008007FB0367BD4253
:103B400025D32648FFF78DFF0098FFF78AFFFFF780
:103B50007FFF2348FFF785FF31E0002A08BF0A46B0
:103B600012E00F2CDADC91F90000202803D00A289B
:103B700001D0B342F1D10F7032B110A800EB840034
:103B800040F8402C0022013401330131C4E74146A2
:103B900028680CF06DFB60B10C35D0E7114B1B7839
:103BA0000BB16B6808E01048FFF75BFFFFF742FFBF
:103BB00097E7AE42F2D17368694620469847FFF70F
:103BC00039FF0A48FFF74DFF8BE700BF2C1E00208E
:103BD000381E0020BC500200B8500200B54D020053
:103BE000C74D0200281E0020AA4D020070070020C9
:103BF00008B5034B5B689847BDE80840FFF75EBF18
:103C00002C1E002008B5FFF72CFFBDE80840FFF789
:103C10001FBFFFFF0D4A70B515680C220C4B0D4EEF
:103C20001B6802FB053503F10C04AC4201D30020F4
:103C300070BD2068FFF715FF3046FFF712FFA06840
:103C4000FFF70FFF0C34FFF703FFEEE7B850020059
:103C5000BC500200C44D020001600021C0E90423F1
:103C6000416000F25C4000F07EB8FFFF38B50446CA
:103C7000164B92B91A7801321A701B78022B0ED1AA
:103C800004F1180504F57674012228461146F03532
:103C900000F05FFEA542F7D138BD0022ECE7042B0F
:103CA000FAD1012204F19000114600F052FE0122E7
:103CB00004F5C070114600F04CFE012204F51C70A2
:103CC0001146BDE8384000F044BE00BF381F002058
:103CD00037B504460D460A4600F58660012100F01E
:103CE00083FD2946019004F5727000F063FB2946BC
:103CF00004F5587000F04CF929462046019A03B0AB
:103D0000BDE83040FFF7B2BF2DE9F341054600F5AD
:103D1000727005F118060F46344600F03FFD05F5B8
:103D2000587820463946783400F02EFE4445F8D1C4
:103D3000BC000B3CA4B205F57675032F8CBF214661
:103D400000213046019100F024FE06F1780001992F
:103D5000F03600F01EFE0134AE42A4B2EDD102B046
:103D6000BDE8F081704700B9FEE70023C0E90233E7
:103D700003604360704770B5054600240288944292
:103D800011D2A3185E10C3F34F006B6833F83630BE
:103D90008B4211D003D92EB1421E92B2EFE7431CE1
:103DA0009CB2ECE7B44208D14FF6FF706B6833F871
:103DB00034308B4208BF204670BD4FF6FF70FBE7E2
:103DC000054A00F11403343043F8042B834202F116
:103DD0000102F9D1704700BFF407002010B510B1FF
:103DE0000A78072A00D9FEE7002380F8342004313E
:103DF00038309A4200DC10BD51F8044B013340F8D2
:103E0000044BF6E72DE9F84F4FF0000904468846C9
:103E100007464D464FF6FF7AC37843F08003C370E0
:103E200094F834304B4501DCBDE8F88F4046398FBB
:103E300097F83A6097F83BB0FFF79DFF504504D1E3
:103E40002046BDE8F84FFFF7BBBFB8F8003083420B
:103E5000F6D9D8F8043003EBC0008378B342EFD929
:103E6000436806EB460613EB8606E9D000200F4BAD
:103E70001A686B1D04EB8303834507DCE37809F1C3
:103E800001096FF3C713E3700437C9E7F1880135FF
:103E90008142C8BF3168EDB2C6BF091819601A6007
:103EA000082D03F10403CBD80130E5E7FC0700201F
:103EB00038B51546044638B1FFF790FF294620462D
:103EC000BDE83840FFF79EBF38BDFFFF38B58023FF
:103ED00080F82030082380F82830094B04461B68FE
:103EE000416218300D4698470023A4F84C306375A2
:103EF00084F854304FF44073A565A4F8603038BDA1
:103F0000F00700200023A0F84C30437580F85430AF
:103F10004FF440738165A0F860307047002310B5FE
:103F20009CB2A24200D810BDCC5CC4540133F7E768
:103F3000014B1B68184700BFF0070020012310B594
:103F40004FF4C0640370836964F31C038361082326
:103F50004FF4B0640385436864F31C03436000239B
:103F600080F83030C362B1F86440896E4375C0E9AF
:103F70001133C0E91332C0E9163344864163A0F817
:103F8000403080F8423080F85430A0F8603010BDE6
:103F9000037873B5044623B9012584F8615002B053
:103FA00070BD90F86030002BF9D0B0F84C2062B1B1
:103FB0001144B0F84E2089B28A42A0F84C1004D2C5
:103FC000B249FFF79FFF0325E7E7216D628EC88B9B
:103FD000904240F0A98118B1606B4A6A1042DBD070
:103FE000627D82B994F85420002AD5D0103B002677
:103FF000052B00F29781DFE813F01F006000AF008F
:10400000D400F00055010022217BA4F84C2049097E
:104010000429EBD1237C62758DF80030637C84F831
:1040200060208DF80130A37C8DF80230E37C8DF8A0
:104030000330009BE365C6E7B4F84030616C84F858
:1040400021301B0A84F8223094F8423084F8306022
:1040500084F82330CA88A685042AE2851BD8C2F1D9
:1040600004039B0003F00C0343F0230384F8203087
:10407000096804F12400FFF751FF04F11800FFF76D
:1040800057FF0023012584F854301123A4F84C5025
:1040900084F860301AE0212384F82030C2F307232B
:1040A00084F8242084F82530C2F30743C2F3076262
:1040B00084F8263084F82720DFE7237B5B09032B75
:1040C00007D073492046FFF701FF032500236375DE
:1040D00063E7637BB4F840208DF80030A37B8DF854
:1040E0000130BDF800309A4201D06A49EAE7E27B2C
:1040F00094F842309A42F8D1E28D042A04D8002381
:1041000084F860300225E1E7636C04F1210019684E
:10411000A38D07339A420EDCD5B22A46FFF7FEFE86
:10412000E38DC5F10705A38594F8303043EA4503D4
:1041300043F0010305E00722FFF7F0FEA28594F8A3
:104140003030012584F82030A4F84C5004F11800D8
:10415000FFF7EEFE12239BE7237B5A09012AB0D119
:1041600094F8302003F01003934201D04A49A9E7A4
:1041700083F01003E28D84F83030A38D9A42BED9CB
:10418000616CDD1D0968AA42194404F1210001DCBB
:10419000D21AC1E70722FFF7C1FEA38D1344A385FE
:1041A000CDE7B4F84030012584F821301B0A84F8AB
:1041B000223094F8423084F8306084F82330402371
:1041C000A68584F8203004F11800FFF7B1FE14230F
:1041D000A4F84C5084F854605AE7227B5609022E0A
:1041E0007FF46FAF637BB4F840108DF80030A37B91
:1041F0008DF80130BDF8003099427FF476AFE17B55
:1042000094F8423099427FF470AF02F00305032D19
:1042100016D1636CC2F38102D988C2F1040292B252
:104220009142E28504D220461C49FFF76BFE4DE720
:10423000186804F11001FFF771FEE38DA3855EE7B6
:10424000012D21D1237C626C8DF80030637CD288F3
:104250008DF80130A37C8DF80230E37C8DF80330BB
:10426000BDF800309A42E38501D20C492AE70023C9
:10427000A3856023A4F84C5084F8203004F1180082
:10428000FFF756FE152303E705491BE70000040569
:1042900023000A0643000406000003050500040588
:1042A00010000706237B5D097FF40BAF94F83010F4
:1042B00003F010028A427FF459AF82F0100284F8B2
:1042C0003020626CA18D1068E28DCE1DB242084490
:1042D00003F001030EDC13B94FF00061F2E6521A4D
:1042E00092B204F10D01FFF719FEE38D84F86050DE
:1042F000A38507E7002BEFD10722012504F10D016B
:10430000FFF70CFEA38D04F118001344A38594F865
:10431000303043F0600384F82030FFF709FEA4F842
:104320004C50D3E60125D1E6002A3FF459AE33E6DE
:10433000002310B59CB2A24200D810BDCC5CC4547E
:104340000133F7E7014B1B68184700BFF007002057
:1043500070B50124047091F85C40856904F5B0667D
:1043600066F31C05856108250585456804F5C0646C
:1043700064F31C0500248482C46280F830404560E8
:10438000B1F85E5080F84240C363B1F86030C0E9D4
:104390001144C0E9164445860487A0F84040A0F8BF
:1043A0004C40A0F84E30026580F85440A0F86040C0
:1043B00070BDFFFF037873B5044623B9012584F867
:1043C000615002B070BDB0F84C3063B11944B0F820
:1043D0004E3089B28B42A0F84C1004D2A949FFF7A5
:1043E00091FD0325EBE7637D83B994F85430002BEE
:1043F000E4D094F86030113B042B00F2AE80DFE88B
:1044000013F065001401AC0083008A010023257BB2
:10441000A4F84C306D09042D11D1227C63758DF800
:104420000020627C84F860308DF80120A27C8DF839
:104430000220E27C8DF80320009AE265D1E794F82F
:104440006030002BD5D16B1E012B04D98E4920463C
:10445000FFF73CFDC5E7637BE06B8DF80030A37B85
:104460008DF80130BDF80010E37BA4F8401084F80B
:104470004230FFF780FC4FF6FF739842208712D03E
:10448000E26B138883420ED9526894F8423002EBF3
:10449000C00082789A4206D9426803EB43039E002B
:1044A00012EB830303D1002378496364CFE763648D
:1044B000012D197923D1890701D47549C7E79B6874
:1044C000DBB99359A364112384F8603094F8543015
:1044D000002B4FD0636C9B685B68984703283AD1E8
:1044E000002504F1180084F85450A4F84C50FFF74C
:1044F00029FF84F8605002256EE01B68E2E7CB07D5
:10450000DBD5142384F860300026637B616C84F86B
:104510002130E38984F830606384CA88A685042A40
:10452000E28504F1180500F2DD80C2F104039B006E
:1045300003F00C0343F0430384F82030096804F1CE
:104540002400FFF7F5FE2846FFF7FCFEE38D84F814
:104550006060A385CFE7022801D001253CE000235D
:104560004C4984F85430A4F84C302046FFF7AEFC98
:10457000032531E084F83030A385637B84F8213053
:10458000E3896384237B03F00305032D27D1626C49
:10459000C3F38103D288C3F104039BB2934298BF53
:1045A0001A46E385A06C04F11001FFF7C1FEE38D0C
:1045B000A385602384F82030636C9B683BB904F1C9
:1045C0001800FFF7BFFE002384F8603093E7012551
:1045D000A4F84C5084F8545000236375EFE6012D85
:1045E00021D1237C626C8DF80030637CD2888DF8F9
:1045F0000130A37C8DF80230E37C8DF80330BDF8E8
:1046000000309A42E38501D22349AEE76023A4F843
:104610004C5084F8203004F11800FFF793FE122369
:1046200084F86030D8E71D499FE794F85430002B98
:104630007FF450AF237B5A0901D0194995E794F8CC
:10464000301003F01002914201D016498DE7A18D80
:10465000E28DA06CCD1DAA42084403F0010323DCC7
:1046600013B94FF0006180E7521A92B204F10D01C4
:10467000FFF75EFEE38DA38594F8303043F020030E
:1046800098E700BF000004050100040511000906B9
:1046900000000106210000080500040510000706BF
:1046A00023000A0600000305002BDAD107220125AA
:1046B00004F10D01FFF73CFEA38DA4F84C50134408
:1046C000A38594F8303004F1180043F0200384F8F7
:1046D0002030FFF737FE94F8303083F0100384F871
:1046E000303079E741232846012584F82030C2F391
:1046F000072384F8242084F82530C2F30743C2F34B
:10470000076284F8263084F82720FFF71BFE152364
:10471000A4F84C5084E7237B5A09032A8DD194F8DE
:10472000302003F010039A428FD1626CA38D116880
:10473000E28DDE1DB242194404F1210004F1180596
:104740001ADCD21AD6B23246FFF7F2FDE38DC6F17B
:104750000706A38594F83030284643EA460343F021
:10476000010384F82030FFF7EDFD94F8303083F03A
:10477000100384F8303026E70722FFF7D9FD2846DA
:104780000125A38D1344A38594F8303084F820309C
:10479000FFF7D8FDA4F84C509DE700BF037E01F061
:1047A0007F0161F306030376037961F30603037166
:1047B000704703460A46D1E9010183E8030003215B
:1047C000198291899982D189D982B2F858101983B6
:1047D00092F85A209A760022DA6183F820205A62F1
:1047E00083F828207047FFFF13B590F903100446A3
:1047F0000029C37855DB818B0A4492B2914238BFBD
:10480000828313F0400335D0828B838A9A4246D349
:10481000C38B028B01339BB29A42C38311D2012214
:1048200090F82030817E1344DBB2994280F820302A
:104830003CBF002380F8203090F82030C2839A409B
:104840004262E38B20462372C3F30723637294F81A
:104850002030A372144B1B68984700230120A383C8
:10486000A38BE28A93428CBF0023012384F8283073
:1048700002B010BD407C0028F2D0227AA17A8DF8D7
:104880000020627A84F820108DF80120BDF8002005
:10489000A383E28301228A4062626374E0E700201E
:1048A000DEE70020E4E700BFF007002010B5044673
:1048B00094F873300830022B09D1636F98470A4B84
:1048C00020461B689847002384F8723010BD04F11D
:1048D000100304F1300253F8041F0978934200F8E2
:1048E000011BF8D1EBE700BFF00700202DE9F041F4
:1048F0000446069D0E4611461A469DF81C80089FE8
:10490000FFF7D6FA2B892968AA89A4F864306B8945
:10491000E165A4F86630A4F86820A87BB8F1020F1E
:1049200084F86A002869216084F871304FF008012A
:104930004FF00103E0662182A66584F8702084F8B8
:10494000723084F87380676701D107B9FEE7BDE86C
:10495000F08190F90330002B15DB4FF6FF71B0F8B2
:1049600064308B4204D190F8723063B1FFF79EBF80
:104970004AB1826DD18B994203D1C16E526A114204
:10498000F4D1002BEFD07047037861F30603037076
:104990007047A0F864107047012301600371184646
:1049A0007047FFFF012810B516D1144CE368186852
:1049B00008F0B0FC08B1002010BDE368186808F0EA
:1049C000AFFC0028F7D1E3680D49186808F046FCF1
:1049D000B0FA80F04009EFE70028ECD1074CE3681B
:1049E000186808F097FC0028E5D1E368186808F01B
:1049F00097FC0028DFD1E3685968E6E798080020B3
:104A0000EC4D0200036810B59A6818681469012219
:104A1000A047B0FA80F0400910BD08B503689A6855
:104A20001868D2689047012008BD2DE9F047054677
:104A30000F46904699466424D0F800A02846FFF718
:104A4000ECFFDAF8083042469E6839464B46DAF801
:104A50000000B0470646012005F0D2F9013C11D014
:104A6000002EEBD164242B79032B06D04FF47A71FE
:104A700001200AF097FA013CF5D12879013818BFD6
:104A8000012002E0002EEDD02046BDE8F0872DE9A0
:104A9000F04705460F46904699466424D0F800A09A
:104AA0002846FFF7BAFFDAF8083042465E68394612
:104AB0004B46DAF80000B0470646012005F0A0F9A1
:104AC000013C11D0002EEBD164242B79022B06D0AF
:104AD0004FF47A7101200AF065FA013CF5D128798A
:104AE000013818BF012002E0002EEDD02046BDE8BD
:104AF000F087017170470023436003708360704743
:104B000070B50D460021044600F099FD134B1E269A
:104B100018700120FFF746FF0121204600F07FFDBD
:104B200030B94FF47A7101200AF03CFA013EF3D11A
:104B30001E2640232A464FF47861204600F059FE95
:104B400030B94FF47A7101200AF02CFA013EF0D10D
:104B50000020BDE87040FFF725BF00BFDC25002026
:104B60000B892DE9F04101220160838005460C4646
:104B700038484FF48061FCF7D1FE0526364F2146B8
:104B8000286800F0ECFC10B10526334F12E0013E1E
:104B900016F0FF0603D100263046BDE8F081384606
:104BA00008F02AF9EBE7013E16F0FF06F3D038468D
:104BB00008F022F9286800F13C0100F0D5FC00283B
:104BC000F1D00526244F0021204600F016FD10B13B
:104BD0000526214F0EE0013E16F0FF06DBD03846D9
:104BE00008F00AF9EFE7013E16F0FF06D3D0384689
:104BF00008F002F93021204600F00CFD0028F2D028
:104C00000526154F06E0013E16F0FF06C3D03846D4
:104C100008F0F2F80C21204600F0F7FC0028F2D052
:104C20000527DFF8348006E0013F17F0FF07B2D018
:104C3000404608F0E1F80021204600F0F8FC064666
:104C40000028F1D04FF45471204600F026FD0023D7
:104C5000AB71A1E7C4210020D0380020552373B5E3
:104C600040F20132214900930446214B214800F0D3
:104C700067FC20492048FFF773FF18B10023237613
:104C800002B070BD0123062623761C4D1C4CD5F8BE
:104C9000C82040F20231C2F3400282F001022046F5
:104CA00008F00AF96A6B0D21C2F3400282F001029A
:104CB000204608F001F9AA6B0E21C2F3400282F0EF
:104CC0000102204608F0F8F8D5F8982040F20621B5
:104CD000C2F3400282F00102204608F0EDF86420A1
:104CE00005F08EF8013ED2D1CAE700BF3C1F00207C
:104CF000441F002078260020E025002000080840FE
:104D0000383700202DE9F7430F4681460BF0D3FAE0
:104D1000214D84B204F10802064692B200212846D1
:104D200001920BF090F87F232B70230A6E70AB700A
:104D300026460023019A03F103089E421FFA88F8D1
:104D400024DCE11C89B214480192FCF73FFE211DCE
:104D5000030A89B205F808006B540D21631D9BB24C
:104D6000E9540A210026A31D9BB20734E9543846B2
:104D70000949A4B22E550BF085FA3146019A06482E
:104D80000BF061F8012003B0BDE8F08319F80310BF
:104D9000013305F80810CEE7C41F0020F8B504461B
:104DA000B0F801305BBA9BB2DD1CA9B203441E7996
:104DB000475DFCF70BFE23787F2B08D146EA0726D8
:104DC00086424FF0000304D1E01C6355F8BD00207B
:104DD000FCE71846FAE7FFFF2DE9F04F2DED048BB5
:104DE000ADF23C4D04461E26026800AF02F14A05B2
:104DF0002A460621206800F08BFC30B94FF47A7106
:104E000001200AF0CFF8013EF2D11E26226802F1FD
:104E100044052A460021206800F07AFC30B94FF49E
:104E20007A7101200AF0BEF8013EF2D1A67920681D
:104E3000012E23D0022E00F0318386B990F84A303B
:104E4000D9070CD5012100F0FAFB0B4B187001219A
:104E5000206800F0E4FB0028F9D00123A371236847
:104E60000821D868FFF7CEFD07F23C47BD46BDECF0
:104E7000048BBDE8F08F00BFDC25002090F84A309D
:104E8000DA0640F1BE82DFF8B883402342464FF491
:104E9000786100F0F9FCCC4B18704046FFF77EFFBC
:104EA0000546002800F0B882FCF70AFCC749804696
:104EB000FCF734FC08EE100AFCF729FDC4490BF09E
:104EC000D7F90546002840F03581324640F20231DC
:104ED000C04807F0F1FF32460D21BE4807F0ECFF55
:104EE00032460E21BB4807F0E7FF324640F206216A
:104EF000B84807F0E1FFB84E07F1380330465919BA
:104F0000FCF747FD18B10135B5F5806FF4D14FF0CE
:104F10000A09B24BB24E1A6CD3F844B008EE902A8C
:104F2000DA6DB04D5168DFF81CE309EE101A196F05
:104F300009FB01F9AC49B1F818A0B446BCE803007C
:104F4000F44528606960664605F10805F5D1DCF88E
:104F5000000028609CF80410A4482971D3F88C50F4
:104F6000291F05F10C0C054651F8046FB67A61450E
:104F700040F8046BF8D1D96FD3F88030897A9B7AE6
:104F80009B486B61136829611B6803F1C005596870
:104F90000C339D4240F8041BF9D1964B07F10805EC
:104FA00003F1080C2E4618685968083303C6634598
:104FB0003546F7D118681B79306033710023DFF86C
:104FC00088C27B758C4B07F11806354618685968FE
:104FD000083303C563452E46F7D1FCF729FC064686
:104FE0009FED770B8549FCF7D3FB85493046FCF7ED
:104FF0002BFC054618EE900A0AF082FA41EC100BE1
:1050000028468049FCF7C4FB58460AF079FA41EC7F
:10501000100B28467C49FCF7BBFB19EE100A0AF07E
:105020006FFA41EC100B28467849FCF7B1FB484673
:105030000AF076FA41EC100B28467549FCF7A8FBFC
:1050400050460AF05DFA41EC100B28467149FCF716
:105050009FFB644A28467049FCF7C8FB102164484E
:10506000FCF707FC6D4902462846FCF75AFB06216F
:105070005E48FCF7FEFB6A4902462846FCF751FBF6
:105080002846684907F10802FCF7B0FB2846664944
:1050900007F11802FCF7AAFB00234FF400726349E2
:1050A0003046FCF715FB62496048FFF72BFE60486D
:1050B0000BF001F90025DFF878A1DFF81CB11FFA29
:1050C00080F9ABB24B4507D20AEB05015846FCF715
:1050D00045FC01350028F4D13046FCF7C3F84022E6
:1050E000002154480AF0AFFE0025524EDFF8E89048
:1050F00048467119FCF74DFC10B10135402DF7D130
:105100004C492068FFF7FCFC002240F20231314894
:1051100007F0D2FE00220D212E4807F0CDFE00221E
:105120000E212C4807F0C8FE002240F20621294833
:1051300007F0C2FE18EE100AFCF7E9FB3E490BF03F
:1051400097F80646002840F0538140462C49FCF76A
:10515000E5FA8146002800F04B813349FCF7DEFA7E
:10516000002800F0AF80FCF7D2FB0546012240F298
:105170000231184807F0A0FE01220D21154807F062
:105180009BFE01220E21134807F096FE012240F2F9
:105190000621104807F090FE294628480BF072F8C7
:1051A000FCF746FB82469FED060B1449FCF7F0FA2C
:1051B0003346202207F11801504647E0AFF3008044
:1051C0000000000000006940DC250020194E0200AC
:1051D0001D4E020038370020C4210020B82E0020C8
:1051E000800000085C1F0020041E00206C1F0020AF
:1051F000841F0020874E0200C5000008214E0200D7
:10520000284E0200314E0200354E0200394E020097
:10521000414E0200494E0200504E02005E4E020016
:10522000634E0200684E0200734E0200DC21002033
:10523000DC230020282600207B4E0200D4280020FA
:10524000E825002088000008D5000008FCF740FA97
:1052500007F118000BF02FF807F1380583464022BC
:10526000314628460AF0EFFD7F235A4607F1180120
:1052700007F13B0087F8383087F839B00AF0D6FDDF
:105280001FFA8BF2D11C89B228467A60FCF79EFB8C
:105290000D217A68AB44131D8BF803009BB2000A02
:1052A000E854531D9BB2E9540A21931D07329BB267
:1052B00092B2E95420682946AE54FFF721FC5046CB
:1052C000FBF7D0FF48467A49FCF728FA002800F09F
:1052D0008F80FCF71CFB012240F202310546754825
:1052E00007F0EAFD01220D21724807F0E5FD0122D9
:1052F0000E21704807F0E0FD012240F206216D48C2
:1053000007F0DAFD6E4690B0EE46DFF8BCC1DFF87C
:10531000BC9103AB624603CA4A4518605960944683
:1053200003F10803F6D1106805F10C021860284655
:10533000734650F8041B904243F8041BF9D10278DD
:105340001A7062B64023012270465B4904F0D2FC19
:105350000546642004F054FDB546FCF769FAEDB249
:105360008146002D55D19FED4E0B5449FCF710FAA4
:105370000023202207F118014846FCF7A9F907F19C
:1053800018000AF098FF07F13805824640220021F4
:1053900028460AF058FD7F231FFA8AF6524607F185
:1053A000180107F13B0087F8383087F839A00AF078
:1053B0003DFDF11C89B22846FCF708FB0D22331D88
:1053C000AA448AF803009BB2000AE854731D9BB2FA
:1053D000EA540A22B31D9BB2EA5400230736B6B240
:1053E00020682946AB55FFF78BFB4846FBF73AFF91
:1053F0004046FBF737FF0121206800F020F9304BD1
:105400001870236893F84A30DB073FF528AD022374
:1054100024E59FED250BA8E798F800600246012ED1
:1054200040F20231234826D107F046FD32460D21D5
:10543000204807F041FD2A460E211E4807F03CFD9A
:10544000324640F206211B4807F036FD402229462D
:105450001C480AF0F8FC1B4EDFF8748040467119B6
:10546000FCF797FA10B10135402DF7D115492068A6
:10547000FFF746FBBFE707F01FFD2A460D210D4849
:1054800007F01AFD2A460E210A4807F015FD2A46A4
:1054900040F20621074807F00FFDACE70023DDE4EA
:1054A000000000000000694000000000000079409A
:1054B000804E02003837002080000008214E020094
:1054C000DC250020282600208C000008BC000008F5
:1054D000C421002073B5C5688DF80710C17928462E
:1054E00016461C46FFF78EFA18B90024204602B073
:1054F00070BD0023012228460DF10701FFF795FA40
:105500000028F2D0214601232846B2B2FFF7BFFAA5
:1055100004462846FFF781FAE8E713B58DF8062020
:105520000422FE248DF805108DF807300DEB0201E2
:105530000123C0688DF80440FFF777FA02B010BD70
:1055400010B40446184622810022019BE160E371F9
:1055500022612275A0615DF8044BFFF7CCBA0B46BF
:1055600007220021FFF7B6BF38B50D4C0D46234684
:1055700010223A21FFF7AEFF80B1204623782B702E
:1055800063786B70A378AB70E378EB7023792B7141
:1055900063796B71A379AB71E379EB7138BD00BFAF
:1055A000682600207FB5FE2304468DF80110C179DE
:1055B000C06816468DF80030FFF724FA0023022257
:1055C0006946E068FFF731FA80B1012369461A465F
:1055D000E068FFF75CFA054640B1E068FFF71DFAA6
:1055E0009DF800303370284604B070BDE068FFF7C6
:1055F00014FA0025F7E7FFF7D5BF002914BF802371
:10560000002380220021FFF788BF0B460C220021D7
:10561000FFF783BF0B4630220021FFF77EBF002932
:1056200014BF4023002340220021FFF776BF00294A
:1056300014BF0223002302220021FFF76EBF30B502
:10564000002485B001910DF10F02214605468DF829
:105650000F40FFF7D0FF9DF80F20019B02F00101E2
:10566000994211D012F0400111D021462846FFF78F
:10567000D6FF214601222846019BFFF74EFF01215C
:1056800004462846FFF7CBFF204605B030BD012277
:105690002846FFF742FF0446F6E770B5CBB20C464A
:1056A000FF2203210546FFF738FF38B12846230AB9
:1056B000FF22BDE870400421FFF72FBF70BDF8B591
:1056C000044680F82C10C179C06817461D46FFF7C4
:1056D00099F900230122E06804F12C01FFF7A5F9F4
:1056E00008B90020F8BD04F11C0601231022314640
:1056F000E068FFF7CCF90028F3D0102D28BF102563
:105700000023AB42EED216F8012BFA540133F8E72E
:1057100038B5FE23044680F82C3080F82D10C1796E
:10572000C0681546FFF76EF900230222E06804F115
:105730002C01FFF77AF908B9002038BD0123E06891
:105740001A4604F11C01FFF7A2F90028F4D0237FC8
:105750002B70F2E773B5102B0D466FF02C064FF04F
:105760000001044628BF10238DF8071080F82C5044
:10577000013A00F12D01361A7018834232D8591CB3
:10578000C9B2C3F11002102903F12D0388BF012211
:1057900054FA83F000210AF056FBE179E068FFF744
:1057A00031F901231122E06804F12C01FFF73DF9E2
:1057B0000646E0B10835EDB2032D18D903250520C2
:1057C00004F01EFB062120460DF10702FFF7A0FFA3
:1057D00030B9013D0BD09DF807309B07EFD4304620
:1057E00002B070BD12F8010F01F8010BC4E70020F0
:1057F000F6E72DE9F74F07468A4691469846002678
:1058000000F11C0B464501D3012019E00AEB060408
:10581000C4F3071104F00F04A8EB0605C4F110034C
:10582000ADB29BB29D4228BF1D46102D28D000234B
:1058300038461A460191FFF742FF019918B100203E
:1058400003B0BDE8F08F11B90CB1FB793B770023B1
:1058500009EB06020F2C98BFD05C03F1010398BF3F
:105860000BF804009D4204F10104F3D810235A46BA
:105870003846FFF76FFF0028E1D12E44B6B2C1E7EA
:105880002B4609EB0602F3E72DE9F84F07468A4657
:1058900091469846002600F11C0B464501D3012095
:1058A00017E00AEB0605C5F3071105F00F05A8EB95
:1058B0000604C5F11003A4B29BB29C4228BF1C464B
:1058C000102C19D0002338461A46FFF7F8FE10B9FD
:1058D0000020BDE8F88F002309EB06020F2D98BFCA
:1058E0001BF8051005F1010598BFD15401339C4206
:1058F000F4D82644B6B2D0E72346384609EB060270
:10590000FFF7DDFE0028F4D1E2E70368013304D09D
:105910004068431C5842584170470120704710B5F9
:105920000B6804689C4209D040684A68904205D0E0
:10593000944203D0181A18BF012010BD0020FCE7C4
:1059400040F30903B3F1FF3F08BF0130C0F3090082
:105950000430704710B5031F0439083053F8042F82
:1059600051F8044F834282EA04021A60F6D110BD56
:1059700008B503681B0D13F4E06306D00430FFF78D
:10598000CEFFB0FA80F0400908BD1846FCE7836EF0
:1059900010B51A6A436DD31A1944B1FBF2F302FB36
:1059A0001311836D8B420BD90123426E4C0901F018
:1059B0001F0103FA01F152F824300B4342F824305E
:1059C000002010BD164A11F0805F30B5154C18BF8D
:1059D0001446036883EA010525421FD043F30904F6
:1059E00001341BD001EA02040F4A1A4042F09F42E0
:1059F00042F4E002944211D00A0D02F4E064B4F5DE
:105A0000806F09D1C3F38924C1F389218C4203D368
:105A100052B203EB82230360002000E0012030BD7E
:105A200000FCFF7F00FC0F7000FC0F00024608B571
:105A30000846FFF785FF136818441060002008BD72
:105A4000036B1944C1F30903003B18BF012321F084
:105A5000004141EAC3710163704703680133036089
:105A600000207047836E10B51B6B044613B9C068E5
:105A70000AF0C4F9A36E5B6B13B9E0690AF0BEF9D2
:105A8000A36E9B6B13B9606E0AF0B8F9002010BDCD
:105A90002DE9F04F89B00392826E0693136ADDE917
:105AA00012B45B458946DDE91486059040F29A8080
:105AB000D269A319934200F29580069B013B07939C
:105AC0000EB930468BE0B9F1000F3CD0D9F8003068
:105AD0009B4538D1D9E9015205EB020AA24532D9DA
