:100000000098002019300100092D0100273001005F
:100010002730010027300100273001002730010080
:100020000000000000000000000000002730010078
:1000300027300100000000002730010027300100B8
:100040005318010051190100011A01005119010052
:10005000011A0100E9F600001DF7000051F7000049
:1000600085F700009329010017E00000A1DE0000E1
:1000700037E100008FE10000012001005500010080
:100080005500010055000100D509010039090100A2
:100090003FD300008BD3000009D400006DD40000D2
:1000A0000000000000000000000000000000000050
:1000B0000000000000000000000000000000000040
:1000C0000000000000000000000000000000000030
:1000D0000000000000000000000000000000000020
:1000E0000000000000000000000000000000000010
:1000F0000000000000000000000000000000000000
:1001000000000000000000000000000000000000EF
:1001100000000000000000000000000000000000DF
:1001200000000000000000000000000000000000CF
:1001300000000000000000000000000000000000BF
:1001400000000000000000000000000000000000AF
:10015000000000000000000000000000000000009F
:10016000000000000000000000000000000000008F
:10017000000000000000000000000000000000007F
:10018000000000000000000000000000000000006F
:10019000000000000000000000000000000000005F
:1001A000000000000000000000000000000000004F
:1001B000000000000000000000000000000000003F
:1001C000FFFFFFFFFFFFFFFFFFFFFFFFFFFFFFFF3F
:1001D000FFFFFFFFFFFFFFFFFFFFFFFFFFFFFFFF2F
:1001E000FFFFFFFFFFFFFFFFFFFFFFFFFFFFFFFF1F
:1001F000FFFFFFFFFFFFFFFFFFFFFFFFFFFFFFFF0F
:1002000010B5054C237833B9044B13B1044800E012
:1002100000BF0123237010BD001B00200000000060
:10022000605B010008B5034B1BB10349034800E0C4
:1002300000BF08BD00000000041B0020605B01003F
:1002400080B487B000AFF860B9601346FB7100233B
:10025000FB750023FB750DE0FA79FB7DD31A013B9A
:10026000FA681A44FB7DB9680B4412781A70FB7D5A
:100270000133FB75FA7DFB799A42EDD300BF00BFD5
:100280001C37BD465DF8047B7047FFFF80B588B022
:1002900000AF786039607B68FB610023BB76002388
:1002A000FB760023BB6007F10C0300221A605A6042
:1002B0009A601CE0F9691E4BA3FB0123DA08134680
:1002C0009B0013445B00CA1A1346BB76BA7EFB7EC2
:1002D00018498A5C20333B4403F8182CFB7E013319
:1002E000FB76FB69124AA2FB0323DB08FB61FB6977
:1002F000092BDFD8FB7E0F49FA690A4412782033B4
:100300003B4403F8182CFB7E0133DAB207F10803F3
:1003100039681846FFF794FFFB7E01333A681344AF
:1003200000221A70FB7E013318462037BD4680BD7F
:10033000CDCCCCCCA843010080B584B000AF7860B0
:1003400039607B68002B06DB7B6839681846FFF74D
:100350009DFF03460EE07B685B42FB603B682D22FD
:100360001A70FA683B68013319461046FFF78EFF92
:100370000346013318461037BD4680BD80B485B0B2
:1003800000AF03463960FB801346BB800023FB812E
:10039000BB88013B9BB2BB814FF6FF733B814FF69D
:1003A000FF737B812AE0B7F90C20B7F90E30D31A1E
:1003B000DA0F13445B109AB2FB8913449BB23B8162
:1003C000B7F908305B003A6813441B88FA889A42F0
:1003D00002D13B897B8117E0B7F908305B003A68AE
:1003E00013441B88FA889A4204D23B8901339BB29A
:1003F000FB8103E03B89013B9BB2BB81B7F90E2037
:10040000B7F90C309A42CEDDB7F90E20B7F90C30AF
:100410009A4201DDFB897B817B8918461437BD46F2
:100420005DF8047B7047FFFF80B584B000AFF860D3
:10043000B9607A60FB68002B04D1182013F0C6F86D
:100440000346FB60BB685A1CFB685A60FB687A680D
:100450009A60FB6800225A61FB684FF0FF32DA6055
:10046000FB684FF0FF321A61FB685B68FA689268BC
:1004700002FB03F3184613F0A9F803461A46FB687B
:100480001A60FB681B68002B03D1034813F012FAB3
:1004900000BF1037BD4680BDB443010080B584B0B5
:1004A00000AF786039607B68DB6801331A467B688F
:1004B0005B68B2FBF3F101FB03F3D31AFB607B68CB
:1004C0001B691A46FB68934219D07B681A687B68DF
:1004D000DB6819467B689B6801FB03F3D0187B68D7
:1004E0009B681A46396813F081F8FA687B68DA600D
:1004F0007B685B695A1C7B685A61012300E000231A
:1005000018461037BD4680BD90B58BB002AF7860FD
:100510007B6800225A60244B1A697B689A607B686A
:10052000214A1A607B680022DA601BE07B68186849
:100530007B685A687B68DB6807F10C011024009423
:1005400005F08EFE07F10C03FB61FB69D3E9022382
:10055000164911440B430CD17B68DB6803F1100290
:100560007B68DA607B68DA687B689B689A42DDD3D7
:1005700000E000BF7B68DA687B689B689A4203D81A
:100580007B68DB68002B0AD17B681A687B685B6834
:100590001946104605F098FC7B680022DA6000BF1F
:1005A0002437BD4690BD00BFD42200206C0F1FFF32
:1005B00082B090B589B002AF786007F1280181E878
:1005C0000C007B68DA687B689B689A4207D97B6875
:1005D0001A687B685B681946104605F075FC20A315
:1005E000D3E90023C7E90C237B6818687B685A6845
:1005F0007B68DB681021009107F1280105F053FDAD
:100600000346002B23D07B6818687B685A687B6898
:10061000DB6807F108011024009405F021FEBA6898
:10062000BB6A9A4213D1FA68FB6A9A420FD1D7E9A2
:100630000401D7E90C23994208BF904207D17B6897
:10064000DB6803F110027B68DA60002301E04FF001
:10065000FF3318461C37BD46BDE8904002B07047D6
:1006600094F0E0000000000080B487B000AF786133
:10067000396187ED030AC7ED020A87ED011A7B692C
:100680001B68FA681A607B691B68BA685A607B69E4
:100690001B687A689A607B691B683A6912681A61FC
:1006A0007B691B683A6952685A617B691B683A69C1
:1006B00092689A6100BF1C37BD465DF8047B7047A5
:1006C00080B582B000AF7860786800F087FF786806
:1006D00001F0AEF800BF0837BD4680BD80B582B0DE
:1006E00000AF78607B6808330ECB786800F038F88C
:1006F000786800F0E9F8786800F064F9786800F04C
:10070000EBF9786800F026FA7B682C330ECB78681A
:1007100000F026F8786800F06DFD786800F0C4FA03
:10072000786800F023FB786800F03CFB786800F004
:1007300071FB786800F0ACFB786800F02BFC7868FF
:1007400000F050FC786800F091FC786800F0E4FC60
:10075000786800F0ADFE00BF0837BD4680BDFFFFE2
:10076000F0B593B00AAFF86107F1100080E80E0011
:10077000524D3C46514A01AB07CA83E807000323A8
:10078000009307F110030ECB204602F010F92C461F
:100790003B4693E8070084E80700494E3D46FC6964
:1007A000474A6B4607CA83E8070004F114030ECBDF
:1007B000284602F035F934463B4693E8070084E8C2
:1007C00007003F4E3D463E4C3D4A6B4607CA83E814
:1007D00007009FED3C0A94E80E00284601F024FF34
:1007E00034463B4693E8070084E80700334E3D4615
:1007F000324C324A03AB07CA83E80700304A6B46E3
:1008000007CA83E8070094E80E00284601F04FFE6F
:1008100034463B4693E8070084E80700284E3D46EF
:10082000274C274A6B4607CA83E80700B0EE000A48
:1008300094E80E00284601F0F7FE34463B4693E864
:10084000070084E807001E4E3D461C4C1C4A03ABC3
:1008500007CA83E807001A4A6B4607CA83E80700FD
:1008600094E80E00284601F060FE34463B4693E8CB
:10087000070084E80700FD693E46FB6906AC2033AB
:1008800093E8070084E807000D4A03AB07CA83E832
:1008900007000A4A6B4607CA83E8070007F11003FE
:1008A0000ECB304602F006F805F120033A4607CA9F
:1008B00083E8070000BF2437BD46F0BDF01E0020CE
:1008C000FC1E0020BDE38D3CF0B58FB006AFF86193
:1008D0003A4B7B6007F10806FD69384A03AB07CA4B
:1008E00083E80700FB696C46743393E8070084E8EB
:1008F000070005F144030ECB304601F0CFFE7C68C3
:1009000007F1080393E8070084E807002C4E07F17D
:1009100008052A4C2A4A01AB07CA83E807000723C7
:10092000009394E80E00284602F041F8344607F19F
:10093000080393E8070084E80700FD6907F1080C45
:10094000FE69FB6903AC203393E8070084E80700E5
:10095000FB696C46203393E8070084E8070006F142
:1009600038030ECB604601F099FE05F1200307F134
:10097000080207CA83E80700FD6907F1080CFE6951
:10098000FB6903AC203393E8070084E807000C4AB6
:100990006B4607CA83E8070006F120030ECB6046CA
:1009A00001F085FD05F1200307F1080207CA83E87D
:1009B000070000BF2437BD46F0BD00BF081F002060
:1009C000141F002080B485B000AF78600023FB6066
:1009D0000AE07B68DA6AFB689B0013444FF0000270
:1009E0001A60FB680133FB60FB68022BF1DD00231A
:1009F000FB601BE07B68DB6A93ED007A354AFB689D
:100A00009B001344D3ED006A7B681A6AFB689B0065
:100A10001344D3ED007A66EEA77A7B68DB6A77EE43
:100A2000277AC3ED007AFB680133FB60FB68062B75
:100A3000E0DD0023FB601EE07B68DB6A043393ED9E
:100A4000007A244AFB689B001344D3ED006A7B685C
:100A50001A6AFB6807339B001344D3ED007A66EEF5
:100A6000A77A7B68DB6A043377EE277AC3ED007AD6
:100A7000FB680133FB60FB68062BDDDD0023FB60B8
:100A80001EE07B68DB6A083393ED007A114AFB684D
:100A90009B001344D3ED006A7B681A6AFB680E332F
:100AA0009B001344D3ED007A66EEA77A7B68DB6A7D
:100AB000083377EE277AC3ED007AFB680133FB60D9
:100AC000FB68062BDDDD00BF00BF1437BD465DF8B7
:100AD000047B7047C8430100F0B58DB006AF786164
:100AE0007D69BC467E697B6901AC503393E80700A1
:100AF00084E807000723009306F12C030ECB604621
:100B000001F055FF05F150033A4607CA83E8070094
:100B10007D69BC467E697B6903AC503393E807006E
:100B200084E807007B696C46503393E8070084E84B
:100B3000070006F120030ECB604601F0F6FC05F13C
:100B400050033A4607CA83E8070000BF1C37BD467A
:100B5000F0BDFFFFF0B591B006AF786100237B6276
:100B60000DE07B695A697B6A9B00134449497A6AA4
:100B700092000A4412681A607B6A01337B627B6AC6
:100B8000082BEEDD00233B627BE00023FB6124E0C9
:100B90007B69196DFA691346DB009A1A3B6A1344A4
:100BA0009B00CA183C4B1968FB699B000B441268F8
:100BB0001A607B69196DFA691346DB009A1A3B6A61
:100BC00013449B00CA18354B1968FB699B000B4402
:100BD00012681A60FB690133FB61FB69022BD7DDE8
:100BE0002F4E3D462C4C2E4A03AB07CA83E8070024
:100BF0002A4A6B4607CA83E8070094E80E00284695
:100C000001F04CFD34463B4693E8070084E80700BA
:100C1000244A3B6A9B001344D3ED007A204E3D46A4
:100C20001F4C1F4A6B4607CA83E80700B0EE670AED
:100C300094E80E00284601F0F7FC34463B4693E862
:100C4000070084E807007D69BC467E697B6903ACC8
:100C5000143393E8070084E80700114A6B4607CA7B
:100C600083E8070006F114030ECB604601F01FFC79
:100C700005F114033A4607CA83E807003B6A0133CB
:100C80003B623B6A062B80DD00BF00BF2C37BD46B0
:100C9000F0BD00BF24440100381F0020441F002085
:100CA000501F0020E4430100F0B58FB006AF78611B
:100CB0007D69BC467E697B6903AC803393E807009D
:100CC00084E807007B696C46203393E8070084E8DA
:100CD000070006F15C030ECB604601F0DFFC05F176
:100CE00080033A4607CA83E807007B697A696C4645
:100CF00003F1780103C984E803005B6F683207CA17
:100D000001F051FC87ED060A0023FB6109E0164B58
:100D10001A68FB699B001344BA691A60FB690133C6
:100D2000FB61FB69062BF2DD7D69BC467E697B6950
:100D300003AC803393E8070084E807000A4A6B4657
:100D400007CA83E8070006F180030ECB604601F076
:100D5000AEFB05F180033A4607CA83E8070000BFEF
:100D60002437BD46F0BD00BF5C1F002090B585B0A4
:100D700002AF78600A4B7A686C46191D03C984E893
:100D800003001B68803207CA01F00DFCF0EE407AC8
:100D90007B68C3ED237A00BF0C37BD4690BD00BF12
:100DA0002C1F0020F0B58FB006AF78610023FB61E7
:100DB0000BE0174B1A68FB699B0013447A69D2F861
:100DC0008C201A60FB690133FB61FB69062BF0DDA7
:100DD0007D69BC467E697B6903AC903393E807006C
:100DE00084E807000A4A6B4607CA83E8070006F151
:100DF00080030ECB604601F098FB05F190033A4664
:100E000007CA83E8070000BF2437BD46F0BD00BF16
:100E1000681F002080B485B000AF78607B681A4AF4
:100E2000C3F89C200023FB6024E07B6893ED277AC5
:100E3000164AFB689B001344D3ED006A7B68D3F825
:100E40009020FB689B001344D3ED007A66EEA76AFE
:100E50007B68D3F89020FB689B001344D3ED007AA5
:100E600066EEA77A77EE277A7B68C3ED277AFB6870
:100E70000133FB60FB68062BD7DD00BF00BF1437D2
:100E8000BD465DF8047B704766F7E43EE44301002D
:100E9000F0B591B006AF786100237B620BE07B690F
:100EA000D3F8A0207B6A9B0013444FF000021A6025
:100EB0007B6A01337B627B6A022BF0DD00233B629D
:100EC0005CE00023FB6113E07B69196DFA6913464E
:100ED000DB009A1A3B6A13449B00CA182B4B196813
:100EE000FB699B000B4412681A60FB690133FB61CC
:100EF000FB69022BE8DD264A3B6A9B00134493ED15
:100F0000007A7B69D3F890203B6A9B001344D3EDB1
:100F1000007A67EE277A1D4E3D461C4C1B4A6B46F5
:100F200007CA83E80700B0EE670A94E80E00284677
:100F300001F07AFB34463B4693E8070084E807005B
:100F40007D69BC467E697B6903ACA03393E80700EA
:100F500084E807000D4A6B4607CA83E8070006F1DC
:100F6000A0030ECB604601F0A2FA05F1A0033A46B9
:100F700007CA83E807003B6A01333B623B6A062BE2
:100F80009FDD00BF00BF2C37BD46F0BD741F0020A1
:100F9000E4430100F0B58BB004AF78617B69D3ED19
:100FA000277AF7EE006A86EEA77A7D69BC467E69ED
:100FB0007B696C46AC3393E8070084E80700B0EE29
:100FC000470A06F1A0030ECB604601F02DFB05F1A8
:100FD000AC033A4607CA83E8070000BF1C37BD468A
:100FE000F0BDFFFFF0B58DB006AF78617B691B687F
:100FF00093ED007A7B69D3ED237A77EE677A1A4E08
:101000003D467C69184A6B4607CA83E80700B0EE84
:10101000670A04F1AC030ECB284601F005FB344609
:101020003B4693E8070084E807007D69BC467E697B
:101030007B6903AC083393E8070084E807000A4A99
:101040006B4607CA83E8070006F12C030ECB604607
:1010500001F02DFA05F108033A4607CA83E80700B4
:1010600000BF1C37BD46F0BD801F002080B483B098
:1010700000AF78607B689B68D3ED007A9FED217AA2
:10108000F4EEC77AF1EE10FA03DB7B689B681E4A28
:101090001A607B689B68D3ED007A9FED1C7AF4EEB2
:1010A000C77AF1EE10FA03D87B689B68184A1A6079
:1010B0007B689B680833D3ED007AB7EE007AF4EED4
:1010C000C77AF1EE10FA05DB7B689B6808334FF0B6
:1010D0007E521A607B689B680833D3ED007ABFEEBE
:1010E000007AF4EEC77AF1EE10FA00D904E07B68DA
:1010F0009B680833074A1A6000BF0C37BD465DF88D
:10110000047B70470000C8420000C84257EC8F3E85
:1011100057EC8F3E000080BFF0B58FB006AF78610E
:101120000023FB610FE07B69D3F8AC20FB699B00D7
:101130001A442E4B1968FB699B000B4412681A6015
:10114000FB690133FB61FB69022BECDD284E3D4658
:101150007C69274A03AB07CA83E80700234A6B462A
:1011600007CA83E8070004F1AC030ECB284601F060
:1011700095FA34463B4693E8070084E807007B690C
:10118000D3ED277A1A4E3D46194C194A6B4607CAC9
:1011900083E80700B0EE670A94E80E00284601F0E5
:1011A00043FA34463B4693E8070084E807007D692C
:1011B000BC467E697B6903AC143393E8070084E87E
:1011C00007000B4A6B4607CA83E8070006F11403C1
:1011D0000ECB604601F0A9F905F114033A4607CA9F
:1011E00083E8070000BF2437BD46F0BD8C1F0020F8
:1011F000981F002080B582B000AF7860786800F05A
:1012000011F8786800F0A6F8786800F0BBF8786804
:1012100000F0FEF8786800F037F900BF0837BD46E7
:1012200080BDFFFF80B582B000AF78607B681A6830
:101230007B685B6F52681A607B681B68D3ED017A2C
:10124000B0EE670A01F0D0FD07EE900A7B685B6F95
:101250000433F8EEE77AC3ED007A7B681B68D3EDC0
:10126000017AB0EE670A01F013FDF0EE407A9FEDCF
:10127000337AF4EEC77AF1EE10FA05D57B685B6F2E
:1012800004334FF000021A602D4B2E4A1A607B681F
:101290001B68D3ED017AF5EEC07AF1EE10FA03D5B2
:1012A000274B4FF07E521A607B681B68D3ED067A9D
:1012B000DFED256A86EEA77AB0EE470A01F0E8FC7A
:1012C000F0EE407AF1EE677AB0EE670A01F040FD89
:1012D000F0EE407A7B68C3ED2E7A194BD3ED007A9D
:1012E0009FED1A7A67EE877A9FED177A27EE877A55
:1012F0007B681B68D3ED017A27EE277A7B681B6831
:10130000D3ED027ADFED126A67EEA67AC7EE276A9E
:10131000B0EE660A01F0BCFCF0EE407AF1EE677ABE
:10132000B0EE670A01F014FDF0EE407A7B68C3ED81
:101330002F7A00BF0837BD4680BD00BF6F12833BC8
:101340002C1B002071F5833F3333333FCCFF7642B3
:101350000000874680B483B000AF78607B689B6BE9
:1013600010337A68D2F8B8201A607B689B6B203300
:101370007A68D2F8BC201A6000BF0C37BD465DF811
:10138000047B704780B483B000AF78601C4BD3ED12
:10139000007AF1EE677A9FED1B7A67EE877A9FED10
:1013A0001A7A67EE876A7B681B68D3ED027A9FED35
:1013B000177A27EE877A7B685B6CC6EE877AC3ED77
:1013C000007A7B68D3ED2E7A7B685B6C0833B7EECE
:1013D000007A77EE677AC3ED007A7B68D3ED2F7AD7
:1013E0007B685B6C1433B7EE007A77EEC77AC3ED97
:1013F000007A00BF0C37BD465DF8047B704700BF24
:101400002C1B00203333333F0000C84200008746C6
:1014100080B584B000AF78604FF00003FB6000231C
:10142000BB6015E07B681A6ABB689B001344D3ED70
:10143000007AB0EE670A00F06FFFB0EE407AD7EDA9
:10144000037A77EE877AC7ED037ABB680133BB6016
:10145000BB68062BE6DD7B68DB6D97ED037AF1EE6A
:101460000C6AC7EE267AC3ED007A7B681B68D3ED61
:10147000057A7B68DB6D0433F1EE677AC3ED007AA1
:1014800000BF1037BD4680BD80B483B000AF786028
:101490007B681B68D3ED047A7B689B6EF1EE677AFC
:1014A000C3ED007A00BF0C37BD465DF8047B704782
:1014B00080B582B000AF78607B689B68D3ED007A1E
:1014C000B0EE670A00F028FFB0EE407A7B689B68B8
:1014D000D3ED007A27EE277A7B689B680433D3ED3F
:1014E000006A7B681B68D3ED057A66EEA77A37EE53
:1014F000677A7B681B68D3ED016A7B681B68D3ED54
:10150000047A66EEA77A37EE677A7B689B680833C1
:10151000D3ED007ADFED2E6A67EEA67A37EE277AF2
:101520007B685B6F0433D3ED007ADFED2A6A67EEE8
:10153000A67A7B685B6877EE277AC3ED017A7B68D1
:101540009B68D3ED007AB0EE670A12F0B3FEF0EEBE
:10155000407A7B685B68FCEEE77A17EE902A1A60A7
:101560007B689B68D3ED007A9FED1B7AF4EEC77A17
:10157000F1EE10FA03DB7B685B6864221A607B681B
:101580009B68D3ED007AF5EEC07AF1EE10FA03D83D
:101590007B685B6800221A607B689B680833D3ED28
:1015A000007A9FED0B7A27EE877A7B685B6F0433B6
:1015B000D3ED007ADFED076A67EEA67A7B685B6899
:1015C00077EE277AC3ED047A00BF0837BD4680BDA9
:1015D000B6F37D3D0AD7233B0000C84280B483B0F8
:1015E00000AF7860584B594A1A60594B594A1A60F3
:1015F000594B5A4A1A605A4B5A4A1A605A4B5B4A1C
:101600001A605B4B5B4A1A605B4B5C4A1A605C4B2E
:101610005C4A1A605C4B5D4A1A605D4B5D4A1A6019
:101620005D4B5E4A1A605E4B5E4A1A605E4B5F4AD3
:101630001A605F4B5F4A1A605F4B604A1A60604BEA
:10164000604A1A60604B614A1A60614B614A1A60D5
:10165000614B624A1A60624B624A1A60624B634A8B
:101660001A60634B634A1A60634B644A1A60644BA6
:10167000644A1A60644B654A1A60654B654A1A6091
:10168000654B664A1A60664B664A1A60664B674A43
:101690001A607B682C4A083307CA83E807007B6816
:1016A0002B4A143307CA83E807007B682A4A203391
:1016B00007CA83E807007B68294A2C3307CA83E8F6
:1016C00007007B68284A383307CA83E807007B682D
:1016D000274A443307CA83E807007B68264A5C33FD
:1016E00007CA83E807007B68254A683307CA83E88E
:1016F00007007B68244A503307CA83E807007B68E9
:10170000234A743307CA83E807007B68224A803380
:1017100007CA83E807007B68214A903307CA83E839
:1017200007007B68204AA03307CA83E807007B686C
:101730001F4AAC3307CA83E8070000BF0C37BD4619
:101740005DF8047B704700BF481E0020301B00205E
:10175000541E00203C1B0020601E0020601B002047
:101760006C1E0020B41B0020781E0020C01B00202F
:10177000841E0020E41B0020901E0020FC1B002083
:101780009C1E0020081C0020A81E0020101C002009
:10179000B41E0020641C0020C01E00206C1C002011
:1017A000CC1E0020881C0020D81E0020A41C002075
:1017B000E41E0020B01C0020F01E0020BC1C0020F5
:1017C000FC1E0020E01C0020081F0020041D00203B
:1017D000141F0020101D0020201F0020641D002069
:1017E0002C1F0020701D0020381F00208C1D0020A1
:1017F000441F0020981D0020501F0020A41D002021
:101800005C1F0020C81D0020681F0020E41D002070
:10181000741F0020001E0020801F00200C1E0020CE
:101820008C1F0020181E0020981F0020241E00205E
:1018300090B585B000AF78607B680322DA607B6882
:1018400001221A617B681B68D3ED007A7B689C6873
:10185000B0EE670A00F010FDF0EE407AC4ED007AB9
:101860007B689B6804334FF000021A607B689B68BA
:1018700008334FF000021A607B6803229A617B688C
:101880000322DA610023FB600DE07B685A69FB6884
:101890009B0013448549FA6892000A4412681A6052
:1018A000FB680133FB60FB68082BEEDD7B680322DD
:1018B0005A627B6807229A627B6803221A637B68FC
:1018C00001225A637B6803225A657B6807229A6566
:1018D0007B680322DA637B6803221A640023FB60BF
:1018E0000AE07B689A6BFB689B0013444FF0000290
:1018F0001A60FB680133FB60FB68082BF1DD7B6835
:101900009B6B4FF07E521A607B689B6B03F1100457
:101910009FED670A01F01CFAF0EE407AC4ED007A00
:101920007B689B6B20334FF07E521A607B680322EA
:101930009A647B680222DA640023FB600AE07B6819
:101940005A6CFB689B0013444FF000021A60FB685E
:101950000133FB60FB68052BF1DD7B685B6C554A4E
:101960001A609FED530A01F0F3F9F0EE407A7B68BC
:101970005B6C0833B7EE007A77EE677AC3ED007AD6
:101980007B6801221A667B6803225A660023FB608B
:101990000AE07B68DA6DFB689B0013444FF000029D
:1019A0001A60FB680133FB60FB68022BF1DD7B688A
:1019B000DB6D0833404A1A607B680122DA667B6877
:1019C00002221A670023FB600AE07B689A6EFB68BC
:1019D0009B0013444FF000021A60FB680133FB6068
:1019E000FB68012BF1DD7B689B6E0433334A1A6080
:1019F0007B6802229A677B680122DA677B681A6833
:101A00007B685B6F52681A607B685B6F04334FF0D2
:101A100000021A607B680122C3F884207B680722D9
:101A2000C3F888207B681B681A687B68C3F88C2021
:101A30007B680122C3F894207B680722C3F89820B2
:101A40007B680322C3F8A4207B680122C3F8A82086
:101A50007B680322C3F8B0207B680122C3F8B4205E
:101A60007B681A687B685B6812685A607B689B6851
:101A7000D3ED007AB0EE670A12F01CFCF0EE407A6B
:101A80007B685B68FCEEE77A17EE902A1A607B6849
:101A90005B684FF000021A61094B07225A60084B3D
:101AA00001229A600023FB601AE000BF004401009D
:101AB000617BA3BFBC292FB8B6F37D3D0AD7233B7A
:101AC0002C1F0020344B1A68FB689B0013443349D9
:101AD000FA6892000A4412681A60FB680133FB60DE
:101AE000FB68062BEEDD2E4B03225A602C4B0322A3
:101AF0009A602C4B03225A602A4B03229A602A4B8D
:101B000003225A60284B01229A60284B03225A6014
:101B1000264B07229A60264B03225A60244B01224F
:101B20009A60244B03225A60224B01229A60224B76
:101B300001225A60204B03229A60204B03225A60F4
:101B40001E4B03229A601E4B01225A601C4B072237
:101B50009A601C4B01225A601A4B07229A601A4B5A
:101B600003225A60184B01229A60184B03225A60D4
:101B7000164B01229A60164B01225A60144B032225
:101B80009A60144B03225A60124B03229A6000BFE2
:101B90001437BD4690BD00BF2C1F0020C843010074
:101BA000F01E0020FC1E0020081F0020141F002033
:101BB000201F0020381F0020441F0020501F00203D
:101BC0005C1F0020681F0020741F0020801F002061
:101BD0008C1F0020981F002080B485B000AFF860F3
:101BE00087ED020AC7ED010A87ED001AFB681B6842
:101BF000BA681A60FB681B687A685A60FB681B68E1
:101C00003A689A6000BF1437BD465DF8047B7047A0
:101C100080B582B000AF7860786800F0F9F9786834
:101C200000F058FA00BF0837BD4680BD80B582B0CD
:101C300000AF7860786800F016F8786800F03EF839
:101C4000786800F055F8786800F0C0F8786800F01F
:101C500029F9786800F062F8786800F05DF900BF53
:101C60000837BD4680BD80B483B000AF78607B6824
:101C70005A6A7B685B6A0C3392681A607B681A68E0
:101C80007B685B6A083352681A607B685B6A04335E
:101C90007A6892681A607B681B6893ED007A7B68AB
:101CA0001B68D3ED027A77EE677A7B68C3ED027A20
:101CB00000BF0C37BD465DF8047B704790B585B01A
:101CC00002AF78607B687A686C4603F1340103C91F
:101CD00084E803001B6B243207CA00F064FCF0EEBA
:101CE000407A7B68C3ED0F7A00BF0C37BD4690BDCC
:101CF00080B483B000AF78607B681B6893ED007A96
:101D00007B68D3ED0F7A77EE677A7B68C3ED107A44
:101D100000BF0C37BD465DF8047B7047F0B597B047
:101D200006AF786107F11C00264B0ECB00F064FB78
:101D300007F128067D69244A03AB07CA83E8070038
:101D40007B696C46243393E8070084E8070005F1BB
:101D500018030ECB304600F0A1FC07F13405194AF8
:101D600003AB07CA83E807006C4607F1280393E832
:101D7000070084E8070007F11C030ECB284600F09B
:101D8000D4FB7D693E467B6903AC0C3393E80700C6
:101D900084E807007B696C460C3393E8070084E80D
:101DA000070007F134030ECB304600F077FC05F155
:101DB0000C033A4607CA83E8070000BF4437BD4614
:101DC000F0BD00BF2421002030210020F0B58FB0ED
:101DD00006AF78610023FB610EE07B695A6AFB69FC
:101DE0009B001A442D4B1968FB699B000B44126839
:101DF0001A60FB690133FB61FB69032BEDDD7D6933
:101E0000BC467E697B6903AC183393E8070084E81D
:101E10000700224A6B4607CA83E8070006F10C0355
:101E20000ECB604600F03AFC05F118033A4607CAAB
:101E300083E807007B697A696C4603F11C0103C9DA
:101E400084E803009B69243207CA00F0ACFBF0EE83
:101E5000407A9FED137A77EE877AF7EE006A86EE86
:101E6000A77A7D69BC467E697B696C46183393E826
:101E7000070084E80700B0EE470A06F118030ECB0E
:101E8000604600F0D1FB05F118033A4607CA83E823
:101E9000070000BF2437BD46F0BD00BF4821002029
:101EA00092CB7F3FF0B591B006AF78617B69D3EDFF
:101EB000107A07F11C057C69164A6B4607CA83E84D
:101EC0000700B0EE670A04F118030ECB284600F0B5
:101ED000ABFB7D69BC467E697B6903AC303393E81C
:101EE000070084E807006C4607F11C0393E807002D
:101EF00084E8070006F130030ECB604600F0D7FA05
:101F000005F130033A4607CA83E8070000BF2C37C3
:101F1000BD46F0BD5421002080B483B000AF78608E
:101F20007B681B6B0C3393ED007A7B681B6B08336B
:101F3000D3ED007A77EE676A7B681B6B0433D3EDD1
:101F4000007AB7EE007A37EE877A7B685B68C6EE78
:101F5000877AC3ED007A7B681B6B0C3393ED007AB4
:101F60007B681B6B0433D3ED006A7B681B6B083303
:101F7000D3ED007A66EEA77A77EE277A77EEA76A36
:101F80007B681B6B043393ED007A7B681B6B043317
:101F9000D3ED007A67EE277AB7EE007A37EEC77A8C
:101FA0007B685B68C6EE877AC3ED017A7B681B6B42
:101FB0000433D3ED007AB7EE007A77EE877A9FED9F
:101FC0000D7A67EE876A7B681B6B0433D3ED007A6A
:101FD000B7EE007A77EEC77A37EEA77A7B685B6850
:101FE000C6EE877AC3ED027A00BF0C37BD465DF8B6
:101FF000047B7047333333BF80B483B000AF786065
:102000007B685B6818460C37BD465DF8047B7047FB
:1020100080B483B000AF78601C4B1D4A1A601D4B22
:102020001D4A1A601D4B1E4A1A601E4B1E4A1A603A
:102030001E4B1F4A1A601F4B1F4A1A601F4B204A33
:102040001A60204B204A1A60204B214A1A607B6894
:102050000E4A0C3307CA83E807007B680D4A183321
:1020600007CA83E807007B680C4A243307CA83E861
:1020700007007B680B4A303307CA83E8070000BFBC
:102080000C37BD465DF8047B704700BFF42000208C
:10209000A41F002000210020E41F00200C210020AC
:1020A000F41F0020182100200420002024210020FB
:1020B0001420002030210020542000203C2100204A
:1020C0009420002048210020D4200020542100200A
:1020D000E420002080B485B000AF78607B680422E3
:1020E0001A617B6804225A610023FB600DE07B6863
:1020F000DA68FB689B0013445349FA6892000A446B
:1021000012681A60FB680133FB60FB680F2BEEDD81
:102110007B680422DA617B6801221A620023FB607B
:102120000DE07B689A69FB689B0013444749FA6895
:1021300092000A4412681A60FB680133FB60FB6876
:10214000032BEEDD7B6801229A627B680422DA624F
:102150000023FB600DE07B685A6AFB689B00134418
:102160003B49FA6892000A4412681A60FB6801331E
:10217000FB60FB68032BEEDD7B681A687B685B6A9B
:10218000083352681A607B6804225A637B68012214
:102190009A630023FB600DE07B681A6BFB689B0071
:1021A00013442C49FA6892000A4412681A60FB68CA
:1021B0000133FB60FB68032BEEDD7B681B681A684C
:1021C0007B68DA637B684FF000021A647B681B68E7
:1021D00093ED007A7B681B68D3ED027A77EE677A1D
:1021E0007B68C3ED027A7B685B681B4A1A607B6878
:1021F0005B681A4A5A607B685B68194A9A60194B97
:1022000004225A60174B04229A60174B04225A602A
:10221000154B04229A60154B04225A60134B04227A
:102220009A60134B04225A60114B01229A60114BA1
:1022300004225A600F4B01229A6000BF1437BD463A
:102240005DF8047B704700BF4844010098440100DA
:10225000A8440100884401004B59063CB537F83CBE
:102260007F4E0C3F24210020302100203C21002003
:10227000482100205421002080B485B000AF87EDB4
:10228000010A7B68BB609FED1E7AD7ED027AF4EEFF
:10229000C77AF1EE10FA01DD1A4BBB609FED1A7A96
:1022A000D7ED027AF4EEC77AF1EE10FA01D5174BAA
:1022B000BB600023FB600FE0154AFB689B001344E2
:1022C000D3ED007A97ED027AB4EEE77AF1EE10FAE8
:1022D00006DAFB680133FB60FB68C72BECDD00E02E
:1022E00000BF0C4AFB689B0013441B6807EE903A42
:1022F000B0EE670A1437BD465DF8047B704700BF37
:10230000A4708540A470854082E24B4082E24B403D
:10231000B8440100D847010080B487B000AF87ED12
:10232000010A4FF000037B617B683B619FED2D7AD2
:10233000D7ED047AF4EEC77AF1EE10FA01DD2A4BFC
:102340003B61B6EE007AD7ED047AF4EEC77AF1EE8F
:1023500010FA02D54FF07C533B610023FB6034E060
:10236000224AFB689B001344D3ED007A97ED047A70
:10237000B4EEE77AF1EE10FA24DB1C4AFB689B000E
:102380001344D3ED007A97ED047A37EE677A184A52
:10239000FB689B001344D3ED007A67EE277AC7ED04
:1023A000027A144AFB689B00134493ED007AD7ED40
:1023B000027A77EE276A97ED047AC6EE877AC7ED40
:1023C000057A05E0FB680133FB60FB68C72BC7DDBE
:1023D0007B6907EE903AB0EE670A1C37BD465DF8A0
:1023E000047B70470000C8420000C842D847010083
:1023F000F84A0100B844010090B587B000AFF8601A
:10240000384680E80E0038463B460ECB00F025F8F3
:1024100001237B6112E03A687B69013BB96803FBE9
:1024200001F17B690B4403F18043013B9B001344A2
:102430004FF07E521A607B6901337B617B687A6959
:102440009A42E8D9FB681C463B4693E8070084E8BB
:102450000700F8681C37BD4690BD90B486B000AF49
:10246000F860384680E80E0001237B610CE03A6892
:102470007B6903F18043013B9B0013444FF0000252
:102480001A607B6901337B617B68BA6802FB03F3E6
:102490007A699A42EBD9FB681C463B4693E80700F1
:1024A00084E80700F8681837BD4690BC704790B4C0
:1024B00086B000AFF860384680E80E0001237B61EB
:1024C0001FE03A687B6903F18043013B9B001344A2
:1024D00093ED007A3A6A7B6903F18043013B9B00EC
:1024E0001344D3ED007AFA6A7B6903F18043013B20
:1024F0009B00134477EE277AC3ED007A7B690133A2
:102500007B617B68BA6802FB03F37A699A42D8D987
:10251000FB681C4607F12C0393E8070084E80700DA
:10252000F8681837BD4690BC704790B486B000AFCD
:10253000F860384680E80E0001237B611FE03A68AE
:102540007B6903F18043013B9B00134493ED007AC8
:102550003A6A7B6903F18043013B9B001344D3ED4E
:10256000007AFA6A7B6903F18043013B9B001344C4
:1025700077EE677AC3ED007A7B6901337B617B6814
:10258000BA6802FB03F37A699A42D8D9FB681C4601
:1025900007F12C0393E8070084E80700F868183770
:1025A000BD4690BC704782B090B488B000AF3C1D6F
:1025B00084E80700FB624FF00003FB61BB68BB616E
:1025C000FB68BA699A4201D2FB68BB6101237B6157
:1025D0001CE07A687B6903F18043013B9B00134454
:1025E00093ED007AFA6A7B6903F18043013B9B001B
:1025F0001344D3ED007A67EE277A97ED077A77EEEA
:10260000277AC7ED077A7B6901337B617A69BB69F9
:102610009A42DED9FB6907EE903AB0EE670A20379E
:10262000BD4690BC02B0704790B488B000AF7861EE
:1026300007F1080080E80E0087ED010A0123FB6125
:1026400018E0BA68FB6903F18043013B9B00134427
:1026500093ED007ABA6AFB6903F18043013B9B006A
:102660001344D7ED017A67EE277AC3ED007AFB6950
:102670000133FB61FB683A6902FB03F3FA699A4292
:10268000DFD97B691C4607F1280393E8070084E83B
:10269000070078692037BD4690BC7047B0B594B04C
:1026A00004AFF86107F1100080E80E007B69012B90
:1026B0001FD1BB69012B1CD13B69D3ED007A07F117
:1026C0005C056C4607F15C0393E8070084E80700AB
:1026D000B0EE670A07F150030ECB2846FFF7A4FFC0
:1026E000FB691C4607F15C0393E8070084E80700D8
:1026F000ABE07B6D012B24D1BB6D012B21D13B6D58
:10270000D3ED007A3D466C4607F15C0393E8070081
:1027100084E80700B0EE670A07F110030ECB2846E5
:10272000FFF782FF07F15C033A4607CA83E8070018
:10273000FB691C4607F15C0393E8070084E8070087
:1027400083E03B6EBB627B6EFB623B6E7A6E02FB8C
:1027500003F39B00184610F039FF03467B62012308
:10276000FB634EE00123BB6344E04FF000037B6357
:1027700001233B6328E03A69FB6B013BB96903FB2A
:1027800001F13B6B0B4403F18043013B9B0013447D
:1027900093ED007A3A6D3B6B013BB96D03FB01F1A0
:1027A000BB6B0B4403F18043013B9B001344D3ED0F
:1027B000007A67EE277A97ED0D7A77EE277AC7EDE4
:1027C0000D7A3B6B01333B63BB693A6B9A42D2D9BA
:1027D0007A6AFB6B013BF96A03FB01F1BB6B0B44AB
:1027E00003F18043013B9B0013447A6B1A60BB6B7F
:1027F0000133BB63BB6DBA6B9A42B6D9FB6B013335
:10280000FB637B69FA6B9A42ACD93D466C4607F193
:102810005C0393E8070084E8070007F124030ECB6C
:10282000284600F016F807F15C033A4607CA83E829
:1028300007007B6A184610F0D1FEFB691C4607F1C1
:102840005C0393E8070084E80700F8694037BD4659
:10285000B0BD90B486B000AFF860384680E80E0096
:1028600001237B6112E03A687B6903F18043013BFD
:102870009B001A44396A7B6903F18043013B9B004A
:102880000B4412681A607B6901337B617B68BA680C
:1028900002FB03F37A699A42E5D9FB681C4607F10B
:1028A000200393E8070084E80700F8681837BD465E
:1028B00090BC704790B48AB000AFF860384680E8AA
:1028C0000E0000237B6201233B625FE00123FB617A
:1028D00017E03A683B6A013BB96803FB01F1FB6909
:1028E0000B4403F18043013B9B001A44B96C7B6AA3
:1028F000581C78629B000B4412681A60FB69013314
:10290000FB61BB68FA699A42E3D90123BB6117E016
:102910003A6B3B6A013BB96B03FB01F1BB690B44AA
:1029200003F18043013B9B001A44B96C7B6A581C3D
:1029300078629B000B4412681A60BB690133BB616B
:10294000BB6BBA699A42E3D901237B6117E0FA6B4A
:102950003B6A013B796C03FB01F17B690B4403F19A
:102960008043013B9B001A44B96C7B6A581C786217
:102970009B000B4412681A607B6901337B617B6C9E
:102980007A699A42E3D93B6A01333B627B683A6ACF
:102990009A429BD9FB681C4607F1480393E807005D
:1029A00084E80700F8682837BD4690BC704790B4AB
:1029B00088B000AFF860384680E80E000023FB6165
:1029C0000123BB611BE001237B6111E03A68BB6915
:1029D00003F18043013B9B001A44F96AFB69581CD0
:1029E000F8619B000B4412681A607B6901337B61BC
:1029F0007A69BB6A9A42E9D9BB690133BB617B68DA
:102A0000BA699A42DFD9FB681C4607F12C0393E8A8
:102A1000070084E80700F8682037BD4690BC70477F
:102A2000B0B590B004AFF860384680E80E007B6C1B
:102A30007B61BB6CBB617B69BA6902FB03F39B00E2
:102A4000184610F0C3FD03463B6100BF3B69002BF5
:102A5000FCD007F110056C4607F1100393E807005E
:102A600084E807003B460ECB2846FFF7F2FE012321
:102A7000FB62C7E00123BB6263E03A68FB6A013B8B
:102A8000B96903FB01F1BB6A0B4403F18043013BCD
:102A90009B0013441B687B6201233B6228E03A6978
:102AA000FB6A013BB96903FB01F13B6A0B4403F18B
:102AB0008043013B9B00134493ED007A3A69BB6A63
:102AC000013BB96903FB01F13B6A0B4403F180430D
:102AD000013B9B001344D3ED007A67EE277A97ED14
:102AE000097A77EE677AC7ED097A3B6A01333B6270
:102AF0003A6ABB6A9A42D2D33A69BB6A013BB96966
:102B000003FB01F1BB6A0B4403F18043013B9B00D3
:102B1000134493ED007A3A69FB6A013BB96903FB00
:102B200001F1BB6A0B4403F18043013B9B0013445A
:102B3000D7ED096AC6EE877AC3ED007ABB6A013326
:102B4000BB62BA6AFB6A9A4297D33A68FB6A013B56
:102B5000B96903FB01F1FB6A0B4403F18043013BBC
:102B60009B0013441B68FB610123BB6228E03A69A8
:102B7000FB6A013BB96903FB01F1BB6A0B4403F13A
:102B80008043013B9B00134493ED007A3A69FB6A52
:102B9000013BB96903FB01F1BB6A0B4403F18043BC
:102BA000013B9B001344D3ED007A67EE277A97ED43
:102BB000077A77EE677AC7ED077ABB6A0133BB62A3
:102BC000BA6AFB6A9A42D2D397ED070A00F060F81E
:102BD000F0EE407A3A69FB6A013BB96903FB01F107
:102BE000FB6A0B4403F18043013B9B00D418B0EE19
:102BF000670A00F069F8F0EE407AC4ED007AFB6AEB
:102C00000133FB627B69FA6A9A427FF633AF022393
:102C1000FB621CE00123BB6212E03A69BB6A013B24
:102C2000B96903FB01F1FB6A0B4403F18043013BEB
:102C30009B0013444FF000021A60BB6A0133BB6271
:102C4000BA6AFB6A9A42E8D3FB6A0133FB627B698A
:102C5000FA6A9A42DED96B4607F1400207CA83E856
:102C6000070007F110030ECB07F14000FFF7F1FD5D
:102C70003B69184610F0B2FCFB681C4607F14003A4
:102C800093E8070084E80700F8683037BD46B0BD18
:102C900080B483B000AF87ED010AD7ED017AF5EE7D
:102CA000C07AF1EE10FA02DBD7ED017A03E0D7ED3E
:102CB000017AF1EE677AB0EE670A0C37BD465DF82F
:102CC000047B7047FFFFFFFF80B584B000AF87ED46
:102CD000010A4FF07E53FB600FE0D7ED016AD7ED9C
:102CE000037A86EEA77AD7ED037A37EE277AF0EEED
:102CF000006AC7EE267AC7ED037AD7ED037A67EE4E
:102D0000A76A97ED017AC6EE877AB7EE007A77EE7A
:102D1000C77AB0EE670AFFF7BBFF10EE103A18460D
:102D200010F06EFB08A3D3E9002310F035FC034636
:102D3000002BD2D1FB6807EE903AB0EE670A10374D
:102D4000BD4680BDAFF300808DEDB5A0F7C6B03EA7
:102D500080B586B000AF87ED010A4FF07E537B61EE
:102D600001233B617B68FB6019E097ED057AD7EDA5
:102D7000037A77EE277AC7ED057A3B6901333B6129
:102D800097ED037AD7ED017A67EE276A3B6907EE84
:102D9000903AB8EEE77AC6EE877AC7ED037A97EDF8
:102DA000037AD7ED017AC7EE276AB0EE660AFFF71D
:102DB0006FFF10EE103A184610F022FB08A3D3E97B
:102DC000002310F0F3FB0346002BCED17B6907EE06
:102DD000903AB0EE670A1837BD4680BDAFF3008069
:102DE0008DEDB5A0F7C6B03E80B483B000AF87EDDF
:102DF000010AD7ED017AF5EE407AF1EE10FA0BD028
:102E0000D7ED017AF5EEC07AF1EE10FA01DD01237B
:102E100003E04FF0FF3300E0002318460C37BD46B7
:102E20005DF8047B7047FFFF80B582B000AF78602B
:102E30007B685B6E1B681B685B6807EE903AF8EE78
:102E4000677ADFED286A87EEA67AB0EE470AFFF7C9
:102E500013FAF0EE407AB0EE670A11F02BFAF0EEBA
:102E6000407AFCEEE77A17EE902A7B681A647B685A
:102E70006422DA647B685B6E1B681B68B4335B6832
:102E800041F26802934209D87B685B6E1B681B683D
:102E9000B4335B6840F6C312934208D8786803F0F5
:102EA00018FE786803F022FE786803F0F6FB786875
:102EB00000F01EF8786800F0ABF8786800F0E4F8ED
:102EC0007B68DB6C07EE903AB8EE677ADFED066A56
:102ED000C7EE267A054BC3ED007A00BF0837BD4622
:102EE00080BD00BF00007A440000C842B02200202C
:102EF00080B483B000AF7860324B01221A70324B3D
:102F000001221A70314B01221A70314B00221A70C3
:102F1000304B00221A70304B00221A602F4B0022D7
:102F20001A602F4B00221A602E4B00221A602E4B83
:102F300000221A607B682D4A5A647B682C4A9A6486
:102F40007B685B6C2B4A1A607B685B6C2A4A5A6010
:102F50007B689B6C294A1A607B689B6C284A5A6084
:102F6000284B4FF07E521A607B68DB6C002B0CD034
:102F70007B68DB6C07EE903AB8EE677ADFED226A89
:102F8000C7EE267A1F4BC3ED007A204B01221A7040
:102F90007B68002283F8A52A7B685B6E1B681B6830
:102FA000B4335A687B68C3F8942A7B685B6E5A69AD
:102FB0007B68C3F89C2A00BF0C37BD465DF8047BD4
:102FC000704700BFB6220020B4220020B7220020A4
:102FD000B8220020B5220020BC220020C022002000
:102FE000C4220020C8220020CC2200207C21002006
:102FF000F02100206021002070210020C02100204D
:10300000DC210020B02200200000C842B9220020AC
:1030100080B582B000AF78607B685A6C7B685B6E6D
:103020001B681B685B6807EE903AF8EE677ADFED85
:10303000126A87EEA67A7B689B6F07EE903AF8EEED
:10304000E77ADFED0E6A67EEA67A9FED0D6AC7EEAE
:10305000866A9FED0C1AF0EE660AB0EE470A10463B
:10306000FEF7BAFD7B685B6C1846FEF7D1FD00BF2A
:103070000837BD4680BD00BF00007A4441F1833F60
:103080000000C8C30000000090B583B000AF7860B6
:103090007B689C6C7B685B6C1846FEF7ADFF024654
:1030A0007B685B6E1B681B685B6807EE903AF8EE06
:1030B000677ADFED126A87EEA67A7B689B6F07EE70
:1030C000903AF8EEE77ADFED0E6A67EEA67A9FEDAA
:1030D0000D6AC7EE866AB7EE001AF0EE660AB0EE29
:1030E000470A11462046FDF7BFFA7B689B6C1846DD
:1030F000FDF7E6FA00BF0C37BD4690BD00007A44EC
:1031000041F1833F0000C8C380B582B000AF786052
:103110007B68002283F8A52A786800F081FA7B6832
:10312000402283F8A52A7B685B6E5B680F4A934256
:1031300012D97B685B6E5B680D4A93420CD87B6842
:103140005B6E5B69B42B07DC7B685B6E5B69502B45
:1031500002DD786800F00EF8786800F045F87868CD
:1031600000F0B4F800BF0837BD4680BD3F05010040
:103170008006010080B483B000AF78607B689B6CF0
:103180009B68D3ED007A9FED137AF4EEC77AF1EEE7
:1031900010FA0FD5104B1B78DBB2002B07D10F4B69
:1031A0001B6801330D4A13600B4B01221A700C4B44
:1031B00001221A700A4B1B78DBB2012B04D1094B98
:1031C0001B680133074A136000BF0C37BD465DF82A
:1031D000047B70470080C742B9220020CC22002027
:1031E000B8220020C022002080B483B000AF7860F5
:1031F0007B685B6E5B69192B0ADC7B685B6E5B69C5
:1032000013F1190F04DB2A4B1B680133284A1360A2
:103210007B685B6E5B691D2B05DC7B685B6E5B69A5
:1032200013F11D0F10DA234B1B78DBB2002B02D1F8
:10323000214B01221A701F4B01221A701C4B0022D5
:103240001A601E4B00221A60194B1B68552B07D1C0
:103250001A4B1B680133194A1360154B00221A6080
:10326000164B1B680F2B0DD1124B1B78DBB2002BBA
:1032700005D0114B01221A700E4B00221A700F4B11
:1032800000221A600B4B1B78DBB2012B0AD10C4BCE
:103290001B78DBB2012B02D00A4B01221A700A4BB9
:1032A00001221A7000BF0C37BD465DF8047B7047E1
:1032B000C4220020B6220020B5220020C82200200F
:1032C000B8220020B4220020B722002080B483B0AE
:1032D00000AF7860084B1B78DBB2002B06D07B6810
:1032E0001B6C452B02D8044B00221A7000BF0C3710
:1032F000BD465DF8047B7047B922002080B582B0DE
:1033000000AF7860454B1B68002B0ED0786800F04A
:103310008FF87B6893F8A53A63F07F03DAB27B6895
:1033200083F8A52A3D4B00221A603D4B1B78DBB287
:10333000002B0ED0786800F0BDF87B6893F8A53AB2
:1033400043F02003DAB27B6883F8A52A344B0022CD
:103350001A707B685B6E5B68002B5BD0314B1B780F
:10336000DBB2002B1DD0786800F016F97B6893F86B
:10337000A53A43F00803DAB27B6883F8A52A7B6894
:103380009B6C5B681A687B681A647B6893F8A53A43
:1033900023F04003DAB27B6883F8A52A214B002290
:1033A0001A70214B1B78DBB2002B0ED0786800F02E
:1033B000CBF87B6893F8A53A43F01003DAB27B6848
:1033C00083F8A52A184B00221A70184B1B68002B93
:1033D00020D0786800F08BF9786800F0E1F97B681C
:1033E00093F8A53A43F00403DAB27B6883F8A52A80
:1033F0007B689B6C5B681A687B681A647B6893F8CF
:10340000A53A23F04003DAB27B6883F8A52A074B7C
:1034100000221A6000BF0837BD4680BDCC220020C4
:10342000B5220020B4220020B7220020C0220020B4
:1034300080B485B000AF78601A4BFB607B689B6CF2
:103440009B68D3ED007A9FED187AF4EEC77AF1EE1F
:1034500010FA0ADB7B689B6C9B6893ED007ADFEDCA
:10346000136AC7EE267AC7ED037A114B93ED007A03
:10347000D7ED037A67EE277A0D4BC3ED007A0C4B3C
:10348000D3ED007A9FED097A67EE877AFCEEE77A52
:1034900017EE902A7B68DA6400BF1437BD465DF8EA
:1034A000047B7047A4707D3F0000C6420000C84204
:1034B000B022002090B583B000AF78607B685B6E6F
:1034C0005B6807EE903AF8EE677ADFED1E6A87EEEA
:1034D000A67A7B689B6C9C68B0EE470AFEF7CCFE30
:1034E000F0EE407AC4ED007A7B689B6C9B68D3ED6C
:1034F000007AB0EE670A10F0DDFEF0EE407AFCEEE6
:10350000E77A17EE902A7B681A647B689B6C9B684D
:1035100008334FF000021A607B689B6C5B684FF0C9
:1035200000021A617B685B6C1B684FF000029A60B6
:103530007B685B6C1846FEF7CDFD00BF0C37BD46BF
:1035400090BD00BF00007A4680B582B000AF7860C1
:103550007B685A6C7B689B6C1B68D3ED007A7B6838
:103560009B6C1B6893ED017A7B689B6C5B68D3ED69
:10357000046AB0EE661AF0EE470AB0EE670A10462B
:10358000FEF72AFB7B685B6C1846FEF74FFB00BF1B
:103590000837BD4680BDFFFF90B583B000AF7860AF
:1035A0007B689C6C7B685B6C1846FEF725FD0246C9
:1035B0007B685B6E5B6807EE903AF8EE677ADFED4A
:1035C000146A87EEA67A7B685B6E5B6907EE903AB9
:1035D000F8EEE77ADFED0F6A67EEA67A9FED0E6AE6
:1035E000C7EE866A0D4BD3ED007AB0EE671AF0EEA7
:1035F000660AB0EE470A11462046FDF735F87B68AB
:103600009B6C1846FDF76AF800BF0C37BD4690BDAD
:1036100000007A4641F1833F0000C8C3B022002079
:1036200080B483B000AF78607B68D3F8982A7B6859
:10363000C3F8942A7B68D3F8A02A7B68C3F89C2A35
:103640007B685B6E5A687B68C3F8982A7B685B6E00
:103650005A697B68C3F8A02A7B68002283F8A42AF1
:103660007B68D3F8982A7B68D3F8943AD31AB3F5D9
:103670007A7F09DC7B68D3F8982A7B68D3F8943A80
:10368000D31A13F57A7F0FDA7B68012283F8A42A14
:103690007B68D3F8942A7B68C3F8982A7B68D3F8B0
:1036A0009C2A7B68C3F8A02A7B685B6E1B681B683A
:1036B000B4335B6840F6C312934209D97B685B6EF2
:1036C0001B681B68B4335B6841F26802934208D9F7
:1036D0007B6893F8A53A43F00103DAB27B6883F87C
:1036E000A52A00BF0C37BD465DF8047B704780B546
:1036F00082B000AF7860786800F008F8786800F071
:1037000029F800BF0837BD4680BDFFFF80B483B0F5
:1037100000AF78600D4B1B78DBB2012B0FD17B68BB
:103720009B6C9B68D3ED007A9FED097AF4EEC77A23
:10373000F1EE10FA00DC02E0044B00221A7000BF28
:103740000C37BD465DF8047B704700BFB8220020EF
:103750000080C74280B483B000AF78600E4B1B7806
:10376000DBB2012B12D17B685B6E5B680B4A934224
:1037700009D97B685B6E5B69B42B04DC7B685B6E8C
:103780005B69502B02DC044B00221A7000BF0C371F
:10379000BD465DF8047B7047B82200203F0501005C
:1037A00080B582B000AF78607B689B6C9B68D3ED7E
:1037B000007A9FED467AF4EEC77AF1EE10FA0EDB4E
:1037C0007B689B6C9B68D3ED007A7B689B6C9B68E5
:1037D0009FED3F7A77EE877AC3ED007A5EE07B68F3
:1037E0009B6C9B68D3ED007A9FED3A7AF4EEC77A32
:1037F000F1EE10FA0EDB7B689B6C9B68D3ED007AD0
:103800007B689B6C9B689FED347A77EE877AC3ED7B
:10381000007A43E07B689B6C9B68D3ED007A9FED58
:103820002F7AF4EEC77AF1EE10FA0EDB7B689B6C10
:103830009B68D3ED007A7B689B6C9B689FED287A30
:1038400077EE877AC3ED007A28E07B689B6C9B68F3
:10385000D3ED007A9FED237AF4EEC77AF1EE10FAF9
:103860000EDB7B689B6C9B68D3ED007A7B689B6C5E
:103870009B689FED1D7A77EE877AC3ED007A0DE0A5
:103880007B689B6C9B68D3ED007A7B689B6C9B6824
:103890009FED167A77EE877AC3ED007A7B689B6C92
:1038A0009B68D3ED007AB0EE670A10F003FDF0EEEE
:1038B000407A7B689B6C5B68FCEEE77A17EE902A97
:1038C0001A6000BF0837BD4680BD00BF0000C64279
:1038D000A69B443B0000C4426F12833B0000C242DF
:1038E000A69BC43B0000C042BC74133C52499D3AA5
:1038F00080B483B000AF786039607B683A689A60C2
:1039000000BF0C37BD465DF8047B704780B582B0C0
:1039100000AF7860786805F0A5FF00BF0837BD46A6
:1039200080BD80B584B000AFF860B9607A603B605C
:10393000FB68BA681A60FB6800225A60FB687A6804
:103940001A61FB683A685A61FB6803F57973184697
:1039500000F0F0F800BF1037BD4680BD80B582B0E2
:1039600000AF78600B467B807B6803F554737A88E0
:103970001146184601F070F97B6803F53A737A88AE
:103980001146184600F01DFC00BF0837BD4680BD3B
:1039900080B584B000AF78600B467B807B6803F510
:1039A0006E737A880121184601F0F5FD0346FB731A
:1039B000FA7B7B881946786800F004F800BF10375E
:1039C000BD4680BD80B584B000AF78600B467B807B
:1039D00013467B700023FB7338E0FA7B796813464B
:1039E0001B019B1ADB000B4470331B68D98BFB7BDC
:1039F00078685A1C13461B019B1ADB0003440433EE
:103A00001B8899421ED1FA7B13461B019B1ADB00CF
:103A100018337A6813447A787988184601F028FFB9
:103A20000120FFF773FFFB7B5A1C13461B019B1AF7
:103A3000DB0018337A6813447A787988184601F0E5
:103A400017FF00E000BFFB7B0233FB73FB7B052B02
:103A5000C3D900BF00BF1037BD4680BD80B584B05C
:103A600000AF78600B46FB707B6803F55473FA78FF
:103A70001146184601F098F90023FB730FE0FA7B1A
:103A800013461B019B1ADB0018337A681344FA783B
:103A90001146184601F036FFFB7B0133FB73FB7BBD
:103AA000052BECD90023FB720023BB7230E0BB7AFC
:103AB0009AB2FB78043B9BB29B009BB213449BB22F
:103AC0000533BB81FB78032B01D80023BB81FA7A35
:103AD00013461B019B1ADB0018337A681344BA891A
:103AE0001146184601F038FFFB7A5A1C13461B0199
:103AF0009B1ADB0018337A681344BA8911461846BA
:103B000001F02AFFFB7A0233FB72BB7A0133BB72EE
:103B1000FB7A052BCBD900BF00BF1037BD4680BD57
:103B200080B483B000AF786000BF0C37BD465DF84D
:103B3000047B704780B485B000AF78607B68002B51
:103B4000FCD00023FB6007E07A68FB681344002286
:103B50001A70FB680133FB60FB68072BF4DD7B68A0
:103B600000229A607B680022DA6000BF1437BD46ED
:103B70005DF8047B704780B487B000AF78600B4677
:103B80007B8000237B820023FB827B681B88BB82B7
:103B900022E0FA8ABB8A13445B107B827B685A68F6
:103BA0007B8ADB001344FB60FB681B887A889A429F
:103BB00001D17B8A27E0FB681B887A889A4208D269
:103BC0007B8ABB82BB8A002B06D0BB8A013BBB82AF
:103BD00002E07B8A0133FB82FA8ABB8A9A42D8D3FD
:103BE000FA8ABB8A9A420CD17B685A68FB8ADB004E
:103BF0001344FB60FB681B887A889A4201D1FB8AD8
:103C000001E04FF6FF7318461C37BD465DF8047B94
:103C1000704780B400AFFEE780B483B000AF786037
:103C20000B467B8013467B707B681B887A889A42A0
:103C30000DD27B884FF6FF72934208D07B685A689A
:103C40007B88DB0013449B787A789A4201D3002367
:103C50000BE07B685A687B88DB00134459687A78EC
:103C600013465B0013449B000B4418460C37BD46BB
:103C70005DF8047B704780B584B000AFF860B96030
:103C80007A60FB68002B08D0B968F86800F009F882
:103C90007968F86800F034F800E000BF1037BD46DE
:103CA00080BD80B584B000AF786039607B68002B40
:103CB00003D03B681B78072B02D9FFF7AAFF1CE053
:103CC0003B681A787B6883F834200023FB600DE0A2
:103CD0003A68FB689B0013445A687968FB680C33A8
:103CE0009B000B449A60FB680133FB607B6893F890
:103CF00034301A46FB689342EADB1037BD4680BD7C
:103D000080B588B000AF786039607A68D37843F0C6
:103D10008003D3700023FB770023BB6167E07A68E0
:103D2000BB690C339B0013441B897B827A68BB6997
:103D30000C339B0013449B7A7B747A68BB690C3309
:103D40009B001344DB7A3B747B8A19463868FFF783
:103D500012FF0346FB81FB894FF6FF72934203D1AA
:103D6000786800F051F849E07A7CFB891946386898
:103D7000FFF752FFB860BB68002B03D1786800F0F2
:103D800043F83BE000237B6125E0BB68DB881A46F3
:103D90007B6993420ADABB6819687A69FB7F0A4437
:103DA000796804339B000B445A6007E0FB7F154A97
:103DB0001268796804339B000B445A60FB7F01331F
:103DC000FB77FB7F082B03D9786800F01DF815E01E
:103DD0007B6901337B613B7C7A699A42D5DB7A68E7
:103DE000D3786FF3C713D370BB690133BB617B68B2
:103DF00093F834301A46BB69934290DB2037BD46B6
:103E000080BD00BF9C09002080B485B000AF786001
:103E10000023FB600BE0FB680A4A1A447968FB68E0
:103E200004339B000B445A60FB680133FB60FB6862
:103E3000072BF0DD00BF00BF1437BD465DF8047BE3
:103E4000704700BF9409002080B487B000AFF860CD
:103E5000B9601346FB800023FB820AE0FB8ABA6844
:103E60001A44FB8AF9680B4412781A70FB8A0133F2
:103E7000FB82FA8AFB889A42F0D300BF00BF1C374E
:103E8000BD465DF8047B704780B582B000AF7860B6
:103E9000034B1B687868984700BF0837BD4680BD54
:103EA0009009002080B483B000AF78607B68002266
:103EB000A3F84C2000BF0C37BD465DF8047B70476B
:103EC00080B582B000AF786039607B68802283F86B
:103ED00020207B682433394604221846FFF7B4FFBC
:103EE0007B68082283F828207B6818331846FFF780
:103EF000CBFF3B681946786800F004F800BF08372C
:103F0000BD4680BD80B582B000AF786039607B6807
:103F10003A689A657868FFF7C5FF7B6800225A7592
:103F20007B68002283F854207B68002283F860209D
:103F30007B68032283F8612000BF0837BD4680BD3F
:103F400080B487B000AFF860B9601346FB800023EF
:103F5000FB820AE0FB8ABA681A44FB8AF9680B44C0
:103F600012781A70FB8A0133FB82FA8AFB889A4224
:103F7000F0D300BF00BF1C37BD465DF8047B70471F
:103F800080B485B000AF78607B681B783B727B683B
:103F90005B787B723B8918461437BD465DF8047B1D
:103FA000704780B485B000AF78607B681B783B7247
:103FB0007B685B787B727B689B78BB727B68DB7805
:103FC000FB72BB6818461437BD465DF8047B70472A
:103FD00080B485B000AF786039603B68BB603A7AE6
:103FE0007B681A707B6801337A7A1A707B680233B7
:103FF000BA7A1A707B680333FA7A1A7000BF1437E2
:10400000BD465DF8047B704780B582B000AF786034
:10401000034B1B687868984700BF0837BD4680BDD2
:104020009009002080B483B000AF786039607B686D
:104030005A6A3B681340002B14BF01230023DBB2F4
:1040400018460C37BD465DF8047B704780B483B0DA
:1040500000AF78607B680122A3F84C2000BF0C37CA
:10406000BD465DF8047B704780B483B000AF7860D4
:104070007B680022A3F84C2000BF0C37BD465DF8DA
:10408000047B704780B483B000AF78600B467B80C0
:104090007B68B3F84C207B8813449AB27B68A3F802
:1040A0004C2000BF0C37BD465DF8047B704780B4E0
:1040B00083B000AF78607B68B3F84C207B68B3F8BE
:1040C0004E309A428CBF01230023DBB218460C37D6
:1040D000BD465DF8047B704780B483B000AF786064
:1040E0007B68B3F84C30002B14BF01230023DBB2F4
:1040F00018460C37BD465DF8047B704780B584B028
:1041000000AFF860B9607A60FB6801221A70FA6843
:1041100093694FF4C06161F31C039361FB6808224B
:1041200083F82820FB68002283F82920FA68536866
:104130004FF4B06161F31C035360FB6800225A75B1
:10414000FB6800229A85FB680022DA85FB68002262
:1041500083F83020BB68B3F86420FB685A86BB68DC
:104160009A6EFB685A63FB680022A3F84020FB6844
:10417000002283F84220FB6800225A64FB68002278
:104180009A64F868FFF770FFFB680022A3F84E20DE
:10419000FB687A681A65FB68002283F85420FB6884
:1041A00000229A65FB680022DA65FB68002283F82A
:1041B0006020FB68002283F8612000BF1037BD46F5
:1041C00080BD80B584B000AF78600B467B807B8873
:1041D0001946786800F00EF80346FB73FB7B002B52
:1041E00003D07B68FA7B83F8612000BF1037BD469F
:1041F00080BDFFFF80B584B000AF78600B467B8048
:104200007B681B7883F00103DBB2002B01D0012314
:104210008FE07B6893F86030002B01D1002388E0A9
:104220007868FFF759FF0346002B10D07B881946AA
:104230007868FFF727FF7868FFF739FF0346002B00
:1042400005D03E497868FFF75DFE032371E078688A
:1042500000F040FB034683F00103DBB2002B01D0EA
:10426000012366E00123FB737B685B7D002B04D197
:104270007B6893F85430002B5AD07B685B7D002B11
:1042800019D07868FFF7F0FE7B681B7B5B09DBB217
:10429000042B10D17B6810331846FFF782FE0246CC
:1042A0007B68DA657B6800225A757B68002283F898
:1042B000602003233DE07B6893F86030103B052BC2
:1042C00032D801A252F823F0E1420000ED42000092
:1042D000F942000005430000114300001D430000A7
:1042E000786800F02DF80346FB731EE0786800F054
:1042F00079F80346FB7318E0786800F001F903468B
:10430000FB7312E0786800F091F90346FB730CE050
:10431000786800F0ADF90346FB7306E0786800F0BA
:1043200049FA0346FB7300E000BF7B6800225A7520
:10433000FB7B18461037BD4680BD00BF000004055A
:1043400080B584B000AF7860786800F0EFFA7B68E1
:104350005B6CDA887B68DA857B68DB8D042B1CD884
:104360007B68DB8DC3F104039B005BB203F00C039D
:104370005BB243F023035BB2BB737B68BA7B83F809
:1043800020207B6803F124007B685B6C19687B68E4
:10439000DB8D1A46FFF7D4FD0EE02123FB737B680B
:1043A000FA7B83F820207B6803F124027B68DB8D95
:1043B00019461046FFF70CFE7B6818331846FFF7C6
:1043C00023FE7868FFF742FE7B68002283F85420C2
:1043D0007B68112283F86020012318461037BD4600
:1043E00080BDFFFF80B586B000AF78607B681B7B27
:1043F000FB75FB7D5B09DBB2032B05D03E4978687A
:10440000FFF75EFD032373E07B680D331846FFF76B
:10441000B7FD0346BB827B68DB7BFB747B68B3F82C
:104420004030BA8A9A4205D17B6893F84230FA7CD0
:104430009A4205D031497868FFF742FD032357E0DF
:104440007B68DB8D042B05D87B68002283F8602015
:1044500002234DE07B685B6C1B68FB607B68DB8D37
:104460001A467B689B8D07339A4222DC7B68DB8D82
:10447000BB727B682133BA7A92B2F9681846FFF7AB
:104480005FFD7B68DA8D7B689A857B6893F83030B6
:104490005AB2BB7AC3F107035B005BB213435BB252
:1044A00043F001035BB27B727B687A7A83F8202049
:1044B00011E07B6821330722F9681846FFF740FDB9
:1044C0007B6807229A857B6893F83030FB727B68A3
:1044D000FA7A83F820207868FFF7B8FD7B681833F4
:1044E0001846FFF791FD7B68122283F860200123B4
:1044F00018461837BD4680BD23000A06430004064F
:1045000080B586B000AF78607B681B7BFB75FB7D58
:104510005B09DBB2012B05D042497868FFF7D0FC7C
:1045200003237BE0FB7D03F010037A6892F83020D0
:10453000934205D03C497868FFF7C2FC03236DE045
:104540007B6893F8303083F01003DAB27B6883F82D
:1045500030207B68DA8D7B689B8D9A4205D87B681A
:10456000002283F86020022358E07B685B6C1B68A4
:104570007A68928D13443B617B68DB8D1A467B68B9
:104580009B8D07339A4227DC7B68DB8DDAB27B6830
:104590009B8DDBB2D31ABB737B682133BA7B92B29B
:1045A00039691846FFF7CCFC7B68DA8D7B689A8501
:1045B0007B6893F830305AB2BB7BC3F107035B00D2
:1045C0005BB213435BB243F001035BB27B737B6866
:1045D0007A7B83F8202014E07B6821330722396935
:1045E0001846FFF7ADFC7B689B8D07339AB27B685A
:1045F0009A857B6893F83030FB737B68FA7B83F88D
:1046000020207868FFF722FD7B6818331846FFF7F3
:10461000FBFC7B68122283F86020012318461837C0
:10462000BD4680BD23000A060000030580B584B0A6
:1046300000AF7860786800F079F94023FB737B68FD
:10464000FA7B83F820207B6818331846FFF7DCFCE0
:104650007868FFF7FBFC7B68002283F854207B68B6
:10466000142283F86020012318461037BD4680BD10
:1046700080B584B000AF78607B681B7BFB73FB7BED
:104680005B09DBB2022B05D046497868FFF718FCBE
:10469000032382E07B680D331846FFF771FC034665
:1046A000BB817B68DB7BFB727B68B3F84030BA89E7
:1046B0009A4205D17B6893F84230FA7A9A4205D043
:1046C00039497868FFF7FCFB032366E0FB7B03F0C6
:1046D0000303032B2CD1FB7B9B109BB203F0030342
:1046E0009BB2C3F104039AB27B68DA857B685B6C8A
:1046F000DA887B68DB8D9A4205D22C497868FFF70F
:1047000001FC032349E07B685B6C18687B6803F15C
:1047100010017B68DB8D1A46FFF712FC7B68DA8D8F
:104720007B689A857B68002283F86020022334E04E
:10473000FB7B03F00303012B2AD17B68103318465F
:10474000FFF72FFC03469AB27B68DA857B685B6CC7
:10475000DA887B68DB8D9A4205D214497868FFF7C6
:10476000AFFB032319E07B6800229A857B686022F7
:1047700083F820207868FFF769FC7B6818331846B7
:10478000FFF742FC7B68152283F86020012304E0D8
:1047900007497868FFF794FB032318461037BD4696
:1047A00080BD00BF23000A0643000406050004057F
:1047B0001000070680B586B000AF78607B681B7B71
:1047C000FB75FB7D5B09DBB2002B05D03F497868A8
:1047D000FFF776FB032374E0FB7D03F010037A6898
:1047E00092F83020934205D039497868FFF768FB8A
:1047F000032366E07B6893F8303083F01003DAB26D
:104800007B6883F830207B685B6C1B687A68928DCC
:1048100013443B617B68DB8D1A467B689B8D0733B5
:104820009A4222DCFB7D03F00103002B06D14FF0FE
:1048300000617868FFF744FB032342E07B6803F1E3
:104840000D017B68DA8D7B689B8DD31A9BB21A466B
:104850003869FFF775FB7B68DA8D7B689A857B6822
:10486000002283F8602002232BE0FB7D03F001038C
:10487000002B06D04FF000617868FFF721FB03237F
:104880001FE07B680D33072219463869FFF758FB94
:104890007B689B8D07339AB27B689A857B6893F817
:1048A000303043F06003FB737B68FA7B83F8202091
:1048B0007B6818331846FFF7A7FB7868FFF7C6FB3D
:1048C000012318461837BD4680BD00BF23000A06E5
:1048D0000000030580B584B000AF78607B681B6D75
:1048E000DA8B7B685B8E9A420CD17B681A6D7B6891
:1048F0005B6B19461046FFF795FB0346002B01D072
:10490000012300E00023FB73FB7B03F00103FB7337
:104910007B685B8E002B02D0FB7B002B01D0012338
:1049200000E0002318461037BD4680BD80B483B038
:1049300000AF78607B68002283F830207B6800221B
:104940009A857B68B3F84030DAB27B6883F821201F
:104950007B68B3F840301B0A9BB2DAB27B6883F8FD
:1049600022207B6893F842207B6883F8232000BFD5
:104970000C37BD465DF8047B704780B487B000AF4C
:10498000F860B9601346FB800023FB820AE0FB8AD3
:10499000BA681A44FB8AF9680B4412781A70FB8AC9
:1049A0000133FB82FA8AFB889A42F0D300BF00BF32
:1049B0001C37BD465DF8047B704780B485B000AFFE
:1049C00078607B681B783B727B685B787B723B8985
:1049D00018461437BD465DF8047B704780B485B037
:1049E00000AF78607B681B783B727B685B787B727A
:1049F0007B689B78BB727B68DB78FB72BB68184670
:104A00001437BD465DF8047B704780B485B000AFB5
:104A1000786039603B68BB603A7A7B681A707B6863
:104A200001337A7A1A707B680233BA7A1A707B681B
:104A30000333FA7A1A7000BF1437BD465DF8047B61
:104A40007047FFFF80B582B000AF7860034B1B68F2
:104A50007868984700BF0837BD4680BD90090020A0
:104A600080B483B000AF78600B467B8013467B70C8
:104A70007B681B887A889A420DD27B884FF6FF723A
:104A8000934208D07B685A687B88DB0013449B788C
:104A90007A789A4201D300230BE07B685A687B88BE
:104AA000DB00134459687A7813465B0013449B007B
:104AB0000B4418460C37BD465DF8047B704780B444
:104AC00083B000AF78607B680122A3F84C2000BF60
:104AD0000C37BD465DF8047B704780B483B000AFEF
:104AE00078607B680022A3F84C2000BF0C37BD46DD
:104AF0005DF8047B704780B483B000AF78600B46EC
:104B00007B807B68B3F84C207B8813449AB27B6827
:104B1000A3F84C2000BF0C37BD465DF8047B7047FE
:104B200080B483B000AF78607B68B3F84C207B68BA
:104B3000B3F84E309A428CBF01230023DBB21846F3
:104B40000C37BD465DF8047B704780B483B000AF7E
:104B500078607B68B3F84C30002B14BF012300232E
:104B6000DBB218460C37BD465DF8047B704780B554
:104B700084B000AFF860B9607A603B60FB680122E6
:104B80001A70BB6893F85C3003F5B06323F06041A2
:104B9000FA68936961F31C039361FB68082283F848
:104BA0002820FB68002283F82920BB6893F85C303A
:104BB00003F5C06323F06041FA68536861F31C0396
:104BC0005360FB6800221A75FB6800225A75FB6867
:104BD00000229A85FB680022DA85FB68002283F8B0
:104BE0003020BB68B3F85E20FB685A86FB68002261
:104BF0001A87FB683A68DA63FB680022A3F8402052
:104C0000FB68002283F84220FB6800225A64FB689C
:104C100000229A64F868FFF760FFBB68B3F8602071
:104C2000FB68A3F84E20FB687A681A65FB680022CF
:104C300083F85420FB6800229A65FB680022DA653D
:104C4000FB68002283F86020FB68002283F8612063
:104C500000BF1037BD4680BD80B582B000AF786020
:104C60000B467B807B881946786800F009F803467C
:104C70001A467B6883F8612000BF0837BD4680BDB7
:104C800080B584B000AF78600B467B807B681B7872
:104C900083F00103DBB2002B01D001237DE07868B3
:104CA000FFF753FF0346002B10D07B881946786826
:104CB000FFF721FF7868FFF733FF0346002B05D08D
:104CC00038497868FFF71EF9032366E00123FB7378
:104CD0007B685B7D002B04D17B6893F85430002BFC
:104CE0005AD07B685B7D002B26D07868FFF7F5FEF5
:104CF0007B681B7B5B09DBB2042B10D17B68103314
:104D00001846FFF76BFE02467B68DA657B68002277
:104D10005A757B68002283F8602003233DE07B689E
:104D200093F86030002B07D1786800F0A1F80346B3
:104D3000032B01D1032330E07B6893F86030113BF3
:104D4000042B25D801A252F823F000BF614D0000CA
:104D50006D4D0000914D0000794D0000854D000023
:104D6000786800F0E9F80346FB7312E0786800F019
:104D7000ADF90346FB730CE0786800F087FA034650
:104D8000FB7306E0786800F0DDFA0346FB7300E091
:104D900000BF7B6800225A75FB7B18461037BD4662
:104DA00080BD00BF0000040580B485B000AF78600E
:104DB0000B46FB707B681B78FB737B6800221A70C4
:104DC000FB7803F07F03D9B27A68137E61F30603A0
:104DD0001376FB7803F07F03D9B27A68137961F315
:104DE000060313717B68FA7B1A7000BF1437BD4647
:104DF0005DF8047B704780B584B000AF78607B6855
:104E00000D331846FFF7D9FD03461A467B68A3F811
:104E100040207B68DA7B7B6883F842207B68DA6B12
:104E20007B68B3F8403019461046FEF7A4FE0346EF
:104E30001A467B681A877B681B8F4FF6FF72934276
:104E400001D1002310E07B68D86B7B68198F7B68E9
:104E500093F842301A46FFF703FEF860FB68002B18
:104E600001D1002300E0FB6818461037BD4680BD25
:104E700080B584B000AF78607B681B7B5B09FB73F7
:104E8000FB7B012B08D0FB7B022B05D027497868E0
:104E9000FFF716F8032345E07868FFF7ACFF0246FA
:104EA0007B685A647B685B6C002B05D1204978686D
:104EB000FFF706F8032335E0FB7B012B20D17B684D
:104EC0005B6C1B7903F00203002B05D1194978684C
:104ED000FEF7F6FF032325E07B685B6C9B68002BE5
:104EE00003D17B685B6C1B6803E07B685B6C9B6831
:104EF0001B687A6893647B68112283F8602010E055
:104F00007B685B6C1B7903F00103002B05D1094919
:104F10007868FEF7D5FF032304E07B68142283F84A
:104F20006020012318461037BD4680BD01000405EE
:104F3000110009060000010680B584B000AF78605A
:104F40007B6893F85430002B2DD07B685B6C9B689A
:104F50005B6898470346BB73BB7B032B11D17B680F
:104F6000002283F854207868FFF7B7FD7B68183378
:104F70001846FFF767FD7B68002283F86020022354
:104F80009AE0BB7B022B0CD17B68002283F8542073
:104F90007868FFF7A2FD4A497868FEF791FF03237E
:104FA0008AE0012388E0786800F066FA7B681B7B62
:104FB000FB73FB7B03F00303032B48D1FB7B9B10AC
:104FC0009BB203F003039BB2C3F104039AB27B6864
:104FD000DA857B685B6CDA887B68DB8D9A420BD262
:104FE0007B68986C7B6803F110017B685B6CDB88E5
:104FF0001A46FFF7C2FC09E07B68986C7B6803F1F6
:1050000010017B68DB8D1A46FFF7B7FC7B68DA8DF1
:105010007B689A857B68602283F820207B685B6CC4
:105020009B68002B0AD17B6818331846FFF70AFDEE
:105030007B68002283F8602002233DE07868FFF758
:105040003EFD7B68012283F85420012334E0FB7B82
:1050500003F00303012B2AD17B6810331846FFF7B6
:10506000BDFC03469AB27B68DA857B685B6CDA88A4
:105070007B68DB8D9A4205D212497868FEF720FFE3
:10508000032319E07B6800229A857B68602283F8FD
:1050900020207868FFF713FD7B6818331846FFF768
:1050A000D1FC7B68122283F86020012304E00649CA
:1050B0007868FEF705FF032318461037BD4680BD0C
:1050C00021000008050004051000070680B586B021
:1050D00000AF78607B6893F85430002B2DD07B684C
:1050E0005B6C9B685B68984703467B737B7B032BF9
:1050F00011D17B68002283F854207868FFF7EDFC1B
:105100007B6818331846FFF79DFC7B68002283F804
:1051100060200223B0E07B7B022B0CD17B68002255
:1051200083F854207868FFF7D8FC55497868FEF773
:10513000C7FE0323A0E001239EE07B681B7BFB7579
:10514000FB7D5B09DBB2002B05D04E497868FEF78A
:10515000B7FE032390E0FB7D03F010037A6892F81A
:105160003020934205D048497868FEF7A9FE032312
:1051700082E07B689B6C7A68928D13443B617B680C
:10518000DB8D1A467B689B8D07339A423FDCFB7DA3
:1051900003F00103002B06D14FF000617868FEF7A1
:1051A0008FFE032368E07B6803F10D017B68DA8DD5
:1051B0007B689B8DD31A9BB21A463869FFF7DDFBDB
:1051C0007B68DA8D7B689A857B6893F8303043F092
:1051D0002003BB737B68BA7B83F820207B685B6C01
:1051E0009B68002B0AD17B6818331846FFF72AFC0E
:1051F0007B68002283F8602002233DE07868FFF797
:105200005EFC7B68012283F85420012334E0FB7D9F
:1052100003F00103002B06D04FF000617868FEF721
:105220004FFE032328E07B680D33072219463869B7
:10523000FFF7A3FB7B689B8D07339AB27B689A8547
:105240007B6893F8303043F02003FB737B68FA7B74
:1052500083F820207868FFF732FC7B681833184603
:10526000FFF7F0FB7B6893F8303083F01003DAB27D
:105270007B6883F83020012318461837BD4680BD6F
:105280002100000823000A060000030580B584B051
:1052900000AF7860786800F0EFF87B685B6CDA88C4
:1052A0007B68DA857B68DB8D042B2AD87B68DB8DF5
:1052B000C3F104039B005BB203F00C035BB243F049
:1052C00043035BB2BB737B68BA7B83F820207B68A7
:1052D00003F124007B685B6C19687B68DB8D1A46E0
:1052E000FFF74BFB7B6818331846FFF7ABFB7B6877
:1052F000DA8D7B689A857B68002283F86020022320
:105300001BE04123FB737B68FA7B83F820207B68DA
:1053100003F124027B68DB8D19461046FFF775FB0D
:105320007B6818331846FFF78DFB7868FFF7C7FBDB
:105330007B68152283F86020012318461037BD468C
:1053400080BDFFFF80B586B000AF78607B681B7BB7
:10535000FB75FB7D5B09DBB2032B05D04449786804
:10536000FEF7AEFD03237EE0FB7D03F010037A68B9
:1053700092F83020934205D03E497868FEF7A0FDB0
:10538000032370E07B685B6C1B687A68928D134422
:105390003B617B68DB8D1A467B689B8D07339A42A5
:1053A0003ADC7B68DB8DDAB27B689B8DDBB2D31A8B
:1053B000BB737B682133BA7B92B239691846FFF719
:1053C000DCFA7B68DA8D7B689A857B6893F83030ED
:1053D0005AB2BB7BC3F107035B005BB213435BB202
:1053E00043F001035BB27B737B687A7B83F82020F8
:1053F0007B6818331846FFF725FB7B6893F830303D
:1054000083F01003DAB27B6883F830207B680022D7
:1054100083F86020022326E07B6821330722396964
:105420001846FFF7AAFA7B689B8D07339AB27B6810
:105430009A857B6893F83030FB737B68FA7B83F83E
:1054400020207B6818331846FFF7FCFA7868FFF7CE
:1054500036FB7B6893F8303083F01003DAB27B6858
:1054600083F83020012318461837BD4680BD00BFA1
:1054700023000A060000030580B483B000AF786003
:105480007B68002283F830207B6800229A857B6845
:105490005A7B7B6883F821207B689A7B7B6883F842
:1054A00022207B68DA7B7B6883F8232000BF0C37DF
:1054B000BD465DF8047B704780B485B000AF78606E
:1054C0007B681B783B727B685B787B723B891846F4
:1054D0001437BD465DF8047B704780B485B000AFDB
:1054E00078600B467B807B883B813A7A7B681A70B8
:1054F0007B6801337A7A1A7000BF1437BD465DF8B5
:10550000047B704780B582B000AF7860034B1B68A6
:105510007868984700BF0837BD4680BD90090020D5
:1055200080B483B000AF786039607B6803221A745E
:105530007A683B68043393E8030082E803007B68E1
:1055400000225A743B689A897B689A823B68DA89A0
:105550007B68DA823B68B3F858207B681A833B6823
:1055600093F85A207B689A767B6800229A837B683E
:105570000022DA837B68002283F820207B680022E7
:105580005A627B68002283F8282000BF0C37BD4692
:105590005DF8047B704780B584B000AF78600B463F
:1055A000FB7013463B800023FB737B68DB7823F0A2
:1055B0007F03DBB2002B70D17B689A8B3B8813444E
:1055C000BB817B689B8BBA899A4202D97B68BA8976
:1055D0009A837B68DB7803F04003DBB2002B33D087
:1055E0007B689A8B7B689B8A9A424AD37B68DB8B69
:1055F00001339AB27B68DA837B68DA8B7B681B8B1A
:105600009A4218D97B680122DA837B6893F82030AC
:105610000133DAB27B6883F820207B6893F820207E
:105620007B689B7E9A4203D97B68002283F8202006
:10563000786800F051F8786800F034F80123FB73C3
:105640007B6800229A831CE07B685B7C002B18D06F
:105650007B6808331846FFF72FFF03461A467B681E
:10566000DA837B689A7A7B6883F82020786800F078
:1056700033F87B6800229A830123FB737B68002246
:105680005A747B689A8B7B68DB8A9A4294BF0123A9
:105690000023DAB27B6883F82820FB7B184610379A
:1056A000BD4680BD80B582B000AF78607B6803F1F5
:1056B00008027B68DB8B19461046FFF70EFF7B68FC
:1056C00093F820207B689A727B681846FFF71AFFD0
:1056D00000BF0837BD4680BD80B483B000AF78609E
:1056E0007B6893F820301A46012393401A467B6862
:1056F0005A6200BF0C37BD465DF8047B7047FFFF60
:1057000080B582B000AF7860034B1B68786898471B
:1057100000BF0837BD4680BD9009002080B400AFAF
:10572000FEE780B483B000AF786039607B685A6A66
:105730003B681340002B14BF01230023DBB2184643
:105740000C37BD465DF8047B704780B584B000AF70
:10575000F860B9607A603B603A687968F868FEF78B
:105760008AFABB691A68FB68DA65BB691A89FB6843
:10577000A3F86420BB695A89FB68A3F86620BB695B
:105780009A89FB68A3F86820BB699A7BFB6883F859
:105790006A20BB691A69FB68DA66FB68DA6DFB6828
:1057A0001A60FB6808221A74FB6800225A74FB68AE
:1057B000BA689A65FB68B3F86830DAB2FB6883F8B8
:1057C0007020FB68B3F86630DAB2FB6883F87120AA
:1057D000FB68002283F87220FB683A7F83F873200D
:1057E000FB683A6A5A673B7F022B05D13B6A002B64
:1057F00007D1FFF793FF04E0BB69002B01D1FFF74E
:105800008DFF00BF1037BD4680BD80B584B000AFAE
:1058100078607B6893F87330022B0AD17B685B6FEA
:105820007A680832104698477B681846FFF768FF89
:105830001AE00023FB7310E07B6803F11402FB7B8A
:105840009B0013441A687B6803F10801FB7B0B443F
:1058500012781A70FB7B0133FB73FB7B072BEBD9B0
:105860007B681846FFF74CFF00BF1037BD4680BD70
:1058700080B582B000AF78600B467B8013467B70AA
:105880007B68DB7823F07F03DBB2002B36D17B68AB
:10589000B3F864304FF6FF72934208D17B6893F8F7
:1058A0007230002B2AD07868FFF7AFFF26E07B78B4
:1058B000002B23D07B689B6DDA8B7B68B3F8643058
:1058C0009A420ED17B689A6D7B68DB6E1946104652
:1058D000FFF727FF0346002B03D07868FFF795FFFB
:1058E0000CE07B68B3F86430002B07D17B6893F839
:1058F0007230002B02D07868FFF787FF00BF0837AF
:10590000BD4680BD80B485B000AF78600B46FB70AB
:105910007B68DB78C3F3C013DBB2002B14BF012319
:105920000023FB737A68D37843F08003D370FB784D
:1059300003F07F03D9B27A68137861F3060313701A
:105940007A68D378F97B61F3C713D37000BF14373B
:10595000BD465DF8047B704780B485B000AF7860C9
:105960000B467B807B68DB78C3F3C013DBB2002B74
:1059700014BF01230023FB737A68D37843F08003BC
:10598000D3707B687A88A3F864207A68D378F97B2F
:1059900061F3C713D37000BF1437BD465DF8047BB5
:1059A000704780B582B000AF78607B681B6978680B
:1059B000984700BF0837BD4680BD80B582B000AFB4
:1059C00078607B685B697868984700BF0837BD4698
:1059D00080BD80B586B000AFB96011461A46034657
:1059E000FB810B46BB811346FB800023FB82BA89F7
:1059F000FB89B9681846FAF7C1FC0346FB82FA8AAC
:105A0000FB8813449BB21BB218461837BD4680BDB5
:105A100080B582B000AF78607868FFF7C2FF7B681E
:105A200098897B6819687B689A887B68B3F9063027
:105A3000FFF7CFFF0346064A82FB03129210DB17E3
:105A4000D31A1AB27B685A8100BF0837BD4680BDA1
:105A50006766666680B582B000AF78607868FFF7E9
:105A6000ACFF00BF0837BD4680BD80B584B000AF35
:105A700078607B685B68786898470346FB737B684F
:105A8000FA7B1A70FB7B012B08D17B685B69092BC1
:105A900004D87B685B695A1C7B685A61FB7B002BCE
:105AA00013D17B685B69092B0FD97B68DB685A1CB3
:105AB0007B68DA607B68DA687B689B689A4208D307
:105AC0007B689A687B68DA6003E07B680022DA60B2
:105AD00000BF00BF1037BD4680BD80B485B000AFA9
