:020000021000EC
:10000000A09B002005ED01004DEB010001ED01007A
:1000100001ED010001ED010001ED010001ED010024
:1000200000000000000000000000000001ED0100E1
:1000300001ED01000000000001ED010001ED0100F3
:10004000E9E1010099E2010091E3010099E2010078
:1000500091E30100FDCF010009D10100D9D10100D8
:100060006DD20100C9E90100F9C7010021C70100F3
:1000700099C80100D9C8010001D601007DE5010041
:1000800001D6010001D60100F9DA01008DDA010084
:1000900039C10100A9C1010051C20100A5C201007E
:1000A00001D6010000000000000000000000000078
:1000B0000000000000000000000000000000000040
:1000C0000000000000000000000000000000000030
:1000D0000000000000000000000000000000000020
:1000E0000000000000000000000000000000000010
:1000F0000000000000000000000000000000000000
:1001000000000000000000000000000000000000EF
:1001100000000000000000000000000000000000DF
:1001200000000000000000000000000000000000CF
:1001300000000000000000000000000000000000BF
:1001400000000000000000000000000000000000AF
:10015000000000000000000000000000000000009F
:10016000000000000000000000000000000000008F
:10017000000000000000000000000000000000007F
:10018000000000000000000000000000000000006F
:10019000000000000000000000000000000000005F
:1001A000000000000000000000000000000000004F
:1001B000000000000000000000000000000000003F
:1001C000FFFFFFFFFFFFFFFFFFFFFFFFFFFFFFFF3F
:1001D000FFFFFFFFFFFFFFFFFFFFFFFFFFFFFFFF2F
:1001E000FFFFFFFFFFFFFFFFFFFFFFFFFFFFFFFF1F
:1001F000FFFFFFFFFFFFFFFFFFFFFFFFFFFFFFFF0F
:1002000010B5054C237833B9044B13B1044800E012
:1002100000BF0123237010BD581B00200000000008
:10022000485E020008B5034B1BB10349034800E0D8
:1002300000BF08BD000000005C1B0020485E0200FB
:1002400002440139824200D1704712F8013D01F8A1
:10025000013FF7E7F0B500240A2785B0CDE9004457
:10026000CDE902440D460F49661C04F1100309282C
:10027000F2B26B440CD8095C684603F8101C29469E
:10028000FFF7DEFF002230462B195A7005B0F0BD93
:10029000B0FBF7F407FB1400085C03F8100C2046D1
:1002A0001446E1E7303B0200021E08B503DBBDE85F
:1002B0000840FFF7CFBF2D23504201F8013BFFF765
:1002C000C9FF013008BD70B50025013A12B2954250
:1002D000ABB202DD2B4698B270BD541B04EBD47454
:1002E00003EB64039CB21BB231F813608642F2D078
:1002F0008BBF013404F1FF3225B212B2E7E7B5EE4D
:10030000C00AF1EE10FA48BFB1EE400A7047FFFF95
:1003100038B517A5D5E900452DED048BB7EE008A59
:10032000F0EE408AB0EE489AF6EE009A28EE087A8F
:10033000C7EE287A77EEC97AF5EEC07AF1EE10FAB8
:1003400048BFF1EE677A17EE900A0EF0A5FE22463E
:100350002B460EF06DFF20B9B0EE480ABDEC048BC1
:1003600038BD88EE880A30EE088A28EE298ADDE753
:100370002D431CEBE2361A3FF7EE007A20EE007AAE
:1003800030EE270AF6EE007A07EE270A7047FFFFE5
:10039000B5EEC00AF1EE10FA03D405DDB7EE000A9F
:1003A0007047BFEE000A70479FED010A704700BF1B
:1003B00000000000F0B585B004AC04E90300694614
:1003C00081E80C009DF80D309DF80C10144611FBCF
:1003D00003F16FF0404601230A9D8B4201DD05B019
:1003E000F0BD9A1905EB820700EB820C04EB820248
:1003F000DCED007A92ED007A77EE877A0133C7ED73
:10040000007ADBB2E9E7F0B585B004AC04E903009B
:10041000694681E80C009DF80D309DF80C101446DB
:1004200011FB03F16FF0404601230A9D8B4201DD71
:1004300005B0F0BD9A1905EB820700EB820C04EBC6
:100440008202DCED007A92ED007A77EEC77A013312
:10045000C7ED007ADBB2E9E77FB504AC04E903003D
:10046000694681E80C009DF80D309DF80C1014468B
:1004700011FB03F16FF0404501238B4201DD04B015
:1004800070BD5A1900EB8206366804EB8202013314
:100490001660DBB2F1E7FFFF7FB504AC04E90300AF
:1004A000694681E80C009DF80C309DF80D1014464B
:1004B000994238BF19469FED0B0A01236FF0404562
:1004C0008B4201D904B070BD5A1900EB820604EBCF
:1004D000820296ED007AD2ED007A013307EE270A08
:1004E000DBB2EDE7000000007FB504AC04E90300D7
:1004F000694681E80C009DF80D309DF80C101446FB
:1005000011FB03F16FF0404501238B4201DD04B084
:1005100070BD5A1904EB820600EB8202D2ED007A1C
:1005200067EE807A0133C6ED007ADBB2EDE7FFFFBC
:100530002DE9F04F89B004AC84E803009DF84D60CC
:100540009DF84C0002A98DF81C0010FB06F081E814
:100550000C0080009DF815809DF80D900FF0F0F9CB
:10056000012405466FF04047049B9DF814B0DDF868
:1005700008A00093A34530D3631E03FB06FC03FBD6
:1005800008FE012320E0511E09FB013139440AEB2A
:10059000810101910EEB02000099384401EB8000CB
:1005A000019990ED007AD1ED006A46EE877A01322A
:1005B000D2B29045E7D20CEB03023A4405EB82023B
:1005C000C2ED007A0133DBB2994502D20134E4B2C4
:1005D000D0E7DFED097A0122EBE706958DF81D6083
:1005E00012AB08A90CCB11E90300FFF735FF09B0E6
:1005F000BDE8F04F0FF0ACB9000000002DE9F04F5E
:1006000087B006AC04E9030002A981E80C00009061
:10061000002301209DF815709DF80DC09DF845E060
:10062000129D9DF81490DDF84080019281454ED3D3
:10063000441E012204FB07FB013B10E00BEB020A06
:10064000009E0AF1804A0AF1FF3A06EB8A0ADAF8BC
:1006500000A005EB81010132C1F800A0D2B2D1188F
:100660009742C9B2EAD2012204FB0CFA01395318AD
:100670009445DBB20CD2012204FB0EF403F1FF3AE5
:1006800002EB0A039645DBB214D20130C0B2CDE7CB
:100690000AEB020B019E0BF1804B0BF1FF3B06EBCB
:1006A0008B0BDBF800B005EB83030132C3F800B01D
:1006B000D2B2DCE7A11801F18041013908EB8101D8
:1006C000096805EB830301321960D2B2D8E707B09D
:1006D000BDE8F08F82B02DE9F34102AC04E90300DC
:1006E0000746002601216FF0404E9DF804C0099393
:1006F0008C4516D301EB0E05002407EB850505E0BC
:10070000D5F8008003EB8000C0F800803019013478
:100710005FFA84F84245C0B2F2D201310646C9B24E
:10072000E6E702B0BDE8F04102B070472DE9F04FB6
:100730008BB006AE86E8030004A981E80C009DF8A2
:1007400014709DF81550804617FB05F080000FF0DF
:10075000F7F8044600B9FEE7089096E80300012682
:100760008DF824708DF825500AAB13E90C00FFF7C3
:1007700073FE6B1C9B000393B7425AD202230026E0
:10078000AD00D8B2874262D2DDE904230AA911E99B
:100790000300FFF761FE20460BB0BDE8F04F0FF0FD
:1007A000D7B8F9EC017A4FF0000CDDF808B004EB93
:1007B000810E0CF1010C5FFA8CF39A420EF1040EDB
:1007C0002BD8D0ED006A87EEA67AAAEC017A039BBB
:1007D0000132D2B2184429449642E2D8019B6B43BD
:1007E000F21802F18042013A4FEA820908EB8202D4
:1007F00092ED000A002204EB83030132D1B28E4253
:1008000003F1040310D8FFF77AFDFFF781FDA1443F
:10081000013689ED000AF6B2AEE7FBEC016A1EED87
:10082000017A46EEC77AC4E753ED017A07EEE70A8C
:10083000E3E7731E05FB03F204EB820A08EB82096F
:100840002046002101220193CDF808A0C4E701222F
:1008500004EB830101325FFA82FC604541F8046CCD
:100860002944F7D801338CE7002210B5044610461E
:10087000A15CA1F13003092B0BD8A0F13003032AAE
:1008800001EB030002F1010218BF0001042AEFD1BD
:1008900010BDA1F14103052B02D8A0F13703EEE70B
:1008A000A1F16103052B02D8A0F15703E7E700206F
:1008B000EEE7FFFF2DE9F84F0A688B6880465D1C64
:1008C000D018D35C8A46222B154440F0DD802F4699
:1008D00000234C68B91AA14280F0D68039782229C9
:1008E0000ED1C3F10103381ADAF8102018449047EA
:1008F0008346002800F0C8800446DFF898910FE096
:100900005C2905D10137B91A8C4240F2BD80013310
:100910000137DFE72B785C2B12D0013504F8013B5F
:10092000BD42F7D30023237010230120C8E9033B05
:10093000DAF80030FB1A0133CAF80830BDE8F88F46
:100940007A1B002A0DDD6B78752B0AD86D2B12D817
:10095000622B2BD026D82F2B29D05C2B27D0222BF3
:1009600025D05846DAF814309847DAF80000281AEB
:10097000CAF808008BE06E3B072BF2D801A151F8B2
:1009800023F000BFB90901006309010063090100F8
:1009900063090100BD09010063090100C1090100EB
:1009A000C5090100662BDCD10C2300E0082304F804
:1009B000013B02231D44B3E70A23F8E70D23F6E7C2
:1009C0000923F4E7052ACCDDA81CFFF74DFFA0F5AD
:1009D0005C43B3F5806F0646C3D3A0F55843B3F527
:1009E000806F2DD2AB1DFB1A052BBADDAB795C2BCA
:1009F000B7D1EB79752BB4D105F10800FFF734FFBF
:100A0000A0F55C43B3F5806FABD20C2309EA8626D0
:100A1000C0F30900304300F580364FF0F00C04209D
:100A200000F1FF3E54FA8EFEA645F2B224D1012811
:100A300014BF42EA0C0202F07F0222700444B9E7BC
:100A40007F280AD9B0F5006F0CD3B0F5803F0ED3E4
:100A5000B0F5881F85D20623DFE706234FF0000C90
:100A60000120DDE706234FF0C00C0220D8E7062363
:100A70004FF0E00C0320D3E702F03F0262F07F0169
:100A80000EF80119B609CFE7002D7FF46EAF0020F4
:100A900054E700BF00FC0F0010B528B1016889B110
:100AA000D0E901329A4202D310BD013282608268DD
:100AB000934203D98C5C202CF7D9F5E7F4D1013BA4
:100AC0008360F1E70846EFE738B5044638B10068BF
:100AD00028B1A56828440FF098F92844A06038BDD3
:100AE00070B50446B8B1056865B1436813B1826852
:100AF000934210D900290EDBA2684E1C1644B34263
:100B000002D31544284670BD236923B9B6F1804F3E
:100B100003D3002E0FDA0025F4E77600236A6BB1C9
:100B20002846314698470546B0B9E369206898479A
:100B3000C4E90055E6E76FF00046EFE73046A369E9
:100B4000984705460028F0D0A268216801320EF0CF
:100B500017FFE36920689847A368C4E900561D445D
:100B6000D0E7FFFFF8B50D460446002834D0002931
:100B700031D08468FAB9194E74B3236AC3B1AB4259
:100B800021D005F1FF3C013B1CF8011F0F468A5D97
:100B900002F00302012A13F8012F08BF01F1200718
:100BA000B05C00F00300012808BF203297420FD04C
:100BB0002468E1E724687CB1216A21B128460FF05E
:100BC00001F90028F6D1236A002B08BF002403E0B6
:100BD0000029D9D1F7E70C462046F8BDED590200AF
:100BE00081B138B181420DD0836823B98160C1E9F8
:100BF0000031012070475A68002AFAD011604A601B
:100C00005960F6E7002070472DE9F84F0646084680
:100C100011B90020BDE8F88F36B331464FF0000A15
:100C20000124424F0D4611F8013B3BBBAD1B55441F
:100C3000E91CFFF755FF07460028EAD04FF0220BCA
:100C4000441C05F1010905F1020880F800B0BAF171
:100C5000000F29D12A46314620460EF091FE07F8B2
:100C600009B007F808A007E00321FFF739FF0028C3
:100C7000CFD02F490FF0B0F80120CBE7222B0BD8B3
:100C8000072B0CD9A3F10802D2B204FA02F23A42BD
:100C900005D00AF1010AC5E75C2BC3D1F9E71F2B88
:100CA00098BF0AF1050ABDE75C254FF0740ADFF82A
:100CB00084B0013E16F8013F2BB9222207F8092023
:100CC00007F80830D8E71F2B07D9222B05D05C2B5B
:100CD00003D020462370441CECE7204600F8015B5B
:100CE00032780D2A0AD8072A1AD9A2F10803052B4F
:100CF00016D8DFE803F009120E150C10222A01D0D5
:100D00005C2A0DD16270E6E762236370E3E7662335
:100D1000FBE76E23F9E77223F7E784F801A0DAE72F
:100D200059460EF0B1FF601DD5E700BF3700000443
:100D30003A3B02003D3B020037B5054680B10FF05B
:100D400064F8084B421C10461B6801929847044601
:100D500018B12946019A0EF013FE204603B030BDAB
:100D60000446FAE790060020F8B50D4614460746FB
:100D700000B3F9B1F2B190421CD093B1D66846F4F9
:100D80000076E3689B0504D4206A10B10A4B5B68C7
:100D90009847214638462562E660BDE8F840FFF7EF
:100DA0001FBF0846FFF7C8FF054618B1E66826F4DE
:100DB0000076E6E70020F8BD90060020034610B557
:100DC00028209847044618B1282200210EF0E5FD9E
:100DD000204610BD2DE9F04F0C4680468DB008B975
:100DE00000255DE00029FBD0057B102D00F00E8171
:100DF00018DC6B1E072BF3D8072BF1D801A252F891
:100E000023F000BF8F0E0100A90E0100E10D0100CB
:100E1000790E0100E10D0100E10D0100E10D01007D
:100E2000B90E0100402D00F02081802D00F0D98006
:100E3000202DD5D1866801212046FFF751FE0028DC
:100E4000CED05B232C274FF000080370A36801333A
:100E5000A360E3680133E360002E40F0DD800221EF
:100E60002046FFF73DFE0028BAD05D234670037090
:100E7000E368013BE36008E005212046FFF730FE10
:100E80000028ADD092490EF0A7FF012508E0062109
:100E90002046FFF725FE0028A2D08E490EF09CFFC9
:100EA00028460DB0BDE8F08F05212046FFF718FE5B
:100EB000002895D08849E6E70021D0E90667162288
:100EC00006A805910EF069FD002200233046CDE909
:100ED0000223394632463B460EF0BEF990B927F060
:100EE000004B4FF0FF32304659467C4BB2460EF075
:100EF000B3F9F0B94FF0FF3230465946774B0EF058
:100F00008DF9B0B9724905A80EF066FF0425204698
:100F1000691CFFF7E5FD00283FF462AF034605A911
:100F20004619B34257D100234355A0682844A06016
:100F3000ABE7D8F8145028460EF09CF802460B4652
:100F4000304639460EF056F948B12A46644905A89C
:100F50000EF09AFE0546192D3FF642AFD7E732460E
:100F60003B46604905A80EF08FFE5F49054602AA80
:100F700005A80EF0A9FE012826D1DDE9028929F095
:100F80000043CDF8008001935046DDE90023594627
:100F90000EF03AF908B9CDE900AB32463B4640467F
:100FA00049460DF019FF00228046504B21F00049C0
:100FB000DDE9000112F0D2F902460B4640464946EF
:100FC0000EF02CF90028C6D132463B46484905A808
:100FD0000EF05AFEBEE711F8012B013303F8012C85
:100FE0009FE7006900283FF4FBAE0EF00EFF421CA5
:100FF000114620460092FFF773FD00283FF4F0AE43
:10100000009AD8F810100EF0BBFC3EE700690DB056
:10101000BDE8F04FFFF7F8BD21463046FFF7DAFE96
:1010200000283FF4DDAE2046FFF74EFD3368BBB12C
:1010300063692046002B14BF4FF002094FF00109ED
:1010400009F10101FFF74CFD00283FF4C9AE07701C
:1010500063693BB9431C83F80080A3684B44A360D9
:101060003668F9E6831C4570F5E74B698568002B07
:1010700014BF022601262046711CFFF731FD00280F
:101080003FF4AEAE7B230370E26863690132E26035
:101090000BB10A234370A3683A2733440926A3609F
:1010A00063693DBB002B00F08580E168013120467B
:1010B000FFF716FD00283FF493AE6369002B40F064
:1010C000838003467D221A7000225A70D0E600BF4A
:1010D000433B0200483B02004E3B0200FFFFEF7F14
:1010E000533B0200563B02005D3B02000000B03C57
:1010F000613B020073B12046E168FFF7F1FC002874
:101100003FF46EAE0246E168131A99424FD8A368C5
:101110000B44A3602146286AFFF776FD00283FF4C0
:101120005FAE2046FFF7D0FC63692046002B14BF5A
:101130004FF002084FF001084146FFF7D1FC0028AC
:101140003FF44EAE0770636903B14670A368214651
:1011500043442846A360FFF73DFE00283FF440AE1D
:101160002046FFF7B1FC2B686269B3F1000818BF95
:101170004FF00108002A18BF08F10108204608F1C5
:101180000101FFF7ADFC00283FF42AAE2B6813B134
:101190002C2300F8013B636913B10A2300F8013BDB
:1011A00000230370A3682D684344A36078E702F826
:1011B000016BA8E702217AE703F8015BE268191ADC
:1011C000013A8A42F8D87DE703460925F6E700BFD1
:1011D00070B5234D8AB00E4624220021044601A892
:1011E0000EF0DBFB2B684FF4807098474FF4807251
:1011F000034606960AAE0190029295E8070006E9BA
:1012000007007BB1204601A9FFF7E4FD50B101A81A
:10121000FFF75AFCAE6803995EB101980131B047FF
:101220000446D0B9019CC4B120466B68984700249D
:1012300013E02B68481C984704460028F2D0039A14
:10124000029B01329A4228BF1A4601990EF098FB80
:10125000039BE6546B680198984720460AB070BD1E
:101260009006002070B504460F4D04B970BDE368C8
:101270002668D90503D4A06868B9206988B9E368ED
:101280009B0503D4206A08B16B68984720466B68B9
:1012900098473446E9E7FFF7E5FFE368DA05ECD560
:1012A000EDE76B689847EAE790060020FFFFFFFF35
:1012B0002DE9F04706460C4692B009B9002023E01C
:1012C0000F68002FFAD08D68D1F8048005F1040969
:1012D000C1450BD80422924978190EF09EFD28B919
:1012E0000423F360C4F8089001200DE005F1050A1D
:1012F000D0450CD305228B4978190EF08EFD30B9FC
:101300000120F060C4F808A012B0BDE8F087C14524
:101310000CD80422844978190EF07FFD30B90223DD
:101320000120F3607061C4F80890EDE74545C5D22F
:101330007B5D7819222B06D12146304612B0BDE8DC
:10134000F047FFF7B7BA2D2B03D0A3F13002092ADB
:1013500062D8002302AA17464FF02E0E0193A8EB85
:10136000050510F8011B392910D82A291BD9A1F12C
:101370002B0CBCF10E0F16D8DFE80CF00D150D3B51
:10138000150D0D0D0D0D0D0D0D0D0D0001F0DF0CEA
:10139000BCF1450F07D1117001333F2B02F101025F
:1013A00001D0AB42DDD1002548336B44384603F809
:1013B000405C01A90FF076FBDDF804A059EC108B1E
:1013C000BA453FF47BAF54A3D3E9002386ED060B67
:1013D00010EE100A49460DF02BFF68B16FF0004384
:1013E00073610823AAEB070AA768F3605744A76054
:1013F0007AE782F800E0CFE70022404649464B4BAF
:101400000DF00CFF10B14FF00043E9E740464946AC
:101410000DF038FF7061E4E75B2B54D1E368B3F55E
:101420007A7FBFF44BAF0133E3607B5D5B2B7FF4CE
:1014300045AF01352046A560FFF72EFBD4E9012317
:10144000934264D22268D25C5D2A0DD100252F46DA
:10145000E368013BE36007B17D602023C6E90273C6
:10146000A3680133A3603FE700252F46013BA3603B
:101470002069FFF7A3FCA8460546002800F09D80E0
:10148000FFB1C8F80000C0F80480A368204601330B
:10149000A360FFF701FB21462846FFF709FF00285C
:1014A00000F08E802046FFF7F7FAD4E9012393423B
:1014B00080F086802268D35C2C2BD9D05D2B7FD125
:1014C000C6E70746E1E77B2B7FF4F8AEE368B3F5A8
:1014D0007A7FBFF4F3AE0133E3607B5D7B2B7FF457
:1014E000EDAE01352046A560FFF7D6FAD4E9012319
:1014F00093420CD22268D25C7D2A19D100252F4656
:10150000E368013BE36007B17D604023A6E7013B50
:10151000A360D3E6AFF300800000C0FFFFFFDF4110
:10152000433B0200483B02004E3B02000000E0C18A
:1015300000252F46A846013BA3602069FFF73EFC2B
:10154000A9460546002838D0AFB3C9F80000C0F856
:101550000490A36820460133A360FFF79DFA21465B
:101560002846FFF7A7F958B32046FFF795FA2B69ED
:10157000C5F810802B62D4E90123934220D222685F
:10158000D25C3A2A1CD101332046A360FFF784FACB
:1015900021462846FFF78CFE90B12046FFF77CFAE3
:1015A000D4E9012393420BD22268D35C2C2BC4D004
:1015B0007D2B05D1A4E70746CBE7002F3FF47EAE95
:1015C0003846FFF74FFE79E62DE9F04305464FF028
:1015D000000989B02E4F0C46164600211C2201A896
:1015E00098460EF0DAF9C7E90099002D46D0002C94
:1015F00039D0284BCDE9015493E8070008AB03E943
:101600000700FFF7DBFB044668B3019870B1039B4A
:101610005BB9029B042B06D903221F490EF0FDFB88
:1016200008B90323039301A800E04846FFF734FA02
:1016300001462046FFF73CFE90B1B8F1000F04D1FF
:10164000F6B9204609B0BDE8F08301A8FFF724FAF7
:10165000DDE90223934203D2019AD35C002BEFD041
:101660002046FFF7FFFDDDE902329A420DD303B1B8
:10167000013B0EB1EA183260C7E900530024E0E7ED
:10168000019B039A13443360DBE71346F1E700BF85
:10169000741B002090060020683B020037B50D4601
:1016A0000446019250B10EF0B0FB2A46411C204680
:1016B000019B03B0BDE83040FFF786BF03B030BDEB
:1016C00000221146FFF7EABF0121FFF781BDFFFFAE
:1016D000F0B515468BB006460C462422002101A821
:1016E0001F460EF05AF9002D11DB94B10123CDE90C
:1016F0000537094BCDE9014593E807000AAB03E93B
:101700000700304601A9FFF765FB0BB0F0BD0020D4
:10171000FBE72046F9E700BF900600200022FFF714
:1017200021BA0023FFF720BB174BD0B5186857EC40
:10173000106BFFF743FB044670B10823C0E906674E
:10174000C36039460EA3D3E9002330460DF070FD87
:1017500020B16FF0004363612046D0BD00223046C7
:1017600039460A4B0DF05AFD10B14FF00043F2E735
:10177000304639460DF086FD6061EDE7AFF300803D
:101780000000C0FFFFFFDF41900600200000E0C125
:1017900037B505460191FFF7C7FF0023024604460F
:1017A00001992846FFF7E0FA054618B92046FFF7E9
:1017B00059FD2C46204603B030BDFFFF38B50A4B1B
:1017C00005461868FFF7FAFA044658B11023C360BB
:1017D0002846FFF7B1FA0546206118B92046FFF701
:1017E00041FD2C46204638BD9006002037B5054601
:1017F00010460191FFF7E2FF0023024604460199DB
:101800002846FFF7B1FA054618B92046FFF72AFD2A
:101810002C46204603B030BD08B5044B1868FFF7CE
:10182000CDFA08B12023C36008BD00BF9006002098
:1018300008B5044B1868FFF7C1FA08B14023C3602C
:1018400008BD00BF9006002037B505460191FFF79F
:10185000EFFF00230246044601992846FFF784FA69
:10186000054618B92046FFF7FDFC2C46204603B07C
:1018700030BD2DE9F843B1F10009804603DA0024B8
:101880002046BDE8F8830028F9D0FFF7C5FF002601
:1018900004463746002CF2D0B94504D8A368002B83
:1018A000EED05E60ECE758F827000DF0E3FB41EC6A
:1018B000100BFFF739FF054618B92046FFF7D2FC99
:1018C000DDE71FB9A0602E460137E3E730604660D0
:1018D000F9E720B1007BA0F1080358425841704756
:1018E00008B50246FFF7F5FF10B192ED060B08BDF3
:1018F0009FED010BFBE700BF000000000000F87F38
:1019000020B1007BA0F1100358425841704708B540
:101910000246FFF7F5FF00B1106908BD70B50D462E
:101920001646044618B918200EF00AF8044600239B
:1019300063614FF0FF33681CC4E90106E360704344
:1019400023610DF0FDFF206020B90348BDE8704021
:101950000EF07AB970BD00BF6C3B020038B5C568A7
:1019600043680135B5FBF3F203FB125503690446E6
:10197000AB420CD02368C068A26802FB00300DF0B7
:10198000FFFF0120E56063690133636138BD00201A
:10199000FCE710B50446E268236908469A4213D072
:1019A0002368A268216902FB01310DF0E9FF236978
:1019B00062680133B3FBF2F1012002FB11332361B2
:1019C0006369013B636110BD0020FCE74FF6FF72C5
:1019D00010B5074C0144884201D1104610BD10F8E3
:1019E000013B5340DBB234F8133083EA1222F2E7B2
:1019F0007E3B020038B504462DED028B0D46D1E941
:101A000008010DF057FD9FED2A8A07EE900AD5E9EF
:101A10000A01C7EE887AC4ED067A0DF04BFD07EE99
:101A2000900AD5E90C01C7EE887AC4ED077A0DF06B
:101A300041FD07EE900AD5E90001C7EE887AC4EDB2
:101A4000087A0DF037FD07EE900AD5E90201C7EEDE
:101A5000887AC4ED027A0DF02DFD07EE900AD5E9E3
:101A60000401C7EE887AC4ED037A0DF023FD07EE7A
:101A7000900AD5E90601C7EE887AC4ED047A0DF024
:101A800019FD07EE900AD5E90E01C7EE887AB5F880
:101A90004030C4ED057A23850DF00CFD07EE900A69
:101AA000C7EE887ABDEC028BC4ED097A38BD00BF61
:101AB00000007A4490ED067ADFED2D7A27EE277A42
:101AC000BDEEC77A17EE103A90ED077A27EE277A27
:101AD000BDEEC77ADA17C1E9083217EE103A90ED79
:101AE000087A27EE277ABDEEC77ADA17C1E90A32FB
:101AF00017EE103A90ED027A27EE277ABDEEC77AFC
:101B0000DA17C1E90C3217EE103A90ED037A27EE9E
:101B1000277ABDEEC77ADA17C1E9003217EE103A1C
:101B200090ED047A27EE277ABDEEC77ADA17C1E97D
:101B3000023217EE103A90ED057A27EE277ABDEEC5
:101B4000C77ADA17C1E9043217EE103A90ED097A34
:101B500067EE277AFDEEE77ADA17C1E90632038DE0
:101B6000A1F8403017EE903ADA17C1E90E3270470B
:101B700000007A44DFED7A7AC0EE276AF8FE666AE2
:101B800066EEA76A07EE901A9FED767AB8EEE76ADE
:101B90000029C6EE077ABCBF9FED737A67EE877A9D
:101BA000C0ED007ADFED717A90ED007A38B527EE5E
:101BB000277A2DED048B9FED6E9AD0ED047A87EE97
:101BC000096A77EEC67A0029B8BF49421429C8BF0E
:101BD000038D0446C4BF01330385B0F92830C0ED3E
:101BE000016AB3F5967FC0ED047A40F0AC8090EDC9
:101BF000027A36EEC77A9FED5F6A27EE075AD0ED7C
:101C0000065A85EE068A80ED037AC0ED026A27EE59
:101C1000877ADFED596A05EEA68AC7EE065A90ED7F
:101C2000075AB0EE657A67EEA77A05EE267A80ED60
:101C3000077A87EE867AD0ED085AF0EE477A45EEBD
:101C4000A67A436A4D4D80ED068AC0ED087A9FED75
:101C50004C0A2B60FEF75CFBF0EE408A9FED480AD1
:101C6000FEF756FBD4ED087A28EE800A00EE678A6C
:101C70009FED430AFEF74CFBF0EE488AB0EE408A37
:101C80009FED3F0AFEF744FB38EE088A28EE008AF3
:101C900094ED070A28EE008A9FED390AFEF738FB1B
:101CA000C8EE889AB0EE408A9FED350AFEF730FB09
:101CB00028EE000AB7EE008A69EEA98AC8EE007A1B
:101CC00037EEA80AFEF724FBDFED2E7A30EE690A24
:101CD000B4EEE70AF1EE10FA84ED050ADFED2A6AA8
:101CE0009FED2A7A32DD94ED096AC6EE267A67EE18
:101CF000877A87EE897A84ED057AD5ED007A94EDBE
:101D0000097A37EEC77AB4EEC87AF1EE10FAC4BF9A
:101D100037EEC87A84ED097A94ED097AFFEE006A0D
:101D200037EEC77AB4EEE67AF1EE10FA4FF0000320
:101D300048BF77EE887AE36023614FF0000348BF25
:101D4000C4ED097A2385BDEC048B38BD20EE260A4C
:101D500020EE090AC0EE077AC4ED097ACDE700BF8C
:101D60006F12833A0000C8C35249853F3433333F72
:101D7000000061458FC2F53A77BE7F3F7C1B002093
:101D800066CF8B3A713D8A400000C842000073461E
:101D9000D0ED097AFCEEE77A17EE900A704790EDE5
:101DA000090A70470169B0F91830D1ED007AF4EEF4
:101DB000407AF1EE10FA01EB830237FE800A52ED11
:101DC000017AF4EE407AF1EE10FA4FF0000248BFCB
:101DD000B0EE670A30B595B29D424FEA850409DA44
:101DE0000D19D5ED007AF4EEC07AF1EE10FA02F199
:101DF0000102F0DBC368234493ED000A30BDFFFF0E
:101E0000C16830B5D1ED007AF4EE407AF1EE10FA07
:101E1000B0F9184037FE800A01EB840353ED017AD4
:101E2000F4EE407AF1EE10FA4FF0000248BFB0EE47
:101E3000670A93B2A34202DBDFED0F7A19E09D003F
:101E400001EB8303D3ED007AF4EEC07AF1EE10FAE1
:101E500002F10102EDDB426903692A442B4470EE72
:101E6000677AD2ED006A93ED007A07EEA67AC7EEA4
:101E7000007AB0EE670A30BD00000000D0ED007AB5
:101E8000DFED386AF8EE677AF8B50122002387EEB5
:101E9000A67A2DED028BC0E90E23436B324A334EF6
:101EA0001A60334A00245A60324A9A603368324AD0
:101EB00083ED007A9FED317AD0ED036AC6EE877A22
:101EC0002F4B02F120071B68C3ED007A5C609C6019
:101ED0002C4B1B68154603CDBD42186059602A463D
:101EE00003F10803F6D1B7EE008A2868264F186080
:101EF0003D6820220021281D0DF04FFD85ED008A50
:101F00009FED220AFEF738FA85ED040A204D3B6862
:101F10002F6883ED088A14220021381D0DF03DFD45
:101F20001C4B9FED1A0A3B60FEF726FA38EE400A7A
:101F3000BDEC028B2B68184A83ED020A174B1B6815
:101F40001C605C609A60164B164A1B681C605A60E5
:101F5000154B1B681C605C6033681A68134B1B6868
:101F60001A60F8BD00007A469EEFA73D8C1B00204A
:101F7000B537F83CA8B49041284702000000C84299
:101F8000E006002060070020B8060020607BA3BFA9
:101F9000C0060020719544B8B6F37DBDC806002088
:101FA000D00600200AD723BB30070020A81B002042
:101FB0002DE9F04F2DED048B032997B00446DFF88F
:101FC0005083089100F0D484042900F0FD84D8F8EF
:101FD0000030DFEDB67A93ED007AB4EEE77AF1EEF9
:101FE00010FA03D54368132B40F3B384D4ED097A78
:101FF000DFEDAF6AF8EE677A87EEA67AD4ED0A7A5B
:10200000DFEDAC6AF8EEE77AAB4BAC4F1B6803220E
:1020100083ED007A87EEA67AA94BAA4D1B68AA4EDB
:1020200083ED007A7B689FEDA98A009398E803000E
:102030003B68FEF74FFB95E80C00A54903C9FEF786
:1020400075FB95E80C0095E803009FEDA20AFEF7EA
:102050004BFA97E803008DE8030095E80C00FEF7C3
:10206000A9F995E80C0095E80300B0EE000AFEF728
:102070003BFA95E803008DE8030095E80C0097E82B
:102080000300FEF7C0F996E8030002AB83E8030003
:1020900095E803008DE8030097E80C008E4F98E860
:1020A0000300FEF7ABFA97E803008DE803008B4DC1
:1020B0008B4B95E803008B4D0CCBFEF739FA6B6820
:1020C000072200932B6897E80300FEF703FB96E8CE
:1020D00003008DE80300844F96E80C0097E80300A6
:1020E000FEF726FA96E803008DE8030095E80C0059
:1020F0007E4DFEF75FF92F46366806F15408F6EC80
:10210000017A67EE887A17EE900A0DF025FA4645B7
:10211000E7E80201F3D10022754B17469E46904630
:1021200094469146164605930692DEE9003AD5E9B3
:102130000010584301FB0A00A3FB011B083558445B
:1021400011EB0C0C40EB0909D5E90C1058430AFBC4
:102150000100A1FB031B5844CF1940EB0808D5E947
:102160001A105843A1FB03B30AFB010001361844BF
:10217000069B1BEB0202F6B240EB0303072E0EF1A7
:10218000080E0693D1D15B4DC5E904235A4BC5E92E
:1021900000C99B461E68C5E9027806F10C07F5E800
:1021A00002010DF087F907EE900AC7EE887AE6EC97
:1021B000017ABE42F3D1514D07226B68424E009323
:1021C0002B689BE80300FEF785FA95E803008DE88D
:1021D000030095E80C0096E80300FEF714F9484B5D
:1021E0009FED488A1E462D68069305F15407F5ECCD
:1021F000017A67EE887A17EE900A0DF0ADF9BD42CC
:10220000E6E80201F3D148223F4940480DF0B8FB0F
:102210000023DFF8ECC0DFF8FCE00793DEF80030C5
:10222000DFF8E8A00A93DEF804305546674600263A
:102230000C930EF1080E26E0D8F804300B9A099999
:102240005343D8F8002009F1010901FB0233194674
:102250000B9B08F13808A2FB03230D930D9B194437
:102260000368D218436840F8082B41EB0303B9F127
:10227000030F40F8043CDFD10336092E07F138077D
:1022800005F118054AD0D7E900130A9AE0465343EE
:102290000C9A284602FB01330A9A4FF00009A1FB71
:1022A00002210B920A461A440992C5E768916D3CD7
:1022B00000007A460000C8C38C1B0020E8060020FE
:1022C000881B0020F006002050070020A5D468538A
:1022D00060070020BDE38D3C18070020C0060020E9
:1022E0003007002008070020B8060020501C0020FE
:1022F00098470200C81B002038070020580700201C
:10230000F81C002020BCBE4C50470200A01D00203D
:10231000E0060020F0460200EC78AD60079B0CF16F
:10232000080C0133072B07937FF478AF1FED068A63
:10233000D84E356805F12407FAE802010DF0BAF825
:1023400007EE900AC7EE887AE5EC017AAF42F3D146
:10235000D14FD24D7B68032200933B689BE803007A
:10236000FEF7B8F995E80C0096E80300FEF7DEF9F1
:1023700095E80C0095E803009FEDC90AFEF7B4F854
:1023800097E803008DE8030095E80C00FEF712F8CB
:1023900095E80C0095E80300B0EE000AFEF7A4F8FB
:1023A00095E803008DE80300BE4E95E80C0097E821
:1023B0000300FEF728F896E8030002AB83E8030069
:1023C00095E803008DE80300B74D9BE8030097E80C
:1023D0000C00FEF713F92B68DFF8249393ED000A45
:1023E000D9F800709FEDB18A87ED000AFDF7D0FFA4
:1023F00087ED010A2B684F4693ED000AFDF77FFF3A
:10240000DFEDAB7AB4EEE70AF1EE10FA48BF002236
:102410009FEDA87A48BFD9F80030DFF8E89248BFAE
:102420005A60D9F800302A6883ED007AD2ED007A3C
:10243000F5EEC07ADFEDA07AF1EE10FA58BFF0EEBB
:10244000477AC3ED007A636BDFF8BCA2D3ED027A62
:1024500093ED010A20EE270A88EE000AFDF74FFFF0
:10246000B1EE400ADAF800B0FDF786FF8BED000A06
:10247000D9F800309FED910AD3ED007A67EE807AAB
:102480002B6867EE887A93ED000ADFED8D8A67EEA0
:10249000807A94ED100A20EE280A87EE800AFDF774
:1024A0002EFF884DB1EE400AD5F800B0FDF764FF6D
:1024B0008BED000ADAF80010834B0A681B68B046FF
:1024C0001A612A680FAD10681862D9F800007F4BB6
:1024D000D0ED007A28EE678AD4ED107A67EEA87AFC
:1024E00088EE277A1B68B7EE008A83ED007AD1ED7B
:1024F000007A78EE677AC3ED027AD2ED007A77EE51
:10250000C87A1C22C3ED057A00210FA80DF045FA08
:102510004FF000093368606B4B4493ED000AFFF7FE
:102520006FFC09F10409B9F11C0FA5EC010AF1D106
:102530009DED107ADDED0F7A77EE877A9DED117AB9
:1025400077EE877A9DED127A77EE877A9DED137A92
:1025500077EE877A9DED147A77EE877A9DED157A7E
:10256000F1EE0C6A77EE877A87EEA67ADFF89CC1E7
:10257000636BDCF80020564E82ED007AD3ED017AD1
:10258000F1EE677AC2ED017AD3ED007AF1EE677A67
:102590003268504DC2ED007A95E803008DE80300E3
:1025A0009CE8030098E80C00FDF7C2FF96E80300E2
:1025B00097E80C002E46FDF76FFF474B1A6802F1B3
:1025C0001C01A2EC010A9142FBD196E803008DE8C0
:1025D00003000CCB96E80300FDF7ECFE2F683F4D9F
:1025E000DFED3F8AA84607F11C09F7EC017A67EE98
:1025F000A87A17EE900A0CF0AFFFB945E8E802019F
:10260000F3D1002001460746059B059A1B68D2F8C6
:1026100004E008320592D5E900C25A430CFB0E22B1
:10262000A3FB0C3C013718189444FFB24CEB01019A
:10263000072F05F10805E7D12A4BC3E900012A4B12
:102640001D680CF037FF07EE900AC7EEA87AC5EDBB
:10265000007A264B1A6802F11C01286842F8040B24
:102660009142FAD1224D9FED239A95E803008DE81F
:10267000030096E803000CCBFDF7C5FE2D68DFF8DC
:102680009090AB46DFF88CA01B4E1C4F05F11C0848
:1026900042E000BF60070020E8060020F0060020AE
:1026A000BDE38D3C50070020881B00203433333FAE
:1026B0006F12833A5249853F789C823FCCFF764225
:1026C00000007346801B0020B8060020C0060020D2
:1026D000D00600204807002000070020E01B002053
:1026E000286B6E4EB01B0020A81B0020F8060020AF
:1026F000400700208096184B00005B629AE09E0025
:1027000030070020B81B0020841B0020C8060020D2
:10271000F0460200181C0020FBEC017A67EE897A73
:1027200017EE900A0CF018FFD9E90032424303FB80
:102730000122A0FB033CCAE900015943624400FBAB
:102740000211A3FB00309E19084440EB0707D8454F
:102750000AF1080A09F10809DED1A84B3046C3E99D
:102760000067A74B39461B68A64F05930CF0A2FEE5
:102770009FEDA57A07EE900AC7EE877A059BC3ED19
:10278000007AA24B1E6806F15409F6EC017A67EE56
:10279000A87A17EE900A0CF0DFFEB145E7E80201D7
:1027A000F3D19B4EF5EC017A67EEA87A17EE900A0A
:1027B0000CF0D2FEA845E6E80201F3D10022002386
:1027C000944D4FF0000A2846C5E90023C5E90223CD
:1027D000C5E90423D0E900890026DFF834E28E4FF2
:1027E000DDF818B00830DBE900320992DEF800208D
:1027F000D7E9001C079203FB0CFCDEF8042001362D
:102800000A92099AF6B201FB02CCA3FB01310A9AA3
:102810008C445A4307990BF1080B01FB0C2CA3FBCA
:10282000013113EB08088C444CEB0909072E07F122
:1028300008070EF1080ED6D1069B0AF1070A3833B5
:10284000BAF1150F40E902890693C3D1DFED738A0F
:10285000734E376807F10C08F5E802010CF02AFE08
:1028600007EE900AC7EEA87AE7EC017AB845F3D1F3
:1028700096E80300059B6B4D93ED000A95E80C006C
:1028800088EE000AFDF730FE95E80300664B674EC0
:102890001A68674B92ED000A1B68664FD3ED007A09
:1028A00096E80C0030EE670AFDF71EFE97E803007D
:1028B0008DE80300DFF8A4C196E80C009CE8030053
:1028C000FDF778FD3B68BFEE007AD3ED007AF4EEB9
:1028D000C87AD3ED027AF1EE10FAF4EEC77AC8BFE7
:1028E00083ED008AF1EE10FA2E4639D583ED027A97
:1028F000D3ED007AF5EEC07AF1EE10FA03D504219B
:102900002046FFF755FB29684B4B08681A684B4D6A
:102910001060486850608968916095E803008DE810
:10292000030096E803000CCBFDF702FE344B444E47
:10293000196895E80C0091ED000A95E80300FDF791
:10294000D3FD96E803008DE8030095E80C00FDF741
:102950005AFD089B237417B0BDEC048BBDE8F08FC3
:10296000F4EEC87AF1EE10FAC8BF83ED028ABFE731
:10297000D8F80030DFED337A93ED006AB4EEE76A01
:10298000F1EE10FAE5DCD0ED0A7AB8EEE77ADFED89
:102990002E7ADFED2E6A27EE277AD0ED107A67EED9
:1029A000A67ADFED2B6A67EEA67AC7EE276AF7EE06
:1029B000007A36EE867AB4EEE77AF1EE10FA77FE18
:1029C000877AC3ED007AC4E7D0ED007A9FED210A43
:1029D000F8EE677A406B87EE800AFFF7E3F9DFEDE8
:1029E0001E7A002220EE270AD8F8003084ED030A70
:1029F00020469A60FFF742FAABE700BFC01B0020F9
:102A0000BC1B0020F81C00206B0B5E5D58070020EB
:102A1000181C0020901B0020F046020078860764F6
:102A2000D8060020100700208C1B00202007002063
:102A3000A81B0020E00600206807002028070020CF
:102A400060070020295C7F3F3433333F0000C843D8
:102A50000000734600007A460000C8423807002094
:102A600080ED030A7047FFFF07EE901ADFED116A51
:102A7000F8EE677A87EEA67AD0ED037AF8FE677AE9
:102A800038B5FCEEE77A0025436802688362C0E946
:102A9000072380ED107AC0ED027AC0E90555426245
:102AA000C5620446FFF7EAF9012384F83050237425
:102AB00038BD00BF0000C84270B5836B2DED028B9E
:102AC00001338363C36A0446462B19D1D0ED057ADE
:102AD000DFED656AB8EE677AC7EE267AFCEEE77A34
:102AE000C0ED097AD0ED067AB8EEE77AC7EE267A1D
:102AF000FDEEE77A0023C0ED0A7AC0E90533C36230
:102B000046F2A811D4E905062368E26AA3F52F4529
:102B1000C83D8D4202F1010210D9E5690544206AE1
:102B200065613044A061E262227C0025052A00F242
:102B30009380DFE802F00B562C2C44466168184461
:102B400021623144E3616061A161ECE707EE903AF4
:102B50009FED460AF8EE677A606B87EE800A94ED87
:102B6000038AFFF71FF9DFED427A00EE678AB0EEC5
:102B7000480AFDF7C4FBF2EE047AB4EEE70AF1EE80
:102B800010FA04DD04212046FFF712FA01E00123C8
:102B90002374384B9FED367A1B680020D3ED007A02
:102BA00067EE877AC4ED037AF8FE677AFCEEE77A7F
:102BB00017EE903A642B88BF6423A36051E005238D
:102BC000E6E7D4ED017AA563B8EEE70AFDF797FBD7
:102BD000DFED297AB4EEE70AF1EE10FAC4BF012363
:102BE0002374D4ED017AB8EEE70AFDF788FB9FED78
:102BF000238AB4EEC80AF1EE10FAD4ED017A48BF88
:102C0000E36BB8EEE70A44BF0133E363FDF777FBFC
:102C1000B4EEC80AF1EE10FA14DD0023E363A36BEF
:102C2000452BB6D92268164B9A4213D96368013BEB
:102C3000B3F5957F0ED803212046FFF7B9F900239D
:102C4000A363A6E744F25063E26B9A42E7D1002304
:102C5000E36397E70221EFE72046FFF70FF9012032
:102C60002574BDEC028B70BD00008C4200007A46DA
:102C70000000C842E006002000005C4200007042F4
:102C8000C40301003B4B00F10C0218603A4B1A6080
:102C90003A4B00F130021A60394B00F184021A609D
:102CA000384B00F190021A60374B00F1B4021A6001
:102CB000364B00F1CC021A60354B00F1D8021A6095
:102CC000344B00F1E0021A60334B00F59A721A603F
:102CD000324B00F59E721A60314B00F5AC721A60EF
:102CE000304B00F5BA721A602F4B00F5C0721A60B3
:102CF0002E4B00F5C6721A602D4B00F5C8721A6093
:102D00002C4B00F5CA721A602B4B00F5CC721A607E
:102D10002A4B00F5CE721A60294B00F5D0721A606A
:102D2000284B00F5D2721A60274B00F5D4721A6056
:102D3000264B00F5E6721A60254B00F5F8721A6012
:102D4000244B00F5FE721A60234B00F523721A60C3
:102D5000224B00F52A721A60214B00F534721A607A
:102D6000204B00F537721A601F4B00F53A7018605F
:102D7000704700BFE00600206007002050070020D9
:102D800038070020B8060020C0060020C806002032
:102D9000D0060020580700203007002048070020F8
:102DA00040070020D806002010070020B81B002094
:102DB000A81B0020BC1B0020841B0020801B0020BF
:102DC0008C1B0020881B0020E8060020F006002055
:102DD000180700200807002000070020F806002040
:102DE00020070020680700202807002037B5019041
:102DF00054200D460CF0A4FD044680B195F9003036
:102E00000146722B0CBF01234FF48173019A0548D0
:102E100005F0D0F918B120460CF09AFD00242046A8
:102E200003B030BD0828002082B037B506A981E87C
:102E30000C0047484749FFF7D9FF054628B93E210E
:102E4000454B464A46480BF050FEFEF7F1FC04465F
:102E5000DDE906010CF04AF941EC100B204641492E
:102E6000FEF796FCDDE908010CF040F941EC100B8F
:102E700020463D49FEF78CFCDDE90A010CF036F9ED
:102E800041EC100B20463949FEF782FCDDE90C01CC
:102E90000CF02CF941EC100B20463549FEF778FC7C
:102EA000DDE90E010CF022F941EC100B204631490E
:102EB000FEF76EFCDDE910010CF018F941EC100B87
:102EC00020462D49FEF764FCDDE912010CF00EF9F5
:102ED00041EC100B20462949FEF75AFCDDE91401AC
:102EE0000CF004F941EC100B20462549FEF750FC8C
:102EF000BDF958000CF0BEF841EC100B20462149FA
:102F0000FEF746FCDDE918010CF0E8F841EC100B87
:102F10001D492046FEF73CFC2046FEF7D5FB0190FC
:102F20000CF073FF019A03462946184804F044F850
:102F30002946164805F002F828460CF009FD2046FF
:102F4000FEF790F9002003B0BDE8304002B07047B2
:102F5000D2470200D0470200DB4702005F48020070
:102F6000E8470200174802002048020028480200F3
:102F7000304802003D480200404802004348020039
:102F8000464802004A4802004E4802000828002035
:102F90002DE9F04F2DED048B06460C46A048A149C3
:102FA000D5B0FFF723FF054600283FD100239E4AF6
:102FB000F2EE047AC4E9082300239C4AC4E90A23F8
:102FC00000239B4AC4E90C234FF487520023C4E931
:102FD00006230023974AC4E90E2300220023C4E9F4
:102FE0000223C4E90423944B93ED037A67EE277A16
:102FF00017EE900A0CF0B0FA87A3D3E90023C4E9D6
:103000000001C4E9122368464822A4F8405004F1A4
:1030100008010CF0B5FC94E80C003046FFF704FF03
:10302000012055B0BDEC048BBDE8F08F4FF48072E9
:10303000002114A80CF0B1FC29464FF4807314AAA7
:103040007E4804F095F914A8FEF73AFB054628B926
:103050007C217B4B7B4A7C480BF047FD7B49FEF78C
:103060005DFB7B4913902846FEF758FB7949129087
:103070002846FEF753FB784983462846FEF74EFB69
:10308000764982462846FEF749FB7549814628461F
:10309000FEF744FB734908EE100A2846FEF73EFB94
:1030A000714908EE900A2846FEF738FB6F4909EE91
:1030B000100A2846FEF732FB6D4980462846FEF787
:1030C0002DFB139A07461046FEF70AFC51EC100B35
:1030D0000CF056FA129BC4E900011846FEF700FCFA
:1030E00051EC100B0CF04CFAC4E902015846FEF703
:1030F000F7FB51EC100B0CF043FAC4E90401504605
:10310000FEF7EEFB51EC100B0CF03AFAC4E90601A5
:103110004846FEF7E5FB51EC100B0CF031FAC4E920
:10312000080118EE100AFEF7DBFB51EC100B0CF057
:1031300027FAC4E90A0118EE900AFEF7D1FB51EC18
:10314000100B0CF01DFAC4E90C0119EE100AFEF781
:10315000C7FB51EC100B0CF013FAC4E90E0140460A
:10316000FEF7BEFB51EC100B0CF08CF8A4F84000FD
:103170003846FEF7B5FB51EC100B0CF039FA00277E
:103180003C4BC4E91201B94208BF98423DD000232C
:10319000254AF2EE047AC4E908230023234AC4E94D
:1031A0000A230023224AC4E90C234FF48752002348
:1031B000C4E9062300231F4AC4E90E23002200238A
:1031C000C4E90223C4E904231B4B93ED037A67EEA1
:1031D000277A17EE900A0CF0BFF90FA3D3E900236A
:1031E000C4E90001C4E9122304F108014822684639
:1031F000A4F840700CF0C4FB94E80C003046FFF7D4
:1032000013FE2846FEF72EF80AE72846FEF72AF8AE
:10321000384606E7AFF300808BEEE00000000000C8
:10322000D2470200B44902006B040100AB8E0400D7
:10323000AB6A1400A0860100602900200828002045
:10324000D647020052480200E84702001748020031
:103250002048020028480200304802003D48020091
:103260004048020043480200464802004A48020023
:103270004E4802008BEEE00081607047012202762A
:1032800064224FF47A51C0E91022094A0023C0E9B0
:10329000071244F26821074A80F858304262064A11
:1032A000C363C0E90B124DF2D862038742637047D3
:1032B000005C26053200FCFFB8050100D0F860353F
:1032C00013B15B1AC0F86035D0F868351BB900231C
:1032D00080F870357047591AC0F868150029F6D083
:1032E000704710B590F8A830044680F8A93006F071
:1032F00015FB84F8A80010BD90F8A8007047B0F83E
:10330000A800431E58425841704710B50446C06D8E
:1033100005F045FBE36D1B69E36410BD10B5044681
:10332000C06D05F04DFBE36D5B69236710BDC06D9B
:1033300005F057BBC06D05F065BB10B50446C06D08
:1033400005F071FBE36D5B7F236510BDC06D05F07B
:103350007BBBC06D05F09EBB012240F201210148FC
:1033600009F054BB4C370020C06D05F0F6BCFFFFE0
:1033700010B50B4C92B00B4800F00AFA21460A48EF
:10338000FEF798FB04F10801482268460CF0F8FAB1
:1033900094E80C000548FFF747FD12B010BD00BFD0
:1033A000E02C0020041E0020A4290020E81D00209D
:1033B00010B50446C06D05F09DFA00236365A36453
:1033C00010BD10B5046EA3682046984701232370F2
:1033D00010BD10B5846E63682046984700232370A3
:1033E00010BD10B5846EA368204698470123237052
:1033F00010BDC06D05F08CBAC06D05F0C3BA38B50C
:1034000004460025D4F88820EBB29A4205F1010564
:1034100000D838BDD4F88C2052F8230004F0ABFF5C
:10342000F0E7C06F04F08CBFD0F8800004F088BFD4
:10343000C06D05F05DBB13B50446C36D01AA1B68E2
:103440001979186805F036FA0199E06D05F056FF14
:1034500002B010BDC06D05F039BFFFFF4B1E70B547
:1034600004460D46112B39D8DFE803F009160D0D7F
:1034700028321B0D0D0D0D0D0D2235251616FFF7EB
:10348000B0FF00236365D4F8783584F858502BB327
:103490002046BDE870401847FFF79BFF0023A36755
:1034A000F1E7FFF7D7FF0E4A136801331360EAE72D
:1034B000FFF797FFE7E7FFF784FFE4E70026FFF752
:1034C00090FF204684F88460FFF7C4FFE663DAE7E4
:1034D000FFF74AFFD7E7FFF74BFFD4E770BD00BF08
:1034E000F81D002010B50446FFF762FF2046BDE836
:1034F00010400121FFF7B2BF70B590F85830044674
:10350000012B3AD0C36D1B681B685A6803F1C000D9
:10351000164659680C338A4238BF0A468E4228BF85
:103520000E469842F5D141F268039A42134D144B6E
:103530001ED9226F042A1BDD1A78142A14D90022FE
:10354000012120461A70FFF789FF40F6B7339E42EB
:103550000CD8236F043309DA2B78142B0BD90121F3
:103560002046FFF77BFF01E001321A70002303E0E1
:1035700000221A70E9E701332B7070BDFF1D002097
:10358000FE1D0020D0F8A400FFF776BED0F8A400FE
:10359000D0F81038184710B50446FFF7F3FF20465F
:1035A000BDE81040FFF7F2BF10B590F88430044634
:1035B00063B990F85830DA1E012A01D9102B10D1C6
:1035C0000E212046BDE81040FFF748BF012B09D16E
:1035D00090F858300E2B01D11221F2E7002380F829
:1035E000843010BD022B05D190F858300E2BF8D145
:1035F0001121E7E7032B06D190F858300E2BEBD0C2
:10360000102BEED1E8E7042BEBD00521FFF726FFC6
:103610000023204684F884301621BDE81040FFF7CF
:10362000BABFFFFF30B585B001A90C46D0F88C3089
:103630001A1F0C3352F8045F6D899A4221F8025B1D
:10364000F8D1C36F01215B89ADF80C30D0F8803020
:103650005B89ADF80E30BDF904301A4634F911001B
:1036600001318342A8BF03468242B8BF0246062901
:10367000F4D1552A02DC13F10A0F0CDA0C4A138834
:103680000A2B8BBF012000200A4B01338CBF18701E
:10369000138005B030BD0749087818B1502AF8DC0E
:1036A000002BF6DB0020024B08701880F1E700BF0A
:1036B000FC1D0020001E002010B50446FFF7B2FFDD
:1036C000E26DA16C92F8223092F823200B4343EA7A
:1036D000022343EA0043A36410BDFFFF37B5019006
:1036E00054200D460CF02CF9044680B195F90030B9
:1036F0000146722B0CBF01234FF48173019A0548D8
:1037000004F058FD18B120460CF022F900242046A0
:1037100003B030BD0828002000234FF07E52C0E9DE
:103720000033C0E9033382604361038370474FF085
:103730007E52036870B5CB1A002B04460E464360D8
:10374000826018DA0269C18AD31A632B036103D934
:103750004B1CC38200230361E38AA58A1D44238B8B
:10376000C5F34E05AB4204D0E3690BB1206A98471C
:103770002583266070BDEFD0C168828A0B44632B1D
:10378000C36081BF531C83820023C360E4E7FFFF53
:1037900073B52B4905462B48FFF7A0FF0646FEF7F9
:1037A00047F8044628B95821274B284A28480BF0E7
:1037B0009CF928680BF05EFC41EC100B2046254973
:1037C000FDF7E6FFE8680BF045FC41EC100B2046E6
:1037D0002149FDF7DDFF28690BF03CFC41EC100BA3
:1037E00020461E49FDF7D4FFA88A0BF033FC41ECBC
:1037F000100B20461A49FDF7CBFFE88A0BF02AFC94
:1038000041EC100B17492046FDF7C2FF2046FDF79B
:103810005BFF01900CF0F9FA019A03463146124819
:1038200003F0CAFB3146104804F088FB30460CF028
:103830008FF8204602B0BDE87040FDF713BD00BF11
:10384000D04702006C48020078480200EF480200AE
:10385000854802001C480200B4480200BC4802002F
:10386000C5480200D0480200082800202DE9F04F8A
:1038700050490446ADF2044D4F48FFF72FFF06466E
:1038800070B900230A222046C4E903332360636130
:10389000228363600DF2044DBDE8F04FFFF778BF5F
:1038A0004FF48062002168460CF077F84FF4806393
:1038B0006A463146414803F05BFD6846FDF700FF6C
:1038C000054638B931463D4804F038FB30460CF027
:1038D0003FF8D6E73A49FDF721FF834628B9812111
:1038E000374B384A38480BF000F928463749FDF77E
:1038F00015FF824618B98321344B324AF2E7284635
:103900003349FDF70BFF814618B98521304B2D4A0D
:10391000E8E728462F49FDF701FF804618B98721BF
:103920002C4B284ADEE728462B49FDF7F7FE0746D1
:1039300018B98921284B234AD4E75846FDF7D0FF10
:1039400051EC100B0BF09EFC20605046FDF7C8FFB9
:1039500051EC100B0BF0BEFCE0604846FDF7C0FFD9
:1039600051EC100B0BF0B6FC20614046FDF7B8FFA0
:1039700051EC100B0BF0AEFCA0823846FDF7B0FF07
:1039800051EC100B0BF0A6FCA38A80B2E082184425
:10399000C0F34E0031462083084804F0CFFA304689
:1039A0000BF0D6FF2846FDF75DFC0DF2044DBDE897
:1039B000F08F00BFB44902006C48020008280020C4
:1039C0001C480200DC48020085480200B44802009E
:1039D000BC480200C5480200D0480200024B1B68E8
:1039E00003B11847704700BF2C1E002010B5054CCE
:1039F0004FF48072002104F10C000BF0CEFF002385
:103A0000A36010BD2C1E002008B50D20FFF7E6FFB7
:103A1000BDE808400A20FFF7E1BF38B5451E15F99B
:103A2000014F04B938BD0A2C02D1FFF7EDFFF6E7CC
:103A3000082C204605D1FFF7D1FF2020FFF7CEFF4D
:103A40002046FFF7CBFFEAE708B50268064B1A608D
:103A500042685A60FFF7CAFF0448FFF7DEFFBDE87F
:103A600008400348FFF7D9BF2C1E00203F49020041
:103A7000700700202DE9F0410D2890B00DD0414B8A
:103A80009A68FF2A09D8196839B1082808D122B1E3
:103A9000013A9A60134400221A7310B0BDE8F08115
:103AA00018B1511C1A44996010739D686E1E3344FE
:103AB00093F90C300A2B01D0FF2DEED940220021C2
:103AC00068460BF06AFF00231A461C461F462E4923
:103AD000AB4222D1B5F5807F01D1FFF795FF002CD5
:103AE00049D02A4B0C271E68294B35461B68DDF848
:103AF000008007FB0367BD4225D32648FFF78DFFF3
:103B00000098FFF78AFFFFF77FFF2348FFF785FF45
:103B100031E0002A08BF0A4612E00F2CDADC91F9E6
:103B20000000202803D00A2801D0B342F1D10F7041
:103B300032B110A800EB840040F8402C0022013480
:103B400001330131C4E7414628680CF03BF960B10C
:103B50000C35D0E7114B1B780BB16B6808E01048AF
:103B6000FFF75BFFFFF742FF97E7AE42F2D17368C2
:103B7000694620469847FFF739FF0A48FFF74DFF8F
:103B80008BE700BF2C1E0020381E0020104C0200C6
:103B90000C4C02000D4902001F490200281E0020A3
:103BA000024902007007002008B5034B5B68984784
:103BB000BDE80840FFF75EBF2C1E002008B5FFF7E8
:103BC0002CFFBDE80840FFF71FBFFFFF0D4A70B58F
:103BD00015680C220C4B0D4E1B6802FB053503F1DA
:103BE0000C04AC4201D3002070BD2068FFF715FF24
:103BF0003046FFF712FFA068FFF70FFF0C34FFF706
:103C000003FFEEE70C4C0200104C02001C490200BE
:103C100001600021C0E90423416000F25C4000F033
:103C20007EB8FFFF38B50446164B92B91A780132B8
:103C30001A701B78022B0ED104F1180504F5767466
:103C4000012228461146F03500F05FFEA542F7D16B
:103C500038BD0022ECE7042BFAD1012204F19000D8
:103C6000114600F052FE012204F5C070114600F02A
:103C70004CFE012204F51C701146BDE8384000F0EE
:103C800044BE00BF381F002037B504460D460A4623
:103C900000F58660012100F083FD2946019004F5BE
:103CA000727000F063FB294604F5587000F04CF97F
:103CB00029462046019A03B0BDE83040FFF7B2BF65
:103CC0002DE9F341054600F5727005F118060F461F
:103CD000344600F03FFD05F55878204639467834E3
:103CE00000F02EFE4445F8D1BC000B3CA4B205F513
:103CF0007675032F8CBF214600213046019100F0DC
:103D000024FE06F178000199F03600F01EFE013421
:103D1000AE42A4B2EDD102B0BDE8F081704700B967
:103D2000FEE70023C0E9023303604360704770B5CB
:103D3000054600240288944211D2A3185E10C3F3F2
:103D40004F006B6833F836308B4211D003D92EB157
:103D5000421E92B2EFE7431C9CB2ECE7B44208D19A
:103D60004FF6FF706B6833F834308B4208BF204643
:103D700070BD4FF6FF70FBE7054A00F114033430C5
:103D800043F8042B834202F10102F9D1704700BFCE
:103D9000F407002010B510B10A78072A00D9FEE711
:103DA000002380F83420043138309A4200DC10BD02
:103DB00051F8044B013340F8044BF6E72DE9F84F76
:103DC0004FF000090446884607464D464FF6FF7AF5
:103DD000C37843F08003C37094F834304B4501DC62
:103DE000BDE8F88F4046398F97F83A6097F83BB0B6
:103DF000FFF79DFF504504D12046BDE8F84FFFF77F
:103E0000BBBFB8F800308342F6D9D8F8043003EBD2
:103E1000C0008378B342EFD9436806EB460613EB44
:103E20008606E9D000200F4B1A686B1D04EB830354
:103E3000834507DCE37809F101096FF3C713E370E9
:103E40000437C9E7F18801358142C8BF3168EDB256
:103E5000C6BF091819601A60082D03F10403CBD8F6
:103E60000130E5E7FC07002038B51546044638B1B7
:103E7000FFF790FF29462046BDE83840FFF79EBF78
:103E800038BDFFFF38B5802380F82030082380F844
:103E90002830094B04461B68416218300D4698478C
:103EA0000023A4F84C30637584F854304FF4407309
:103EB000A565A4F8603038BDF00700200023A0F805
:103EC0004C30437580F854304FF440738165A0F84E
:103ED00060307047002310B59CB2A24200D810BDDC
:103EE000CC5CC4540133F7E7014B1B68184700BF93
:103EF000F0070020012310B54FF4C06403708369FC
:103F000064F31C03836108234FF4B06403854368A2
:103F100064F31C034360002380F83030C362B1F8BF
:103F20006440896E4375C0E91133C0E91332C0E9BA
:103F3000163344864163A0F8403080F8423080F860
:103F40005430A0F8603010BD037873B5044623B92F
:103F5000012584F8615002B070BD90F86030002BEC
:103F6000F9D0B0F84C2062B11144B0F84E2089B2BB
:103F70008A42A0F84C1004D2B249FFF79FFF0325F4
:103F8000E7E7216D628EC88B904240F0A98118B19D
:103F9000606B4A6A1042DBD0627D82B994F854208B
:103FA000002AD5D0103B0026052B00F29781DFE8D0
:103FB00013F01F006000AF00D400F0005501002294
:103FC000217BA4F84C2049090429EBD1237C62759C
:103FD0008DF80030637C84F860208DF80130A37C7C
:103FE0008DF80230E37C8DF80330009BE365C6E773
:103FF000B4F84030616C84F821301B0A84F8223018
:1040000094F8423084F8306084F82330CA88A6855A
:10401000042AE2851BD8C2F104039B0003F00C03C1
:1040200043F0230384F82030096804F12400FFF7EB
:1040300051FF04F11800FFF757FF0023012584F812
:1040400054301123A4F84C5084F860301AE0212336
:1040500084F82030C2F3072384F8242084F8253024
:10406000C2F30743C2F3076284F8263084F827209E
:10407000DFE7237B5B09032B07D073492046FFF75B
:1040800001FF03250023637563E7637BB4F84020D9
:104090008DF80030A37B8DF80130BDF800309A42D6
:1040A00001D06A49EAE7E27B94F842309A42F8D1BB
:1040B000E28D042A04D8002384F860300225E1E769
:1040C000636C04F121001968A38D07339A420EDC5A
:1040D000D5B22A46FFF7FEFEE38DC5F10705A3859D
:1040E00094F8303043EA450343F0010305E007222A
:1040F000FFF7F0FEA28594F83030012584F82030D7
:10410000A4F84C5004F11800FFF7EEFE12239BE7D1
:10411000237B5A09012AB0D194F8302003F0100310
:10412000934201D04A49A9E783F01003E28D84F855
:104130003030A38D9A42BED9616CDD1D0968AA4258
:10414000194404F1210001DCD21AC1E70722FFF76C
:10415000C1FEA38D1344A385CDE7B4F840300125FB
:1041600084F821301B0A84F8223094F8423084F815
:10417000306084F823304023A68584F8203004F191
:104180001800FFF7B1FE1423A4F84C5084F85460D3
:104190005AE7227B5609022E7FF46FAF637BB4F897
:1041A00040108DF80030A37B8DF80130BDF8003051
:1041B00099427FF476AFE17B94F8423099427FF4E4
:1041C00070AF02F00305032D16D1636CC2F38102B8
:1041D000D988C2F1040292B29142E28504D220460B
:1041E0001C49FFF76BFE4DE7186804F11001FFF75B
:1041F00071FEE38DA3855EE7012D21D1237C626CE6
:104200008DF80030637CD2888DF80130A37C8DF866
:104210000230E37C8DF80330BDF800309A42E3852C
:1042200001D20C492AE70023A3856023A4F84C504F
:1042300084F8203004F11800FFF756FE152303E739
:1042400005491BE70000040523000A064300040695
:10425000000003050500040510000706237B5D0927
:104260007FF40BAF94F8301003F010028A427FF411
:1042700059AF82F0100284F83020626CA18D106872
:10428000E28DCE1DB242084403F001030EDC13B9E7
:104290004FF00061F2E6521A92B204F10D01FFF7FD
:1042A00019FEE38D84F86050A38507E7002BEFD15A
:1042B0000722012504F10D01FFF70CFEA38D04F187
:1042C00018001344A38594F8303043F0600384F859
:1042D0002030FFF709FEA4F84C50D3E60125D1E6C3
:1042E000002A3FF459AE33E6002310B59CB2A24237
:1042F00000D810BDCC5CC4540133F7E7014B1B68F8
:10430000184700BFF007002070B50124047091F831
:104310005C40856904F5B06666F31C058561082577
:104320000585456804F5C06464F31C050024848297
:10433000C46280F830404560B1F85E5080F8424079
:10434000C363B1F86030C0E91144C0E91644458642
:104350000487A0F84040A0F84C40A0F84E30026519
:1043600080F85440A0F8604070BDFFFF037873B53B
:10437000044623B9012584F8615002B070BDB0F83D
:104380004C3063B11944B0F84E3089B28B42A0F87A
:104390004C1004D2A949FFF791FD0325EBE7637D9B
:1043A00083B994F85430002BE4D094F86030113B7A
:1043B000042B00F2AE80DFE813F065001401AC00BE
:1043C00083008A010023257BA4F84C306D09042D5D
:1043D00011D1227C63758DF80020627C84F86030F6
:1043E0008DF80120A27C8DF80220E27C8DF803205C
:1043F000009AE265D1E794F86030002BD5D16B1EAE
:10440000012B04D98E492046FFF73CFDC5E7637BAD
:10441000E06B8DF80030A37B8DF80130BDF8001003
:10442000E37BA4F8401084F84230FFF780FC4FF69D
:10443000FF739842208712D0E26B138883420ED913
:10444000526894F8423002EBC00082789A4206D952
:10445000426803EB43039E0012EB830303D1002366
:1044600078496364CFE76364012D197923D1890703
:1044700001D47549C7E79B68DBB99359A36411233D
:1044800084F8603094F85430002B4FD0636C9B68F4
:104490005B68984703283AD1002504F1180084F896
:1044A0005450A4F84C50FFF729FF84F860500225BF
:1044B0006EE01B68E2E7CB07DBD5142384F860309D
:1044C0000026637B616C84F82130E38984F83060D6
:1044D0006384CA88A685042AE28504F1180500F2DF
:1044E000DD80C2F104039B0003F00C0343F043039F
:1044F00084F82030096804F12400FFF7F5FE28460F
:10450000FFF7FCFEE38D84F86060A385CFE7022807
:1045100001D001253CE000234C4984F85430A4F834
:104520004C302046FFF7AEFC032531E084F83030F4
:10453000A385637B84F82130E3896384237B03F0C4
:104540000305032D27D1626CC3F38103D288C3F125
:1045500004039BB2934298BF1A46E385A06C04F112
:104560001001FFF7C1FEE38DA385602384F820309E
:10457000636C9B683BB904F11800FFF7BFFE002392
:1045800084F8603093E70125A4F84C5084F8545027
:1045900000236375EFE6012D21D1237C626C8DF839
:1045A0000030637CD2888DF80130A37C8DF8023016
:1045B000E37C8DF80330BDF800309A42E38501D2E8
:1045C0002349AEE76023A4F84C5084F8203004F16E
:1045D0001800FFF793FE122384F86030D8E71D49D6
:1045E0009FE794F85430002B7FF450AF237B5A0997
:1045F00001D0194995E794F8301003F01002914268
:1046000001D016498DE7A18DE28DA06CCD1DAA4287
:10461000084403F0010323DC13B94FF0006180E785
:10462000521A92B204F10D01FFF75EFEE38DA385ED
:1046300094F8303043F0200398E700BF00000405F1
:104640000100040511000906000001062100000810
:10465000050004051000070623000A0600000305F4
:10466000002BDAD10722012504F10D01FFF73CFEF2
:10467000A38DA4F84C501344A38594F8303004F172
:10468000180043F0200384F82030FFF737FE94F839
:10469000303083F0100384F8303079E74123284626
:1046A000012584F82030C2F3072384F8242084F8FD
:1046B0002530C2F30743C2F3076284F8263084F83A
:1046C0002720FFF71BFE1523A4F84C5084E7237B1B
:1046D0005A09032A8DD194F8302003F010039A422E
:1046E0008FD1626CA38D1168E28DDE1DB242194438
:1046F00004F1210004F118051ADCD21AD6B23246B0
:10470000FFF7F2FDE38DC6F10706A38594F830307C
:10471000284643EA460343F0010384F82030FFF7BC
:10472000EDFD94F8303083F0100384F8303026E744
:104730000722FFF7D9FD28460125A38D1344A38541
:1047400094F8303084F82030FFF7D8FDA4F84C50AE
:104750009DE700BF037E01F07F0161F3060303764E
:10476000037961F306030371704703460A46D1E9F2
:10477000010183E803000321198291899982D1897B
:10478000D982B2F85810198392F85A209A760022EA
:10479000DA6183F820205A6283F828207047FFFFEF
:1047A00013B590F9031004460029C37855DB818BBB
:1047B0000A4492B2914238BF828313F0400335D04D
:1047C000828B838A9A4246D3C38B028B01339BB27E
:1047D0009A42C38311D2012290F82030817E134483
:1047E000DBB2994280F820303CBF002380F82030B3
:1047F00090F82030C2839A404262E38B20462372B5
:10480000C3F30723637294F82030A372144B1B6820
:10481000984700230120A383A38BE28A93428CBF95
:104820000023012384F8283002B010BD407C00280A
:10483000F2D0227AA17A8DF80020627A84F82010D2
:104840008DF80120BDF80020A383E28301228A4075
:1048500062626374E0E70020DEE70020E4E700BF67
:10486000F007002010B5044694F873300830022B8E
:1048700009D1636F98470A4B20461B68984700236D
:1048800084F8723010BD04F1100304F1300253F8C3
:10489000041F0978934200F8011BF8D1EBE700BF31
:1048A000F00700202DE9F0410446069D0E46114612
:1048B0001A469DF81C80089FFFF7D6FA2B892968B5
:1048C000AA89A4F864306B89E165A4F86630A4F87D
:1048D0006820A87BB8F1020F84F86A00286921607B
:1048E00084F871304FF008014FF00103E066218237
:1048F000A66584F8702084F8723084F87380676746
:1049000001D107B9FEE7BDE8F08190F90330002B33
:1049100015DB4FF6FF71B0F864308B4204D190F88C
:10492000723063B1FFF79EBF4AB1826DD18B99425D
:1049300003D1C16E526A1142F4D1002BEFD07047FF
:10494000037861F3060303707047A0F864107047A2
:1049500001230160037118467047FFFF012810B55D
:1049600016D1144CE368186808F07EFA08B10020EC
:1049700010BDE368186808F07DFA0028F7D1E368F5
:104980000D49186808F014FAB0FA80F04009EFE712
:104990000028ECD1074CE368186808F065FA002895
:1049A000E5D1E368186808F065FA0028DFD1E3680C
:1049B0005968E6E79808002044490200036810B5EA
:1049C0009A68186814690122A047B0FA80F040097B
:1049D00010BD08B503689A681868D268904701202E
:1049E00008BD2DE9F04705460F46904699466424D8
:1049F000D0F800A02846FFF7ECFFDAF8083042466E
:104A00009E6839464B46DAF80000B047064601205A
:104A100005F0DEF8013C11D0002EEBD164242B7997
:104A2000032B06D04FF47A7101200AF065F8013C9F
:104A3000F5D12879013818BF012002E0002EEDD011
:104A40002046BDE8F0872DE9F04705460F46904621
:104A500099466424D0F800A02846FFF7BAFFDAF898
:104A6000083042465E6839464B46DAF80000B047E7
:104A70000646012005F0ACF8013C11D0002EEBD128
:104A800064242B79022B06D04FF47A7101200AF0AE
:104A900033F8013CF5D12879013818BF012002E034
:104AA000002EEDD02046BDE8F0870171704700234D
:104AB000436003708360704770B50D460021044663
:104AC00000F0FDFC134B1E2618700120FFF746FF77
:104AD0000121204600F0E3FC30B94FF47A71012047
:104AE0000AF00AF8013EF3D11E2640232A464FF46D
:104AF0007861204600F0BDFD30B94FF47A71012095
:104B000009F0FAFF013EF0D10020BDE87040FFF748
:104B100025BF00BFDC25002038B50B8901600546A4
:104B20000C46838001224FF480611848FCF7F6FEA2
:104B30002146286800F053FC0028F9D0286800F1CD
:104B40003C0100F051FC0028F8D00021204600F084
:104B500094FC0028F9D03021204600F09BFC00286E
:104B6000F9D00C21204600F090FC0028F9D000215B
:104B7000204600F09CFC0028F9D04FF454712046E8
:104B800000F0CBFC0023AB7138BD00BFC421002076
:104B90002DE9F7430F4681460BF037F9214D84B2DA
:104BA00004F10802064692B20021284601920AF05A
:104BB000F4FE7F232B70230A6E70AB702646002311
:104BC000019A03F103089E421FFA88F824DCE11CD5
:104BD00089B214480192FCF7F9FE211D030A89B23B
:104BE00005F808006B540D21631D9BB2E9540A219E
:104BF0000026A31D9BB20734E95438460949A4B2E4
:104C00002E550BF0E9F83146019A06480AF0C5FE28
:104C1000012003B0BDE8F08319F80310013305F853
:104C20000810CEE7C41F0020F8B50446B0F80130E4
:104C30005BBA9BB2DD1CA9B203441E79475DFCF749
:104C4000C5FE23787F2B08D146EA072686424FF01F
:104C5000000304D1E01C6355F8BD0020FCE71846B2
:104C6000FAE7FFFFFFFFFFFF2DE9F04F2DED048B6B
:104C7000ADF23C4D04461E26026800AF02F14A0523
:104C80002A460621206800F083FC30B94FF47A717F
:104C9000012009F031FF013EF2D11E26226802F107
:104CA00044052A460021206800F072FC30B94FF418
:104CB0007A71012009F020FF013EF2D1A679206827
:104CC000012E23D0022E00F0268386B990F84A30B8
:104CD000D9070CD5012100F0F2FB0B4B1870012114
:104CE000206800F0DCFB0028F9D00123A3712368C1
:104CF0000821D868FFF762FE07F23C47BD46BDECCD
:104D0000048BBDE8F08F00BFDC25002090F84A300E
:104D1000DA0640F1B382DFF8C083402342464FF405
:104D2000786100F0F1FCCE4B18704046FFF77CFF35
:104D30000546002800F0AD82FCF7C2FCC949804658
:104D4000FCF7ECFC08EE100AFCF7E1FDC6490BF09D
:104D500039F80546002840F02A81324640F20231F7
:104D6000C24807F053FE32460D21C04807F04EFE00
:104D700032460E21BD4807F049FE324640F2062178
:104D8000BA4807F043FEBA4E07F1380330465919C6
:104D9000FCF7FFFD18B10135B5F5806FF4D14FF088
:104DA0000A09B44BB44E1A6CD3F844B008EE902AFA
:104DB000DA6DB24D5168DFF824E309EE101A196F6D
:104DC00009FB01F9AE49B1F818A0B446BCE80300EC
:104DD000F44528606960664605F10805F5D1DCF800
:104DE000000028609CF80410A6482971D3F88C5064
:104DF000291F05F10C0C054651F8046FB67A614580
:104E000040F8046BF8D1D96FD3F88030897A9B7A57
:104E10009D486B61136829611B6803F1C0055968DF
:104E20000C339D4240F8041BF9D1984D07F10C0357
:104E300028686968DFF8A8C203C3A86807F11806E4
:104E40001860934B354618685968083303C56345A5
:104E50002E46F7D1FCF7ECFC06469FED7F0B8D4903
:104E6000FCF796FC8C493046FCF7EEFC054618EE44
:104E7000900A0AF0EFF841EC100B28468749FCF73E
:104E800087FC58460AF0E6F841EC100B28468449A6
:104E9000FCF77EFC19EE100A0AF0DCF841EC100B6E
:104EA00028468049FCF774FC48460AF0E3F841ECD8
:104EB000100B28467C49FCF76BFC50460AF0CAF8F8
:104EC00041EC100B28467949FCF762FC6B4A2846F6
:104ED0007749FCF78BFC10216B48FCF7CAFC75493D
:104EE00002462846FCF71DFC06216648FCF7C1FC7B
:104EF000714902462846FCF714FC28466F4907F121
:104F00000C02FCF773FC28466D4907F11802FCF708
:104F10006DFC00234FF400726A493046FCF7D8FB61
:104F200069496848FFF734FE67480AF06EFF0025BC
:104F3000DFF894A1DFF838B11FFA80F9ABB24B4526
:104F400007D20AEB05015846FCF708FD0135002899
:104F5000F4D13046FCF786F9402200215B480AF084
:104F60001CFD0025594EDFF8089148467119FCF7E1
:104F700010FD10B10135402DF7D154492068FFF7DD
:104F80009BFD002240F20231384807F03FFD00222D
:104F90000D21364807F03AFD00220E21334807F074
:104FA00035FD002240F20621304807F02FFD18EEB3
:104FB000100AFCF7ACFC46490AF004FF064600283C
:104FC00040F0538140463449FCF7A8FB8146002855
:104FD00000F04B813A49FCF7A1FB002800F0AF80BC
:104FE000FCF795FC0546012240F202311F4807F00C
:104FF0000DFD01220D211D4807F008FD01220E21A3
:105000001A4807F003FD012240F20621174807F075
:10501000FDFC29462F480AF0DFFEFCF709FC82461A
:105020009FED0D0B1B49FCF7B3FB3346202207F124
:1050300018015046FCF74CFB07F118000AF0E5FE9A
:1050400007F1380583464022314628460AF0A5FC80
:105050007F2347E0AFF300800000000000006940BC
:10506000DC25002071490200754902004C37002000
:10507000C4210020C02E0020800000085C1F0020FA
:10508000041E00206C1F0020841F0020DF49020046
:10509000C5000008794902008049020089490200E0
:1050A0008D4902009149020099490200A14902007C
:1050B000A8490200B6490200BB490200C0490200EB
:1050C000CB490200DC210020DC2300202826002020
:1050D000D3490200D8280020E825002088000008D5
:1050E000D50000085A4607F1180107F13B0087F880
:1050F000383087F839B00AF043FC1FFA8BF2D11C24
:1051000089B228467A60FCF761FC0D217A68AB44CD
:10511000131D8BF803009BB2000AE854531D9BB289
:10512000E9540A21931D07329BB292B2E9542068D8
:105130002946AE54FFF7C0FC5046FCF793F84846AA
:105140007B49FCF7EBFA002800F08F80FCF7DFFBCF
:10515000012240F202310546764807F057FC012251
:105160000D21744807F052FC01220E21714807F00E
:105170004DFC012240F206216E4807F047FC6E46C6
:1051800090B0EE46DFF8C0C1DFF8C09103AB6246D5
:1051900003CA4A4518605960944603F10803F6D1E2
:1051A000106805F10C0218602846734650F8041B7D
:1051B000904243F8041BF9D102781A7062B640237A
:1051C000012270465C4904F06BFC0546642004F043
:1051D000FFFCB546FCF72CFBEDB28146002D55D106
:1051E0009FED4F0B5549FCF7D3FA0023202207F11E
:1051F00018014846FCF76CFA07F118000AF005FEA2
:1052000007F1380582464022002128460AF0C5FBF6
:105210007F231FFA8AF6524607F1180107F13B0077
:1052200087F8383087F839A00AF0AAFBF11C89B258
:105230002846FCF7CBFB0D22331DAA448AF8030055
:105240009BB2000AE854731D9BB2EA540A22B31DB4
:105250009BB2EA5400230736B6B220682946AB5504
:10526000FFF72AFC4846FBF7FDFF4046FBF7FAFF35
:105270000121206800F023F9314B1870236893F85E
:105280004A30DB073FF533AD02232FE59FED260BB8
:10529000A8E798F800600246012E40F20231254846
:1052A00026D107F0B3FB32460D21224807F0AEFBB2
:1052B0002A460E211F4807F0A9FB324640F206217C
:1052C0001C4807F0A3FB402229461E480AF065FB54
:1052D0001C4EDFF87C8040467119FCF75AFB10B178
:1052E0000135402DF7D117492068FFF7E5FBBFE7EF
:1052F00007F08CFB2A460D210E4807F087FB2A4653
:105300000E210C4807F082FB2A4640F2062109488C
:1053100007F07CFBACE70023E8E400BFAFF30080BC
:10532000000000000000694000000000000079401B
:10533000D84902004C37002080000008794902005B
:10534000DC250020282600208C000008BC00000876
:10535000C421002073B5C5688DF80710C1792846AF
:1053600016461C46FFF72AFB18B90024204602B057
:1053700070BD0023012228460DF10701FFF731FB24
:105380000028F2D0214601232846B2B2FFF75BFB8A
:1053900004462846FFF71DFBE8E713B58DF8062005
:1053A0000422FE248DF805108DF807300DEB020164
:1053B0000123C0688DF80440FFF713FB02B010BD55
:1053C00010B40446184622810022019BE160E3717B
:1053D00022612275A0615DF8044BFFF768BB0B46A4
:1053E00007220021FFF7B6BF38B50D4C0D46234606
:1053F00010223A21FFF7AEFF80B1204623782B70B0
:1054000063786B70A378AB70E378EB7023792B71C2
:1054100063796B71A379AB71E379EB7138BD00BF30
:10542000682600207FB5FE2304468DF80110C1795F
:10543000C06816468DF80030FFF7C0FA002302223C
:105440006946E068FFF7CDFA80B1012369461A4644
:10545000E068FFF7F8FA054640B1E068FFF7B9FAEF
:105460009DF800303370284604B070BDE068FFF747
:10547000B0FA0025F7E7FFF7D5BF002914BF802356
:10548000002380220021FFF788BF0B460C22002159
:10549000FFF783BF0B4630220021FFF77EBF0029B4
:1054A00014BF4023002340220021FFF776BF0029CC
:1054B00014BF0223002302220021FFF76EBF30B584
:1054C000002485B001910DF10F02214605468DF8AB
:1054D0000F40FFF7D0FF9DF80F20019B02F0010164
:1054E000994211D012F0400111D021462846FFF711
:1054F000D6FF214601222846019BFFF74EFF0121DE
:1055000004462846FFF7CBFF204605B030BD0122F8
:105510002846FFF742FF0446F6E770B5CBB20C46CB
:10552000FF2203210546FFF738FF38B12846230A3A
:10553000FF22BDE870400421FFF72FBF70BDF8B512
:10554000044680F82C10C179C06817461D46FFF745
:1055500035FA00230122E06804F12C01FFF741FA3B
:1055600008B90020F8BD04F11C06012310223146C1
:10557000E068FFF768FA0028F3D0102D28BF102547
:105580000023AB42EED216F8012BFA540133F8E7B0
:1055900038B5FE23044680F82C3080F82D10C179F0
:1055A000C0681546FFF70AFA00230222E06804F1FA
:1055B0002C01FFF716FA08B9002038BD0123E06876
:1055C0001A4604F11C01FFF73EFA0028F4D0237FAD
:1055D0002B70F2E773B5102B0D466FF02C064FF0D1
:1055E0000001044628BF10238DF8071080F82C50C6
:1055F000013A00F12D01361A7018834232D8591C35
:10560000C9B2C3F11002102903F12D0388BF012292
:1056100054FA83F000210AF0C0F9E179E068FFF75D
:10562000CDF901231122E06804F12C01FFF7D9F92B
:105630000646E0B10835EDB2032D18D90325052043
:1056400004F0C6FA062120460DF10702FFF7A0FF7D
:1056500030B9013D0BD09DF807309B07EFD43046A1
:1056600002B070BD12F8010F01F8010BC4E7002071
:10567000F6E72DE9F74F07468A46914698460026F9
:1056800000F11C0B464501D3012019E00AEB06048A
:10569000C4F3071104F00F04A8EB0605C4F11003CE
:1056A000ADB29BB29D4228BF1D46102D28D00023CD
:1056B00038461A460191FFF742FF019918B10020C0
:1056C00003B0BDE8F08F11B90CB1FB793B77002333
:1056D00009EB06020F2C98BFD05C03F1010398BFC1
:1056E0000BF804009D4204F10104F3D810235A463C
:1056F0003846FFF76FFF0028E1D12E44B6B2C1E76C
:105700002B4609EB0602F3E72DE9F84F07468A46D8
:1057100091469846002600F11C0B464501D3012016
:1057200017E00AEB0605C5F3071105F00F05A8EB16
:105730000604C5F11003A4B29BB29C4228BF1C46CC
:10574000102C19D0002338461A46FFF7F8FE10B97E
:105750000020BDE8F88F002309EB06020F2D98BF4B
:105760001BF8051005F1010598BFD15401339C4287
:10577000F4D82644B6B2D0E72346384609EB0602F1
:10578000FFF7DDFE0028F4D1E2E70368013304D01F
:105790004068431C5842584170470120704710B57B
:1057A0000B6804689C4209D040684A68904205D062
:1057B000944203D0181A18BF012010BD0020FCE746
:1057C00040F30903B3F1FF3F08BF0130C0F3090004
:1057D0000430704710B5031F0439083053F8042F04
:1057E00051F8044F834282EA04021A60F6D110BDD8
:1057F00008B503681B0D13F4E06306D00430FFF70F
:10580000CEFFB0FA80F0400908BD1846FCE7836E71
:1058100010B51A6A436DD31A1944B1FBF2F302FBB7
:105820001311836D8B420BD90123426E4C0901F099
:105830001F0103FA01F152F824300B4342F82430DF
:10584000002010BD164A11F0805F30B5154C18BF0E
:105850001446036883EA010525421FD043F3090477
:1058600001341BD001EA02040F4A1A4042F09F4261
:1058700042F4E002944211D00A0D02F4E064B4F55F
:10588000806F09D1C3F38924C1F389218C4203D3EA
:1058900052B203EB82230360002000E0012030BD00
:1058A00000FCFF7F00FC0F7000FC0F00024608B5F3
:1058B0000846FFF785FF136818441060002008BDF4
:1058C000036B1944C1F30903003B18BF012321F006
:1058D000004141EAC371016370470368013303600B
:1058E00000207047836E10B51B6B044613B9C06867
:1058F0000AF02EF8A36E5B6B13B9E0690AF028F882
:10590000A36E9B6B13B9606E0AF022F8002010BDE5
:105910002DE9F04F89B00392826E0693136ADDE998
:1059200012B45B458946DDE91486059040F29A8001
:10593000D269A319934200F29580069B013B07931D
:105940000EB930468BE0B9F1000F3CD0D9F80030E9
:105950009B4538D1D9E9015205EB020AA24532D95B
:10596000A54211D8AAEB040AB24528BFB246D9F81D
:105970000C10651B4046524629440AF001F8D044F9
:105980005444A6EB0A06DBE72D1BB54228BF35467B
:10599000039B1B689B451CD1039BD3E901120A445E
:1059A000944216D28C4210D3121B954228BF154642
:1059B000DB68611A40462A46194409F0E1FFA84411
:1059C0002C44761BBCE73546E2E7091B8D4228BF15
:1059D0000D46059B986E41694268B4FBF1F317468A
:1059E000069A01FB1343B24216D8ABB98E4213D3C9
:1059F000B5FBF1FA01FB1A53A5EB030A0493224607
:105A000043465946CDF800A0B84740BB049BD0445C
:105A10005D1B54442E4493E7039A039DC2F800B0E3
:105A2000E21A6A60079D1B1B05EB010AA244BAFB40
:105A3000F1F501FB15A1AAEB010AC1698A4594BFE2
:105A400053445B18816A8B4228BF0B4603998B60D5
:105A50000093CB685946B84700283FF471AF09B0AE
:105A6000BDE8F08F6FF05300F9E730B501680446E8
:105A7000082087B004AD8B6E0390029550680190AA
:105A8000126800920A46DB6910461031FFF740FFAA
:105A900030B92846211DFFF782FE003818BF0120CB
:105AA00007B030BD2DE9F04F93B015460993136848
:105AB000826E0746126A0C46934205D36FF0530676
:105AC000304613B0BDE8F08F69688A42F6D90021EC
:105AD0004FF004080CAACDE9011200930246434698
